{
  "contractName": "TokenDistribution",
  "abi": [
    {
      "anonymous": false,
      "inputs": [
        {
          "indexed": false,
          "internalType": "uint256",
          "name": "round",
          "type": "uint256"
        },
        {
          "indexed": false,
          "internalType": "uint256",
          "name": "amount",
          "type": "uint256"
        },
        {
          "indexed": false,
          "internalType": "address",
          "name": "account",
          "type": "address"
        }
      ],
      "name": "Deposit",
      "type": "event"
    },
    {
      "anonymous": false,
      "inputs": [
        {
          "indexed": true,
          "internalType": "address",
          "name": "previousOwner",
          "type": "address"
        },
        {
          "indexed": true,
          "internalType": "address",
          "name": "newOwner",
          "type": "address"
        }
      ],
      "name": "OwnershipTransferred",
      "type": "event"
    },
    {
      "anonymous": false,
      "inputs": [
        {
          "indexed": false,
          "internalType": "address",
          "name": "account",
          "type": "address"
        }
      ],
      "name": "Paused",
      "type": "event"
    },
    {
      "anonymous": false,
      "inputs": [
        {
          "indexed": false,
          "internalType": "address",
          "name": "account",
          "type": "address"
        }
      ],
      "name": "Unpaused",
      "type": "event"
    },
    {
      "anonymous": false,
      "inputs": [
        {
          "indexed": false,
          "internalType": "uint256",
          "name": "round",
          "type": "uint256"
        },
        {
          "indexed": false,
          "internalType": "uint256",
          "name": "amount",
          "type": "uint256"
        },
        {
          "indexed": false,
          "internalType": "address",
          "name": "account",
          "type": "address"
        }
      ],
      "name": "Withdraw",
      "type": "event"
    },
    {
      "stateMutability": "payable",
      "type": "fallback",
      "payable": true
    },
    {
      "inputs": [],
      "name": "AMOUNT_TOKEN_SALE_PER_ROUND",
      "outputs": [
        {
          "internalType": "uint256",
          "name": "",
          "type": "uint256"
        }
      ],
      "stateMutability": "view",
      "type": "function",
      "constant": true
    },
    {
      "inputs": [],
      "name": "BASE_MAX_BUY_PER_WALLET",
      "outputs": [
        {
          "internalType": "uint256",
          "name": "",
          "type": "uint256"
        }
      ],
      "stateMutability": "view",
      "type": "function",
      "constant": true
    },
    {
      "inputs": [],
      "name": "MAX_ROUND",
      "outputs": [
        {
          "internalType": "uint256",
          "name": "",
          "type": "uint256"
        }
      ],
      "stateMutability": "view",
      "type": "function",
      "constant": true
    },
    {
      "inputs": [],
      "name": "MIN_BUY",
      "outputs": [
        {
          "internalType": "uint256",
          "name": "",
          "type": "uint256"
        }
      ],
      "stateMutability": "view",
      "type": "function",
      "constant": true
    },
    {
      "inputs": [],
      "name": "MIN_ROUND",
      "outputs": [
        {
          "internalType": "uint256",
          "name": "",
          "type": "uint256"
        }
      ],
      "stateMutability": "view",
      "type": "function",
      "constant": true
    },
    {
      "inputs": [],
      "name": "owner",
      "outputs": [
        {
          "internalType": "address",
          "name": "",
          "type": "address"
        }
      ],
      "stateMutability": "view",
      "type": "function",
      "constant": true
    },
    {
      "inputs": [],
      "name": "pancakeRouter",
      "outputs": [
        {
          "internalType": "contract IPancakeRouter02",
          "name": "",
          "type": "address"
        }
      ],
      "stateMutability": "view",
      "type": "function",
      "constant": true
    },
    {
      "inputs": [],
      "name": "pancakeRouter1",
      "outputs": [
        {
          "internalType": "contract IPancakeRouter02",
          "name": "",
          "type": "address"
        }
      ],
      "stateMutability": "view",
      "type": "function",
      "constant": true
    },
    {
      "inputs": [],
      "name": "pancakeRouter2",
      "outputs": [
        {
          "internalType": "contract IPancakeRouter02",
          "name": "",
          "type": "address"
        }
      ],
      "stateMutability": "view",
      "type": "function",
      "constant": true
    },
    {
      "inputs": [],
      "name": "paused",
      "outputs": [
        {
          "internalType": "bool",
          "name": "",
          "type": "bool"
        }
      ],
      "stateMutability": "view",
      "type": "function",
      "constant": true
    },
    {
      "inputs": [],
      "name": "renounceOwnership",
      "outputs": [],
      "stateMutability": "nonpayable",
      "type": "function"
    },
    {
      "inputs": [],
      "name": "roundTime",
      "outputs": [
        {
          "internalType": "uint256",
          "name": "",
          "type": "uint256"
        }
      ],
      "stateMutability": "view",
      "type": "function",
      "constant": true
    },
    {
      "inputs": [],
      "name": "saleStartTime",
      "outputs": [
        {
          "internalType": "uint256",
          "name": "",
          "type": "uint256"
        }
      ],
      "stateMutability": "view",
      "type": "function",
      "constant": true
    },
    {
      "inputs": [],
      "name": "token",
      "outputs": [
        {
          "internalType": "contract IERC20",
          "name": "",
          "type": "address"
        }
      ],
      "stateMutability": "view",
      "type": "function",
      "constant": true
    },
    {
      "inputs": [
        {
          "internalType": "address",
          "name": "newOwner",
          "type": "address"
        }
      ],
      "name": "transferOwnership",
      "outputs": [],
      "stateMutability": "nonpayable",
      "type": "function"
    },
    {
      "stateMutability": "payable",
      "type": "receive",
      "payable": true
    },
    {
      "inputs": [
        {
          "internalType": "address",
          "name": "_pancakeRouter",
          "type": "address"
        },
        {
          "internalType": "address",
          "name": "_token",
          "type": "address"
        }
      ],
      "name": "initialize",
      "outputs": [],
      "stateMutability": "nonpayable",
      "type": "function"
    },
    {
      "inputs": [
        {
          "internalType": "address",
          "name": "_pancakeRouter1",
          "type": "address"
        },
        {
          "internalType": "address",
          "name": "_pancakeRouter2",
          "type": "address"
        }
      ],
      "name": "setPancakeRouters",
      "outputs": [],
      "stateMutability": "nonpayable",
      "type": "function"
    },
    {
      "inputs": [],
      "name": "currentRound",
      "outputs": [
        {
          "internalType": "uint256",
          "name": "",
          "type": "uint256"
        }
      ],
      "stateMutability": "view",
      "type": "function",
      "constant": true
    },
    {
      "inputs": [
        {
          "internalType": "uint256",
          "name": "round",
          "type": "uint256"
        }
      ],
      "name": "endRoundTime",
      "outputs": [
        {
          "internalType": "uint256",
          "name": "",
          "type": "uint256"
        }
      ],
      "stateMutability": "view",
      "type": "function",
      "constant": true
    },
    {
      "inputs": [
        {
          "internalType": "uint256",
          "name": "round",
          "type": "uint256"
        }
      ],
      "name": "withdrawTimeLeft",
      "outputs": [
        {
          "internalType": "uint256",
          "name": "",
          "type": "uint256"
        }
      ],
      "stateMutability": "view",
      "type": "function",
      "constant": true
    },
    {
      "inputs": [
        {
          "internalType": "uint256",
          "name": "round",
          "type": "uint256"
        },
        {
          "internalType": "address",
          "name": "account",
          "type": "address"
        }
      ],
      "name": "canWithdraw",
      "outputs": [
        {
          "internalType": "bool",
          "name": "",
          "type": "bool"
        }
      ],
      "stateMutability": "view",
      "type": "function",
      "constant": true
    },
    {
      "inputs": [
        {
          "internalType": "uint256",
          "name": "round",
          "type": "uint256"
        }
      ],
      "name": "getTokenAmountLeftInRound",
      "outputs": [
        {
          "internalType": "uint256",
          "name": "",
          "type": "uint256"
        }
      ],
      "stateMutability": "view",
      "type": "function",
      "constant": true
    },
    {
      "inputs": [
        {
          "internalType": "uint256",
          "name": "round",
          "type": "uint256"
        }
      ],
      "name": "canDeposit",
      "outputs": [
        {
          "internalType": "bool",
          "name": "",
          "type": "bool"
        }
      ],
      "stateMutability": "view",
      "type": "function",
      "constant": true
    },
    {
      "inputs": [
        {
          "internalType": "uint256",
          "name": "round",
          "type": "uint256"
        },
        {
          "internalType": "uint256",
          "name": "cursor",
          "type": "uint256"
        },
        {
          "internalType": "uint256",
          "name": "size",
          "type": "uint256"
        }
      ],
      "name": "getOrderByRound",
      "outputs": [
        {
          "components": [
            {
              "internalType": "uint256",
              "name": "id",
              "type": "uint256"
            },
            {
              "internalType": "address",
              "name": "account",
              "type": "address"
            },
            {
              "internalType": "uint256",
              "name": "depositValue",
              "type": "uint256"
            },
            {
              "internalType": "bool",
              "name": "claimed",
              "type": "bool"
            }
          ],
          "internalType": "struct TokenDistribution.Order[]",
          "name": "",
          "type": "tuple[]"
        }
      ],
      "stateMutability": "view",
      "type": "function",
      "constant": true
    },
    {
      "inputs": [
        {
          "internalType": "uint256",
          "name": "round",
          "type": "uint256"
        }
      ],
      "name": "getLastedOrderIdByRound",
      "outputs": [
        {
          "internalType": "uint256",
          "name": "",
          "type": "uint256"
        }
      ],
      "stateMutability": "view",
      "type": "function",
      "constant": true
    },
    {
      "inputs": [
        {
          "internalType": "uint256",
          "name": "round",
          "type": "uint256"
        },
        {
          "internalType": "uint256",
          "name": "index",
          "type": "uint256"
        }
      ],
      "name": "getAddressIndexes",
      "outputs": [
        {
          "internalType": "address",
          "name": "",
          "type": "address"
        }
      ],
      "stateMutability": "view",
      "type": "function",
      "constant": true
    },
    {
      "inputs": [
        {
          "internalType": "uint256",
          "name": "round",
          "type": "uint256"
        },
        {
          "internalType": "address",
          "name": "account",
          "type": "address"
        }
      ],
      "name": "getOrderDetail",
      "outputs": [
        {
          "components": [
            {
              "internalType": "uint256",
              "name": "id",
              "type": "uint256"
            },
            {
              "internalType": "address",
              "name": "account",
              "type": "address"
            },
            {
              "internalType": "uint256",
              "name": "depositValue",
              "type": "uint256"
            },
            {
              "internalType": "bool",
              "name": "claimed",
              "type": "bool"
            }
          ],
          "internalType": "struct TokenDistribution.Order",
          "name": "",
          "type": "tuple"
        }
      ],
      "stateMutability": "view",
      "type": "function",
      "constant": true
    },
    {
      "inputs": [
        {
          "internalType": "uint256",
          "name": "round",
          "type": "uint256"
        }
      ],
      "name": "getRound",
      "outputs": [
        {
          "components": [
            {
              "internalType": "uint256",
              "name": "round",
              "type": "uint256"
            },
            {
              "internalType": "uint256",
              "name": "totalDeposit",
              "type": "uint256"
            },
            {
              "internalType": "uint256",
              "name": "totalWithdraw",
              "type": "uint256"
            }
          ],
          "internalType": "struct TokenDistribution.Round",
          "name": "",
          "type": "tuple"
        }
      ],
      "stateMutability": "view",
      "type": "function",
      "constant": true
    },
    {
      "inputs": [
        {
          "internalType": "uint256",
          "name": "round",
          "type": "uint256"
        }
      ],
      "name": "getMaxDepositByRound",
      "outputs": [
        {
          "internalType": "uint256",
          "name": "",
          "type": "uint256"
        }
      ],
      "stateMutability": "pure",
      "type": "function",
      "constant": true
    },
    {
      "inputs": [
        {
          "internalType": "uint256",
          "name": "size",
          "type": "uint256"
        },
        {
          "internalType": "uint256",
          "name": "cursor",
          "type": "uint256"
        }
      ],
      "name": "getRounds",
      "outputs": [
        {
          "components": [
            {
              "internalType": "uint256",
              "name": "round",
              "type": "uint256"
            },
            {
              "internalType": "uint256",
              "name": "totalDeposit",
              "type": "uint256"
            },
            {
              "internalType": "uint256",
              "name": "totalWithdraw",
              "type": "uint256"
            }
          ],
          "internalType": "struct TokenDistribution.Round[]",
          "name": "",
          "type": "tuple[]"
        }
      ],
      "stateMutability": "view",
      "type": "function",
      "constant": true
    },
    {
      "inputs": [
        {
          "internalType": "uint256",
          "name": "round",
          "type": "uint256"
        }
      ],
      "name": "getClaimAt",
      "outputs": [
        {
          "internalType": "uint256",
          "name": "",
          "type": "uint256"
        }
      ],
      "stateMutability": "view",
      "type": "function",
      "constant": true
    },
    {
      "inputs": [
        {
          "internalType": "uint256",
          "name": "round",
          "type": "uint256"
        }
      ],
      "name": "getBuyableBnb",
      "outputs": [
        {
          "internalType": "uint256",
          "name": "",
          "type": "uint256"
        }
      ],
      "stateMutability": "view",
      "type": "function",
      "constant": true
    },
    {
      "inputs": [
        {
          "internalType": "uint256",
          "name": "round",
          "type": "uint256"
        },
        {
          "internalType": "bytes",
          "name": "_signature",
          "type": "bytes"
        },
        {
          "internalType": "string",
          "name": "_message",
          "type": "string"
        },
        {
          "internalType": "string",
          "name": "_messageWS",
          "type": "string"
        }
      ],
      "name": "deposit",
      "outputs": [],
      "stateMutability": "payable",
      "type": "function",
      "payable": true
    },
    {
      "inputs": [
        {
          "internalType": "uint256",
          "name": "round",
          "type": "uint256"
        }
      ],
      "name": "withdraw",
      "outputs": [],
      "stateMutability": "nonpayable",
      "type": "function"
    },
    {
      "inputs": [
        {
          "internalType": "uint256",
          "name": "startTime",
          "type": "uint256"
        }
      ],
      "name": "setSaleStartTime",
      "outputs": [],
      "stateMutability": "nonpayable",
      "type": "function"
    },
    {
      "inputs": [
        {
          "internalType": "uint256",
          "name": "price",
          "type": "uint256"
        }
      ],
      "name": "setFirstRoundPrice",
      "outputs": [],
      "stateMutability": "nonpayable",
      "type": "function"
    },
    {
      "inputs": [
        {
          "internalType": "uint256",
          "name": "price",
          "type": "uint256"
        }
      ],
      "name": "setLastRoundPrice",
      "outputs": [],
      "stateMutability": "nonpayable",
      "type": "function"
    },
    {
      "inputs": [
        {
          "internalType": "uint256",
          "name": "_bonusRate",
          "type": "uint256"
        }
      ],
      "name": "setBonusRate",
      "outputs": [],
      "stateMutability": "nonpayable",
      "type": "function"
    },
    {
      "inputs": [
        {
          "internalType": "uint256",
          "name": "_time",
          "type": "uint256"
        }
      ],
      "name": "setRoundTime",
      "outputs": [],
      "stateMutability": "nonpayable",
      "type": "function"
    },
    {
      "inputs": [
        {
          "internalType": "string",
          "name": "_message",
          "type": "string"
        }
      ],
      "name": "setMessage",
      "outputs": [],
      "stateMutability": "nonpayable",
      "type": "function"
    },
    {
      "inputs": [],
      "name": "emergencyWithdraw",
      "outputs": [],
      "stateMutability": "nonpayable",
      "type": "function"
    },
    {
      "inputs": [
        {
          "internalType": "uint256",
          "name": "round",
          "type": "uint256"
        }
      ],
      "name": "initialPriceInRound",
      "outputs": [
        {
          "internalType": "uint256",
          "name": "",
          "type": "uint256"
        }
      ],
      "stateMutability": "view",
      "type": "function",
      "constant": true
    },
    {
      "inputs": [
        {
          "internalType": "uint256",
          "name": "round",
          "type": "uint256"
        }
      ],
      "name": "maxVolumeInRound",
      "outputs": [
        {
          "internalType": "uint256",
          "name": "",
          "type": "uint256"
        }
      ],
      "stateMutability": "view",
      "type": "function",
      "constant": true
    },
    {
      "inputs": [
        {
          "internalType": "uint256",
          "name": "round",
          "type": "uint256"
        },
        {
          "internalType": "uint256",
          "name": "amountBnb",
          "type": "uint256"
        }
      ],
      "name": "calculateExactTokenAmount",
      "outputs": [
        {
          "internalType": "uint256",
          "name": "",
          "type": "uint256"
        }
      ],
      "stateMutability": "view",
      "type": "function",
      "constant": true
    },
    {
      "inputs": [
        {
          "internalType": "address",
          "name": "_to",
          "type": "address"
        },
        {
          "internalType": "string",
          "name": "_message",
          "type": "string"
        }
      ],
      "name": "getMessageHash",
      "outputs": [
        {
          "internalType": "bytes32",
          "name": "",
          "type": "bytes32"
        }
      ],
      "stateMutability": "pure",
      "type": "function",
      "constant": true
    }
  ],
  "bytecode": "0x608060405234801561001057600080fd5b50613267806100206000396000f3fe6080604052600436106102765760003560e01c80638d59e4f01161014f578063ddceefaf116100c1578063ee5f8c8f1161007a578063ee5f8c8f146106fa578063ef0990fe1461070f578063f10968951461073c578063f2fde38b14610751578063fa65cb0414610771578063fc0c546a146107915761027d565b8063ddceefaf14610670578063e4fcf32914610690578063e587feac146106b0578063e85f86d1146105f1578063e9eba6f3146106c5578063ea0265f1146106da5761027d565b8063a83f4ce511610113578063a83f4ce5146105d1578063a9394a86146105f1578063b4ac62c514610611578063bd24115114610626578063c21ebd0714610646578063db2e21bc1461065b5761027d565b80638d59e4f0146105225780638da5cb5b146105425780638de73afb146105645780638f1327c01461058457806391be0c03146105b15761027d565b8063485cc955116101e857806374b5a9f5116101ac57806374b5a9f51461046d5780638168b5e21461048d578063839bb088146104ad578063849bcad1146104cd57806389419ccc146104ed5780638a19c8bc1461050d5761027d565b8063485cc955146103f0578063525f8a5c146104105780635c975abb146104305780635e0db62014610445578063715018a6146104585761027d565b806339443b8e1161023a57806339443b8e1461031f5780633af96b901461034c5780633c37d53d146103615780633ea01b5d1461037657806340f74f471461039657806343efd975146103c35761027d565b806311241bd41461027f5780631985bd3e146102aa5780631cbaee2d146102ca5780632e1a7d4d146102df578063368b8772146102ff5761027d565b3661027d57005b005b34801561028b57600080fd5b506102946107a6565b6040516102a19190612c78565b60405180910390f35b3480156102b657600080fd5b506102946102c536600461296c565b6107b4565b3480156102d657600080fd5b506102946107f0565b3480156102eb57600080fd5b5061027d6102fa36600461288a565b6107f6565b34801561030b57600080fd5b5061027d61031a36600461284f565b610a4f565b34801561032b57600080fd5b5061033f61033a36600461288a565b610aa5565b6040516102a19190612c6d565b34801561035857600080fd5b50610294610aec565b34801561036d57600080fd5b50610294610af7565b34801561038257600080fd5b5061033f6103913660046128ba565b610b03565b3480156103a257600080fd5b506103b66103b136600461296c565b610b76565b6040516102a19190612c2b565b3480156103cf57600080fd5b506103e36103de3660046128ba565b610c6c565b6040516102a19190613151565b3480156103fc57600080fd5b5061027d61040b366004612711565b610cd2565b34801561041c57600080fd5b5061027d61042b36600461288a565b610e01565b34801561043c57600080fd5b5061033f610e51565b61027d6104533660046128de565b610e5b565b34801561046457600080fd5b5061027d61106f565b34801561047957600080fd5b5061027d61048836600461288a565b6110f8565b34801561049957600080fd5b5061027d6104a8366004612711565b611149565b3480156104b957600080fd5b506102946104c836600461288a565b6111b6565b3480156104d957600080fd5b506102946104e836600461288a565b6111e2565b3480156104f957600080fd5b5061029461050836600461288a565b61121f565b34801561051957600080fd5b50610294611231565b34801561052e57600080fd5b5061029461053d36600461288a565b61127e565b34801561054e57600080fd5b5061055761128b565b6040516102a19190612b5b565b34801561057057600080fd5b5061027d61057f36600461288a565b61129a565b34801561059057600080fd5b506105a461059f36600461288a565b6112eb565b6040516102a1919061315f565b3480156105bd57600080fd5b506102946105cc366004612749565b61132c565b3480156105dd57600080fd5b506102946105ec36600461288a565b61135f565b3480156105fd57600080fd5b5061029461060c36600461288a565b6113a6565b34801561061d57600080fd5b506102946113c0565b34801561063257600080fd5b5061055761064136600461296c565b6113c5565b34801561065257600080fd5b506105576113eb565b34801561066757600080fd5b5061027d6113fa565b34801561067c57600080fd5b5061029461068b36600461288a565b6115bd565b34801561069c57600080fd5b5061027d6106ab36600461288a565b6115ea565b3480156106bc57600080fd5b5061055761162e565b3480156106d157600080fd5b5061029461163d565b3480156106e657600080fd5b506102946106f536600461288a565b611642565b34801561070657600080fd5b50610294611693565b34801561071b57600080fd5b5061072f61072a36600461298d565b611699565b6040516102a19190612bdd565b34801561074857600080fd5b5061055761181c565b34801561075d57600080fd5b5061027d61076c3660046126d9565b61182b565b34801561077d57600080fd5b5061027d61078c36600461288a565b6118ec565b34801561079d57600080fd5b50610557611930565b692d7d32dda00da880000081565b60006107e7670de0b6b3a76400006107db6107ce86611642565b859063ffffffff61193f16565b9063ffffffff61197116565b90505b92915050565b60cd5481565b32331461080257600080fd5b61080a610e51565b156108305760405162461bcd60e51b815260040161082790612e89565b60405180910390fd5b600260655414156108535760405162461bcd60e51b81526004016108279061311a565b60026065556108628133610b03565b61087e5760405162461bcd60e51b815260040161082790612cd4565b600081815260c960209081526040808320338452909152812060038101805460ff1916600117905590806108b1846111b6565b600085815260c9602090815260408083203384529091529020600201549091506108da856111e2565b600086815260ca6020526040902060010154111561091d578181111561091d57600061090c828463ffffffff6119ab16565b905061091833826119d3565b829150505b61092785826107b4565b925082610933866115bd565b10156109515760405162461bcd60e51b815260040161082790612f84565b61095a81611a55565b600085815260ca60205260409020600281015461097d908563ffffffff611c2716565b600282015560d35460405163a9059cbb60e01b81526001600160a01b039091169063a9059cbb906109b49033908890600401612b89565b602060405180830381600087803b1580156109ce57600080fd5b505af11580156109e2573d6000803e3d6000fd5b505050506040513d601f19601f82011682018060405250810190610a06919061282f565b507f71ef96c43343734b1d843bb85d52ef329f5e9143e4d35827771e3b0dd90c5f84868533604051610a3a93929190613186565b60405180910390a15050600160655550505050565b610a57611c4c565b6001600160a01b0316610a6861128b565b6001600160a01b031614610a8e5760405162461bcd60e51b815260040161082790613061565b8051610aa19060d6906020840190612584565b5050565b6000610ab0826111e2565b600083815260ca6020526040902060010154118015610ad65750610ad3826113a6565b42115b15610ae357506000610ae7565b5060015b919050565b66470de4df82000081565b67016345785d8a000081565b6000610b0e8361135f565b158015610b415750600083815260c9602090815260408083206001600160a01b038616845290915290206003015460ff16155b80156107e7575050600091825260c9602090815260408084206001600160a01b03939093168452919052902060020154151590565b606082828203811115610b8a578260600390505b60608167ffffffffffffffff81118015610ba357600080fd5b50604051908082528060200260200182016040528015610bdd57816020015b610bca612602565b815260200190600190039081610bc25790505b50905060005b82811015610c635760ca600086830181526020019081526020016000206040518060600160405290816000820154815260200160018201548152602001600282015481525050828281518110610c3557fe5b6020026020010181905250848101828281518110610c4f57fe5b602090810291909101015152600101610be3565b50949350505050565b610c74612623565b50600082815260c9602090815260408083206001600160a01b038086168552908352928190208151608081018352815481526001820154909416928401929092526002820154908301526003015460ff161515606082015292915050565b600054610100900460ff1680610ceb5750610ceb611c50565b80610cf9575060005460ff16155b610d155760405162461bcd60e51b815260040161082790612f08565b600054610100900460ff16158015610d40576000805460ff1961ff0019909116610100171660011790555b610d48611c61565b610d50611cf4565b610d58611d6a565b4260cd81905565065dd083700060cf5566020af59ebef00060d05560d15561038460d25560d480546001600160a01b038086166001600160a01b03199283161790925560d3805492851692909116919091179055600a60ce5561708060d55560408051808201909152600b8082526a44454641554c545f4d534760a81b6020909201918252610de99160d691612584565b508015610dfc576000805461ff00191690555b505050565b610e09611c4c565b6001600160a01b0316610e1a61128b565b6001600160a01b031614610e405760405162461bcd60e51b815260040161082790613061565b428111610e4c57600080fd5b60cd55565b60975460ff165b90565b323314610e6757600080fd5b610e6f610e51565b15610e8c5760405162461bcd60e51b815260040161082790612e89565b610e993330848487611de8565b610eb55760405162461bcd60e51b8152600401610827906130f3565b60018410158015610ec7575060608411155b610ee35760405162461bcd60e51b815260040161082790612d9f565b610eec84610aa5565b610f085760405162461bcd60e51b8152600401610827906130cd565b600084815260c96020908152604080832033845290915290206002015415610f425760405162461bcd60e51b815260040161082790612dc4565b66470de4df820000341015610f695760405162461bcd60e51b815260040161082790612ffc565b8367016345785d8a000002341115610f935760405162461bcd60e51b815260040161082790612eb3565b610f9c84611e7e565b600084815260c9602090815260408083203380855290835281842088855260cb8452828520805482553460028301819055600180840180546001600160a01b0319908116871790915560cc885286892093548952928752858820805490931690941790915589865260ca909452919093209283015491929091611025908463ffffffff611c2716565b60018201556040517fd68606c673aecac7ce24ec44fd7d77b401356dfd76fe9b36cb58e579c4220aed9061105e90899034903390613186565b60405180910390a150505050505050565b611077611c4c565b6001600160a01b031661108861128b565b6001600160a01b0316146110ae5760405162461bcd60e51b815260040161082790613061565b6033546040516000916001600160a01b0316907f8be0079c531659141344cd1fd0a4f28419497f9722a3daafe3b4186f6b6457e0908390a3603380546001600160a01b0319169055565b611100611c4c565b6001600160a01b031661111161128b565b6001600160a01b0316146111375760405162461bcd60e51b815260040161082790613061565b6000811161114457600080fd5b60cf55565b611151611c4c565b6001600160a01b031661116261128b565b6001600160a01b0316146111885760405162461bcd60e51b815260040161082790613061565b60d780546001600160a01b039384166001600160a01b03199182161790915560d88054929093169116179055565b600081815260cb602090815260408083205460ca9092528220600101546107ea9163ffffffff61193f16565b60006107ea670de0b6b3a76400006112136111fc85611642565b692d7d32dda00da88000009063ffffffff61197116565b9063ffffffff61193f16565b600090815260cb602052604090205490565b600060cd5442116112545760405162461bcd60e51b815260040161082790612cfd565b611279606461121360646107db60d55461121360cd54426119ab90919063ffffffff16565b905090565b67016345785d8a00000290565b6033546001600160a01b031690565b6112a2611c4c565b6001600160a01b03166112b361128b565b6001600160a01b0316146112d95760405162461bcd60e51b815260040161082790613061565b600081116112e657600080fd5b60d055565b6112f3612602565b50600090815260ca6020908152604091829020825160608101845281548152600182015492810192909252600201549181019190915290565b60008282604051602001611341929190612a6f565b60405160208183030381529060405280519060200120905092915050565b60008061138961137a60d5548561197190919063ffffffff16565b60cd549063ffffffff611c2716565b90508042111561139d576000915050610ae7565b42900392915050565b60006107ea61137a60d5548461197190919063ffffffff16565b606081565b600091825260cc602090815260408084209284529190529020546001600160a01b031690565b60d4546001600160a01b031681565b611402611c4c565b6001600160a01b031661141361128b565b6001600160a01b0316146114395760405162461bcd60e51b815260040161082790613061565b6000336001600160a01b03164760405161145290610e58565b60006040518083038185875af1925050503d806000811461148f576040519150601f19603f3d011682016040523d82523d6000602084013e611494565b606091505b50509050806114b55760405162461bcd60e51b815260040161082790613031565b60d3546001600160a01b031663a9059cbb6114ce61128b565b60d3546040516370a0823160e01b81526001600160a01b03909116906370a08231906114fe903090600401612b5b565b60206040518083038186803b15801561151657600080fd5b505afa15801561152a573d6000803e3d6000fd5b505050506040513d601f19601f8201168201806040525081019061154e91906128a2565b6040518363ffffffff1660e01b815260040161156b929190612b89565b602060405180830381600087803b15801561158557600080fd5b505af1158015611599573d6000803e3d6000fd5b505050506040513d601f19601f82011682018060405250810190610aa1919061282f565b600081815260ca60205260408120600201546107ea90692d7d32dda00da88000009063ffffffff6119ab16565b6115f2611c4c565b6001600160a01b031661160361128b565b6001600160a01b0316146116295760405162461bcd60e51b815260040161082790613061565b60ce55565b60d8546001600160a01b031681565b600181565b60006001821415611656575060cf54610ae7565b61166260018303611642565b61168c6116776060600163ffffffff6119ab16565b60cf5460d0546112139163ffffffff6119ab16565b0192915050565b60d55481565b600083815260cb602052604090205460609082906116eb5760408051600080825260208201909252906116e2565b6116cf612623565b8152602001906001900390816116c75790505b50915050611815565b600085815260cb602052604090205484900381111561171b5750600084815260cb60205260409020548390036001015b60608167ffffffffffffffff8111801561173457600080fd5b5060405190808252806020026020018201604052801561176e57816020015b61175b612623565b8152602001906001900390816117535790505b50905060005b8281101561181057600087815260cc6020908152604080832089850184528252808320548a845260c983528184206001600160a01b039182168086529084529382902082516080810184528154815260018201549092169382019390935260028301549181019190915260039091015460ff161515606082015283518490849081106117fc57fe5b602090810291909101015250600101611774565b509150505b9392505050565b60d7546001600160a01b031681565b611833611c4c565b6001600160a01b031661184461128b565b6001600160a01b03161461186a5760405162461bcd60e51b815260040161082790613061565b6001600160a01b0381166118905760405162461bcd60e51b815260040161082790612d22565b6033546040516001600160a01b038084169216907f8be0079c531659141344cd1fd0a4f28419497f9722a3daafe3b4186f6b6457e090600090a3603380546001600160a01b0319166001600160a01b0392909216919091179055565b6118f4611c4c565b6001600160a01b031661190561128b565b6001600160a01b03161461192b5760405162461bcd60e51b815260040161082790613061565b60d555565b60d3546001600160a01b031681565b60008082116119605760405162461bcd60e51b815260040161082790612e22565b81838161196957fe5b049392505050565b600082611980575060006107ea565b8282028284828161198d57fe5b04146107e75760405162461bcd60e51b815260040161082790612fbb565b6000828211156119cd5760405162461bcd60e51b815260040161082790612deb565b50900390565b8015610aa1576000826001600160a01b0316826040516119f290610e58565b60006040518083038185875af1925050503d8060008114611a2f576040519150601f19603f3d011682016040523d82523d6000602084013e611a34565b606091505b5050905080610dfc5760405162461bcd60e51b815260040161082790612f56565b60d45460d7546001600160a01b0390811691161415611a955760d85460d480546001600160a01b0319166001600160a01b03909216919091179055611ab8565b60d75460d480546001600160a01b0319166001600160a01b039092169190911790555b60d35460d454604051636eb1769f60e11b81526001600160a01b039283169263dd62ed3e92611aef92309290911690600401612b6f565b60206040518083038186803b158015611b0757600080fd5b505afa158015611b1b573d6000803e3d6000fd5b505050506040513d601f19601f82011682018060405250810190611b3f91906128a2565b611bcf5760d35460d45460405163095ea7b360e01b81526001600160a01b039283169263095ea7b392611b7b9291169060001990600401612b89565b602060405180830381600087803b158015611b9557600080fd5b505af1158015611ba9573d6000803e3d6000fd5b505050506040513d601f19601f82011682018060405250810190611bcd919061282f565b505b6000611be282600463ffffffff61193f16565b90506000611bf6838363ffffffff6119ab16565b60d354909150611c10906001600160a01b03163084611eb0565b60d354610dfc906001600160a01b03163083612009565b6000828201838110156107e75760405162461bcd60e51b815260040161082790612d68565b3390565b6000611c5b3061222d565b15905090565b600054610100900460ff1680611c7a5750611c7a611c50565b80611c88575060005460ff16155b611ca45760405162461bcd60e51b815260040161082790612f08565b600054610100900460ff16158015611ccf576000805460ff1961ff0019909116610100171660011790555b611cd7612233565b611cdf6122b4565b8015611cf1576000805461ff00191690555b50565b600054610100900460ff1680611d0d5750611d0d611c50565b80611d1b575060005460ff16155b611d375760405162461bcd60e51b815260040161082790612f08565b600054610100900460ff16158015611d62576000805460ff1961ff0019909116610100171660011790555b611cdf61238e565b600054610100900460ff1680611d835750611d83611c50565b80611d91575060005460ff16155b611dad5760405162461bcd60e51b815260040161082790612f08565b600054610100900460ff16158015611dd8576000805460ff1961ff0019909116610100171660011790555b611de0612233565b611cdf612415565b600080611e17868660d6604051602001611e03929190612aa7565b60405160208183030381529060405261132c565b90506000611e25878661132c565b9050808214611e465760405162461bcd60e51b815260040161082790612e59565b6000611e51826124a1565b9050886001600160a01b0316611e6782876124d1565b6001600160a01b0316149998505050505050505050565b600081815260cb6020526040902054611e9e90600163ffffffff611c2716565b600091825260cb602052604090912055565b6040805160028082526060808301845292602083019080368337505060d454604080516315ab88c960e31b815290519394506001600160a01b039091169263ad5c464892506004808301926020929190829003018186803b158015611f1457600080fd5b505afa158015611f28573d6000803e3d6000fd5b505050506040513d601f19601f82011682018060405250810190611f4c91906126f5565b81600081518110611f5957fe5b60200260200101906001600160a01b031690816001600160a01b0316815250508381600181518110611f8757fe5b6001600160a01b03928316602091820292909201015260d45460405163b6f9de9560e01b815291169063b6f9de95908490611fd19060009086908990610168420190600401612c9f565b6000604051808303818588803b158015611fea57600080fd5b505af1158015611ffe573d6000803e3d6000fd5b505050505050505050565b6040805160028082526060808301845292602083019080368337505060d454604080516315ab88c960e31b815290519394506001600160a01b039091169263ad5c464892506004808301926020929190829003018186803b15801561206d57600080fd5b505afa158015612081573d6000803e3d6000fd5b505050506040513d601f19601f820116820180604052508101906120a591906126f5565b816000815181106120b257fe5b60200260200101906001600160a01b031690816001600160a01b03168152505083816001815181106120e057fe5b6001600160a01b03928316602091820292909201015260d45460405163d06ca61f60e01b8152600092919091169063d06ca61f90612124908690869060040161316d565b60006040518083038186803b15801561213c57600080fd5b505afa158015612150573d6000803e3d6000fd5b505050506040513d6000823e601f3d908101601f191682016040526121789190810190612797565b60018151811061218457fe5b602090810291909101015160d45460405163f305d71960e01b81529192506001600160a01b03169063f305d7199085906121d1908990869060009081908c90610168420190600401612ba2565b6060604051808303818588803b1580156121ea57600080fd5b505af11580156121fe573d6000803e3d6000fd5b50505050506040513d601f19601f8201168201806040525081019061222391906129b8565b5050505050505050565b3b151590565b600054610100900460ff168061224c575061224c611c50565b8061225a575060005460ff16155b6122765760405162461bcd60e51b815260040161082790612f08565b600054610100900460ff16158015611cdf576000805460ff1961ff0019909116610100171660011790558015611cf1576000805461ff001916905550565b600054610100900460ff16806122cd57506122cd611c50565b806122db575060005460ff16155b6122f75760405162461bcd60e51b815260040161082790612f08565b600054610100900460ff16158015612322576000805460ff1961ff0019909116610100171660011790555b600061232c611c4c565b603380546001600160a01b0319166001600160a01b038316908117909155604051919250906000907f8be0079c531659141344cd1fd0a4f28419497f9722a3daafe3b4186f6b6457e0908290a3508015611cf1576000805461ff001916905550565b600054610100900460ff16806123a757506123a7611c50565b806123b5575060005460ff16155b6123d15760405162461bcd60e51b815260040161082790612f08565b600054610100900460ff161580156123fc576000805460ff1961ff0019909116610100171660011790555b60016065558015611cf1576000805461ff001916905550565b600054610100900460ff168061242e575061242e611c50565b8061243c575060005460ff16155b6124585760405162461bcd60e51b815260040161082790612f08565b600054610100900460ff16158015612483576000805460ff1961ff0019909116610100171660011790555b6097805460ff191690558015611cf1576000805461ff001916905550565b6000816040516020016124b49190612b2a565b604051602081830303815290604052805190602001209050919050565b6000806000806124e085612540565b925092509250600186828585604051600081526020016040526040516125099493929190612c81565b6020604051602081039080840390855afa15801561252b573d6000803e3d6000fd5b5050604051601f190151979650505050505050565b600080600083516041146125665760405162461bcd60e51b815260040161082790613096565b50505060208101516040820151606090920151909260009190911a90565b828054600181600116156101000203166002900490600052602060002090601f016020900481019282601f106125c557805160ff19168380011785556125f2565b828001600101855582156125f2579182015b828111156125f25782518255916020019190600101906125d7565b506125fe929150612656565b5090565b60405180606001604052806000815260200160008152602001600081525090565b60405180608001604052806000815260200160006001600160a01b03168152602001600081526020016000151581525090565b610e5891905b808211156125fe576000815560010161265c565b600082601f830112612680578081fd5b813567ffffffffffffffff811115612696578182fd5b6126a9601f8201601f19166020016131a5565b91508082528360208285010111156126c057600080fd5b8060208401602084013760009082016020015292915050565b6000602082840312156126ea578081fd5b81356107e78161321c565b600060208284031215612706578081fd5b81516107e78161321c565b60008060408385031215612723578081fd5b823561272e8161321c565b9150602083013561273e8161321c565b809150509250929050565b6000806040838503121561275b578182fd5b82356127668161321c565b9150602083013567ffffffffffffffff811115612781578182fd5b61278d85828601612670565b9150509250929050565b600060208083850312156127a9578182fd5b825167ffffffffffffffff8111156127bf578283fd5b80840185601f8201126127d0578384fd5b805191506127e56127e0836131cc565b6131a5565b8281528381019082850185850284018601891015612801578687fd5b8693505b84841015612823578051835260019390930192918501918501612805565b50979650505050505050565b600060208284031215612840578081fd5b815180151581146107e7578182fd5b600060208284031215612860578081fd5b813567ffffffffffffffff811115612876578182fd5b61288284828501612670565b949350505050565b60006020828403121561289b578081fd5b5035919050565b6000602082840312156128b3578081fd5b5051919050565b600080604083850312156128cc578182fd5b82359150602083013561273e8161321c565b600080600080608085870312156128f3578182fd5b84359350602085013567ffffffffffffffff80821115612911578384fd5b61291d88838901612670565b94506040870135915080821115612932578384fd5b61293e88838901612670565b93506060870135915080821115612953578283fd5b5061296087828801612670565b91505092959194509250565b6000806040838503121561297e578182fd5b50508035926020909101359150565b6000806000606084860312156129a1578283fd5b505081359360208301359350604090920135919050565b6000806000606084860312156129cc578283fd5b8351925060208401519150604084015190509250925092565b6000815180845260208085019450808401835b83811015612a1d5781516001600160a01b0316875295820195908201906001016129f8565b509495945050505050565b805182526020808201516001600160a01b031690830152604080820151908301526060908101511515910152565b8051825260208082015190830152604090810151910152565b60006bffffffffffffffffffffffff198460601b1682528251612a998160148501602087016131ec565b919091016014019392505050565b600083516020612aba82858389016131ec565b8454839285019060018082168015612ad95760018114612af057612b1c565b60ff198316845260028304607f1684019550612b1c565b60028304898852858820885b82811015612b1557815487820152908401908701612afc565b5050840195505b509398975050505050505050565b7f19457468657265756d205369676e6564204d6573736167653a0a3332000000008152601c810191909152603c0190565b6001600160a01b0391909116815260200190565b6001600160a01b0392831681529116602082015260400190565b6001600160a01b03929092168252602082015260400190565b6001600160a01b039687168152602081019590955260408501939093526060840191909152909216608082015260a081019190915260c00190565b6020808252825182820181905260009190848201906040850190845b81811015612c1f57612c0c838551612a28565b9284019260809290920191600101612bf9565b50909695505050505050565b6020808252825182820181905260009190848201906040850190845b81811015612c1f57612c5a838551612a56565b9284019260609290920191600101612c47565b901515815260200190565b90815260200190565b93845260ff9290921660208401526040830152606082015260800190565b600085825260806020830152612cb860808301866129e5565b6001600160a01b03949094166040830152506060015292915050565b6020808252600f908201526e43616e6e6f7420776974686472617760881b604082015260600190565b6020808252600b908201526a139bdd081cdd185c9d195960aa1b604082015260600190565b60208082526026908201527f4f776e61626c653a206e6577206f776e657220697320746865207a65726f206160408201526564647265737360d01b606082015260800190565b6020808252601b908201527f536166654d6174683a206164646974696f6e206f766572666c6f770000000000604082015260600190565b6020808252600b908201526a14d85b19481a5cc8195b9960aa1b604082015260600190565b6020808252600d908201526c4f6e6c7920627579206f6e636560981b604082015260600190565b6020808252601e908201527f536166654d6174683a207375627472616374696f6e206f766572666c6f770000604082015260600190565b6020808252601a908201527f536166654d6174683a206469766973696f6e206279207a65726f000000000000604082015260600190565b602080825260169082015275139bdd081cda59db9959081dda5d1a081cd958dc995d60521b604082015260600190565b60208082526010908201526f14185d5cd8589b194e881c185d5cd95960821b604082015260600190565b60208082526035908201527f4f6e6c79206465706f73697420424e4220736d616c6c6572207468616e20424160408201527414d157d3505617d0955657d4115497d5d053131155605a1b606082015260800190565b6020808252602e908201527f496e697469616c697a61626c653a20636f6e747261637420697320616c72656160408201526d191e481a5b9a5d1a585b1a5e995960921b606082015260800190565b602080825260149082015273115c9c9bdc8e8810d85b9b9bdd081c99599d5b9960621b604082015260600190565b6020808252601d908201527f4e6f7420656e6f75676820746f6b656e20746f20776964746864726177000000604082015260600190565b60208082526021908201527f536166654d6174683a206d756c7469706c69636174696f6e206f766572666c6f6040820152607760f81b606082015260800190565b6020808252818101527f4465706f73697420424e422067726561746572207468616e204d494e5f425559604082015260600190565b6020808252601690820152754572726f723a2043616e6e6f7420776974686472617760501b604082015260600190565b6020808252818101527f4f776e61626c653a2063616c6c6572206973206e6f7420746865206f776e6572604082015260600190565b60208082526018908201527f696e76616c6964207369676e6174757265206c656e6774680000000000000000604082015260600190565b6020808252600c908201526b149bdd5b99081a5cc8195b9960a21b604082015260600190565b6020808252600d908201526c151e081b9bdd081cda59db9959609a1b604082015260600190565b6020808252601f908201527f5265656e7472616e637947756172643a207265656e7472616e742063616c6c00604082015260600190565b608081016107ea8284612a28565b606081016107ea8284612a56565b60008382526040602083015261288260408301846129e5565b92835260208301919091526001600160a01b0316604082015260600190565b60405181810167ffffffffffffffff811182821017156131c457600080fd5b604052919050565b600067ffffffffffffffff8211156131e2578081fd5b5060209081020190565b60005b838110156132075781810151838201526020016131ef565b83811115613216576000848401525b50505050565b6001600160a01b0381168114611cf157600080fdfea2646970667358221220968b353e47f06804a99592eb3c016a00d06b3dbf6ea20c4a31269c91820b213664736f6c63430006080033",
  "immutableReferences": {},
  "source": "pragma solidity >=0.6.8;\npragma experimental ABIEncoderV2;\n\nimport \"@openzeppelin/contracts-upgradeable/access/OwnableUpgradeable.sol\";\nimport \"@openzeppelin/contracts-upgradeable/utils/ReentrancyGuardUpgradeable.sol\";\nimport \"@openzeppelin/contracts-upgradeable/utils/PausableUpgradeable.sol\";\nimport \"@openzeppelin/contracts-upgradeable/proxy/Initializable.sol\";\nimport \"@openzeppelin/contracts/token/ERC20/IERC20.sol\";\n\nimport \"./lib/BepLib.sol\";\nimport \"@openzeppelin/contracts/math/SafeMath.sol\";\n\ncontract TokenDistribution is\n    Initializable,\n    OwnableUpgradeable,\n    ReentrancyGuardUpgradeable,\n    PausableUpgradeable\n{\n    using SafeMath for uint256;\n\n    struct Round {\n        uint256 round;\n        uint256 totalDeposit;\n        uint256 totalWithdraw;\n    }\n\n    struct Order {\n        uint256 id;\n        address account;\n        uint256 depositValue;\n        bool claimed;\n    }\n\n    /* ========== VARIABLES ========== */\n\n    uint256 public constant MIN_ROUND = 1;\n    uint256 public constant MAX_ROUND = 96;\n    uint256 public constant MIN_BUY = 2 * 10**16; // 0.02 BNB\n    uint256 public constant BASE_MAX_BUY_PER_WALLET = 10**17; // 0.1 BNB\n    uint256 public constant AMOUNT_TOKEN_SALE_PER_ROUND = 214816 ether; // 214816 token\n\n    mapping(uint256 => mapping(address => Order)) private depositTable;\n    mapping(uint256 => Round) private rounds;\n    mapping(uint256 => uint256) private lastOrderIds;\n    mapping(uint256 => mapping(uint256 => address)) indexes;\n\n    uint256 public saleStartTime;\n    uint256 bonusRate;\n    uint256 private firstRoundPrice;\n    uint256 private lastRoundPrice;\n\n    uint256 private lastAddLiquidity;\n    uint256 private liquidityThreshold;\n\n    IERC20 public token;\n    IPancakeRouter02 public pancakeRouter;\n\n    uint256 public roundTime;\n    string private message;\n\n    IPancakeRouter02 public pancakeRouter1;\n    IPancakeRouter02 public pancakeRouter2;\n\n    /* ========== MODIFIERS ========== */\n\n    modifier onlyNonContract() {\n        require(tx.origin == msg.sender);\n        _;\n    }\n\n    /* ========== EVENTS ========== */\n\n    event Deposit(uint256 round, uint256 amount, address account);\n    event Withdraw(uint256 round, uint256 amount, address account);\n\n    /* ========== INITIALIZER ========== */\n\n    function initialize(address _pancakeRouter, address _token)\n        public\n        initializer\n    {\n        OwnableUpgradeable.__Ownable_init();\n        ReentrancyGuardUpgradeable.__ReentrancyGuard_init();\n        __Pausable_init();\n\n        saleStartTime = block.timestamp;\n        firstRoundPrice = 7 * 10**12; // 0.000007 BNB\n        lastRoundPrice = 575 * 10**12; // 0.000575 BNB\n        lastAddLiquidity = block.timestamp;\n        liquidityThreshold = 15 minutes;\n        pancakeRouter = IPancakeRouter02(_pancakeRouter);\n        token = IERC20(_token);\n        bonusRate = 10;\n        roundTime = 8 hours;\n        message = \"DEFAULT_MSG\";\n    }\n\n    function setPancakeRouters(address _pancakeRouter1, address _pancakeRouter2)\n        public\n        onlyOwner\n    {\n        pancakeRouter1 = IPancakeRouter02(_pancakeRouter1);\n        pancakeRouter2 = IPancakeRouter02(_pancakeRouter2);\n    }\n\n    /* ========== VIEWS ========== */\n\n    function currentRound() public view returns (uint256) {\n        require(block.timestamp > saleStartTime, \"Not started\");\n        return\n            (block.timestamp.sub(saleStartTime)).div(roundTime).mul(100).div(\n                100\n            );\n    }\n\n    function endRoundTime(uint256 round) public view returns (uint256) {\n        return saleStartTime.add(round.mul(roundTime));\n    }\n\n    function withdrawTimeLeft(uint256 round) public view returns (uint256) {\n        uint256 withdrawTime = saleStartTime.add(round.mul(roundTime));\n        if (block.timestamp > withdrawTime) {\n            return 0;\n        }\n        return withdrawTime - block.timestamp;\n    }\n\n    function canWithdraw(uint256 round, address account)\n        public\n        view\n        returns (bool)\n    {\n        return\n            withdrawTimeLeft(round) == 0 &&\n            !depositTable[round][account].claimed &&\n            depositTable[round][account].depositValue > 0;\n    }\n\n    function getTokenAmountLeftInRound(uint256 round)\n        public\n        view\n        returns (uint256)\n    {\n        return AMOUNT_TOKEN_SALE_PER_ROUND.sub(rounds[round].totalWithdraw);\n    }\n\n    function canDeposit(uint256 round) public view returns (bool) {\n        // Max vol BNB and default round time are reached\n        if (\n            rounds[round].totalDeposit > maxVolumeInRound(round) &&\n            block.timestamp > endRoundTime(round)\n        ) {\n            return false;\n        }\n        return true;\n    }\n\n    function getOrderByRound(\n        uint256 round,\n        uint256 cursor,\n        uint256 size\n    ) public view returns (Order[] memory) {\n        uint256 length = size;\n        if (lastOrderIds[round] == 0) {\n            return new Order[](0);\n        }\n        if (length > lastOrderIds[round] - cursor) {\n            length = lastOrderIds[round] - cursor + 1; // First element is empty\n        }\n        Order[] memory values = new Order[](length);\n        for (uint256 i = 0; i < length; i++) {\n            address addressByIndex = indexes[round][cursor + i];\n            values[i] = depositTable[round][addressByIndex];\n        }\n        return values;\n    }\n\n    function getLastedOrderIdByRound(uint256 round)\n        public\n        view\n        returns (uint256)\n    {\n        return lastOrderIds[round];\n    }\n\n    function getAddressIndexes(uint256 round, uint256 index)\n        public\n        view\n        returns (address)\n    {\n        return indexes[round][index];\n    }\n\n    function getOrderDetail(uint256 round, address account)\n        public\n        view\n        returns (Order memory)\n    {\n        return depositTable[round][account];\n    }\n\n    function getRound(uint256 round) public view returns (Round memory) {\n        return rounds[round];\n    }\n\n    function getMaxDepositByRound(uint256 round) public pure returns (uint256) {\n        return BASE_MAX_BUY_PER_WALLET * round;\n    }\n\n    function getRounds(uint256 size, uint256 cursor)\n        public\n        view\n        returns (Round[] memory)\n    {\n        uint256 length = size;\n        if (length > MAX_ROUND - cursor) {\n            length = MAX_ROUND - cursor;\n        }\n\n        Round[] memory values = new Round[](length);\n        for (uint256 i = 0; i < length; i++) {\n            values[i] = rounds[i + cursor];\n            values[i].round = i + cursor;\n        }\n        return values;\n    }\n\n    function getClaimAt(uint256 round) public view returns (uint256) {\n        return saleStartTime.add(round.mul(roundTime));\n    }\n\n    function getBuyableBnb(uint256 round) public view returns (uint256) {\n        return rounds[round].totalDeposit.div(lastOrderIds[round]);\n    }\n\n    /* ========== MUTATIVES FUNCTIONS ========== */\n\n    function deposit(\n        uint256 round,\n        bytes memory _signature,\n        string memory _message,\n        string memory _messageWS\n    ) public payable onlyNonContract whenNotPaused {\n        require(\n            verify(msg.sender, address(this), _message, _messageWS, _signature),\n            \"Tx not signed\"\n        );\n        require(round >= MIN_ROUND && round <= MAX_ROUND, \"Sale is end\");\n        require(canDeposit(round), \"Round is end\");\n        require(\n            depositTable[round][msg.sender].depositValue == 0,\n            \"Only buy once\"\n        );\n        require(msg.value >= MIN_BUY, \"Deposit BNB greater than MIN_BUY\");\n        require(\n            msg.value <= BASE_MAX_BUY_PER_WALLET * round,\n            \"Only deposit BNB smaller than BASE_MAX_BUY_PER_WALLET\"\n        );\n        // Increase order id\n        increaseLastOrderIdByRound(round);\n\n        uint256 amount = msg.value;\n        Order storage order = depositTable[round][msg.sender];\n        order.id = lastOrderIds[round];\n        order.depositValue = amount;\n        order.account = msg.sender;\n\n        // Set lasted index\n        indexes[round][lastOrderIds[round]] = msg.sender;\n\n        Round storage roundInfo = rounds[round];\n        roundInfo.totalDeposit = roundInfo.totalDeposit.add(msg.value);\n\n        emit Deposit(round, msg.value, msg.sender);\n    }\n\n    function withdraw(uint256 round)\n        public\n        onlyNonContract\n        whenNotPaused\n        nonReentrant\n    {\n        require(canWithdraw(round, msg.sender), \"Cannot withdraw\");\n\n        Order storage order = depositTable[round][msg.sender];\n\n        // set here to avoid Reentrant\n        order.claimed = true;\n\n        uint256 withdrawTokenAmount = 0;\n        uint256 buyableBnb = getBuyableBnb(round);\n\n        uint256 depositValue = depositTable[round][msg.sender].depositValue;\n\n        // calculate depositValue in case depositValue > buyableBnb and totalDeposit > maxVolumeInRound\n        if (rounds[round].totalDeposit > maxVolumeInRound(round)) {\n            if (depositValue > buyableBnb) {\n                uint256 refundAmount = depositValue.sub(buyableBnb);\n                refund(msg.sender, refundAmount);\n                depositValue = buyableBnb;\n            }\n        }\n\n        withdrawTokenAmount = calculateExactTokenAmount(round, depositValue);\n\n        require(\n            getTokenAmountLeftInRound(round) >= withdrawTokenAmount,\n            \"Not enough token to widthdraw\"\n        );\n\n        addLiquidity(depositValue);\n\n        Round storage roundInfo = rounds[round];\n        roundInfo.totalWithdraw = roundInfo.totalWithdraw.add(\n            withdrawTokenAmount\n        );\n\n        token.transfer(msg.sender, withdrawTokenAmount);\n\n        emit Withdraw(round, withdrawTokenAmount, msg.sender);\n    }\n\n    function refund(address account, uint256 amount) private {\n        if (amount > 0) {\n            (bool sent, ) = (account).call{value: amount}(\"\");\n            require(sent, \"Error: Cannot refund\");\n        }\n    }\n\n    function increaseLastOrderIdByRound(uint256 round) internal {\n        lastOrderIds[round] = lastOrderIds[round].add(1);\n    }\n\n    function setSaleStartTime(uint256 startTime) public onlyOwner {\n        require(startTime > block.timestamp);\n        saleStartTime = startTime;\n    }\n\n    function setFirstRoundPrice(uint256 price) public onlyOwner {\n        require(price > 0);\n        firstRoundPrice = price;\n    }\n\n    function setLastRoundPrice(uint256 price) public onlyOwner {\n        require(price > 0);\n        lastRoundPrice = price;\n    }\n\n    function setBonusRate(uint256 _bonusRate) public onlyOwner {\n        bonusRate = _bonusRate;\n    }\n\n    function setRoundTime(uint256 _time) public onlyOwner {\n        roundTime = _time;\n    }\n\n    function setMessage(string memory _message) public onlyOwner {\n        message = _message;\n    }\n\n    function emergencyWithdraw() public onlyOwner {\n        (bool sent, ) = (address(msg.sender)).call{\n            value: address(this).balance\n        }(\"\");\n        require(sent, \"Error: Cannot withdraw\");\n        token.transfer(owner(), token.balanceOf(address(this)));\n    }\n\n    /* ========== INTERNAL ========== */\n\n    function initialPriceInRound(uint256 round) public view returns (uint256) {\n        if (round == MIN_ROUND) {\n            return firstRoundPrice;\n        }\n        return\n            lastRoundPrice.sub(firstRoundPrice).div(MAX_ROUND.sub(MIN_ROUND)) +\n            initialPriceInRound(round - 1);\n    }\n\n    function maxVolumeInRound(uint256 round) public view returns (uint256) {\n        return\n            AMOUNT_TOKEN_SALE_PER_ROUND.mul(initialPriceInRound(round)).div(\n                10**18\n            );\n    }\n\n    function calculateExactTokenAmount(uint256 round, uint256 amountBnb)\n        public\n        view\n        returns (uint256)\n    {\n        return amountBnb.div(initialPriceInRound(round)).mul(10**18);\n    }\n\n    function addLiquidity(uint256 bnbAmount) internal {\n        // rotate pancakeswap router vs latte rounter\n        if (pancakeRouter1 == pancakeRouter) {\n            pancakeRouter = pancakeRouter2;\n        } else {\n            pancakeRouter = pancakeRouter1;\n        }\n\n        if (token.allowance(address(this), address(pancakeRouter)) == 0) {\n            token.approve(address(pancakeRouter), ~uint256(0));\n        }\n\n        uint256 swapAmount = bnbAmount.div(4);\n        uint256 addLiquidAmount = bnbAmount.sub(swapAmount);\n\n        // buy xBlade from market using bnbAmount/4;\n        swapBNBForToken(address(token), address(this), swapAmount);\n\n        // add liquid using 3/4 bnbAmount + xBlade\n        addLiquidityForTokens(address(token), address(this), addLiquidAmount);\n        // }\n    }\n\n    function random(uint256 from, uint256 to) private view returns (uint256) {\n        uint256 seed = uint256(\n            keccak256(\n                abi.encodePacked(\n                    block.timestamp +\n                        block.difficulty +\n                        ((\n                            uint256(keccak256(abi.encodePacked(block.coinbase)))\n                        ) / (block.timestamp)) +\n                        block.gaslimit +\n                        ((uint256(keccak256(abi.encodePacked(msg.sender)))) /\n                            (block.timestamp)) +\n                        block.number\n                )\n            )\n        );\n        return seed.mod(to - from) + from;\n    }\n\n    fallback() external payable {\n        // React to receiving ether, to avoid bug\n    }\n\n    receive() external payable {\n        // custom function code\n    }\n\n    /* ========== VERIFY SIGNATURE ========== */\n\n    function getMessageHash(address _to, string memory _message)\n        public\n        pure\n        returns (bytes32)\n    {\n        return keccak256(abi.encodePacked(_to, _message));\n    }\n\n    function getEthSignedMessageHash(bytes32 _messageHash)\n        private\n        pure\n        returns (bytes32)\n    {\n        /*\n        Signature is produced by signing a keccak256 hash with the following format:\n        \"\\x19Ethereum Signed Message\\n\" + len(msg) + msg\n        */\n        return\n            keccak256(\n                abi.encodePacked(\n                    \"\\x19Ethereum Signed Message:\\n32\",\n                    _messageHash\n                )\n            );\n    }\n\n    function verify(\n        address _signer,\n        address _to,\n        string memory _message,\n        string memory _messageWithSecret,\n        bytes memory signature\n    ) private view returns (bool) {\n        bytes32 messageHash = getMessageHash(\n            _to,\n            string(abi.encodePacked(_message, message))\n        );\n        bytes32 messageWSHash = getMessageHash(_to, _messageWithSecret);\n        require(messageHash == messageWSHash, \"Not signed with secret\");\n        bytes32 ethSignedMessageHash = getEthSignedMessageHash(messageWSHash);\n\n        return recoverSigner(ethSignedMessageHash, signature) == _signer;\n    }\n\n    function recoverSigner(\n        bytes32 _ethSignedMessageHash,\n        bytes memory _signature\n    ) private pure returns (address) {\n        (bytes32 r, bytes32 s, uint8 v) = splitSignature(_signature);\n\n        return ecrecover(_ethSignedMessageHash, v, r, s);\n    }\n\n    function splitSignature(bytes memory sig)\n        private\n        pure\n        returns (\n            bytes32 r,\n            bytes32 s,\n            uint8 v\n        )\n    {\n        require(sig.length == 65, \"invalid signature length\");\n\n        assembly {\n            /*\n            First 32 bytes stores the length of the signature\n\n            add(sig, 32) = pointer of sig + 32\n            effectively, skips first 32 bytes of signature\n\n            mload(p) loads next 32 bytes starting at the memory address p into memory\n            */\n\n            // first 32 bytes, after the length prefix\n            r := mload(add(sig, 32))\n            // second 32 bytes\n            s := mload(add(sig, 64))\n            // final byte (first byte of the next 32 bytes)\n            v := byte(0, mload(add(sig, 96)))\n        }\n\n        // implicitly return (r, s, v)\n    }\n\n    /* ========== LIBRARY ========== */\n\n    function swapTokensForEth(uint256 tokenAmount) private {\n        // IPancakeRouter02 pancakeRouter = IPancakeRouter02(routerAddress);\n\n        // generate the pancake pair path of token -> weth\n        address[] memory path = new address[](2);\n        path[0] = address(this);\n        path[1] = pancakeRouter.WETH();\n\n        // make the swap\n        pancakeRouter.swapExactTokensForETHSupportingFeeOnTransferTokens(\n            tokenAmount,\n            0, // accept any amount of BNB\n            path,\n            address(this),\n            block.timestamp\n        );\n    }\n\n    function swapBNBForToken(\n        // address routerAddress,\n        address tokenAddress,\n        address recipient,\n        uint256 bnbAmount\n    ) private {\n        // IPancakeRouter02 pancakeRouter = IPancakeRouter02(routerAddress);\n\n        // Generate the pancake pair path of token => WETH\n        address[] memory path = new address[](2);\n        path[0] = pancakeRouter.WETH();\n        // path[1] = address(0xd66c6B4F0be8CE5b39D52E0Fd1344c389929B378);\n        path[1] = tokenAddress;\n\n        // Swap\n        pancakeRouter.swapExactETHForTokensSupportingFeeOnTransferTokens{\n            value: bnbAmount\n        }(0, path, address(recipient), block.timestamp + 360);\n    }\n\n    function swapETHForTokens(\n        // address routerAddress,\n        address recipient,\n        uint256 ethAmount\n    ) private {\n        // IPancakeRouter02 pancakeRouter = IPancakeRouter02(routerAddress);\n\n        // generate the pancake pair path of token -> weth\n        address[] memory path = new address[](2);\n        path[0] = pancakeRouter.WETH();\n        path[1] = address(this);\n\n        // make the swap\n        pancakeRouter.swapExactETHForTokensSupportingFeeOnTransferTokens{\n            value: ethAmount\n        }(\n            0, // accept any amount of BNB\n            path,\n            address(recipient),\n            block.timestamp + 360\n        );\n    }\n\n    function addLiquidityForTokens(\n        address _tokenAddress,\n        address _to,\n        uint256 _bnbAmount\n    ) private {\n        // IPancakeRouter02 pancakeRouter = IPancakeRouter02(_routerAddress);\n        // generate the pancake pair path of token -> weth\n        address[] memory path = new address[](2);\n        path[0] = pancakeRouter.WETH();\n        path[1] = address(_tokenAddress);\n\n        uint256 size1 = pancakeRouter.getAmountsOut(_bnbAmount, path)[1];\n\n        pancakeRouter.addLiquidityETH{value: _bnbAmount}(\n            _tokenAddress,\n            size1,\n            0, // slippage is unavoidable\n            0, // slippage is unavoidable\n            _to,\n            block.timestamp + 360\n        );\n    }\n\n    function addLiquidity(\n        // address routerAddress,\n        address owner,\n        uint256 tokenAmount,\n        uint256 ethAmount\n    ) private {\n        // IPancakeRouter02 pancakeRouter = IPancakeRouter02(routerAddress);\n\n        // add the liquidity\n        pancakeRouter.addLiquidityETH{value: ethAmount}(\n            address(this),\n            tokenAmount,\n            0, // slippage is unavoidable\n            0, // slippage is unavoidable\n            owner,\n            block.timestamp + 360\n        );\n    }\n\n    function getReturnAmount(uint256 _amount, address _token)\n        private\n        view\n        returns (uint256)\n    {\n        // IPancakeRouter02 pancakeRouter = IPancakeRouter02(_routerAddress);\n        address[] memory path = new address[](2);\n        path[0] = pancakeRouter.WETH();\n        path[1] = address(_token);\n\n        return pancakeRouter.getAmountsOut(_amount, path)[1];\n    }\n}\n",
  "sourcePath": "/Users/tamnguyen/Documents/project/xbn/xblade-token-distribution/contracts/TokenDistribution.sol",
  "compiler": {
    "name": "solc",
    "version": "0.6.8+commit.0bbfe453.Emscripten.clang"
  },
  "schemaVersion": "3.3.2",
  "updatedAt": "2021-10-08T15:10:24.314Z",
  "networkType": "ethereum",
  "devdoc": {
    "methods": {
      "owner()": {
        "details": "Returns the address of the current owner."
      },
      "paused()": {
        "details": "Returns true if the contract is paused, and false otherwise."
      },
      "renounceOwnership()": {
        "details": "Leaves the contract without owner. It will not be possible to call `onlyOwner` functions anymore. Can only be called by the current owner.     * NOTE: Renouncing ownership will leave the contract without an owner, thereby removing any functionality that is only available to the owner."
      },
      "transferOwnership(address)": {
        "details": "Transfers ownership of the contract to a new account (`newOwner`). Can only be called by the current owner."
      }
    }
  },
  "userdoc": {
    "methods": {}
  }
}