{
  "contractName": "TokenDistribution",
  "abi": [
    {
      "anonymous": false,
      "inputs": [
        {
          "indexed": false,
          "internalType": "uint256",
          "name": "round",
          "type": "uint256"
        },
        {
          "indexed": false,
          "internalType": "uint256",
          "name": "amount",
          "type": "uint256"
        },
        {
          "indexed": false,
          "internalType": "address",
          "name": "account",
          "type": "address"
        }
      ],
      "name": "Deposit",
      "type": "event"
    },
    {
      "anonymous": false,
      "inputs": [
        {
          "indexed": true,
          "internalType": "address",
          "name": "previousOwner",
          "type": "address"
        },
        {
          "indexed": true,
          "internalType": "address",
          "name": "newOwner",
          "type": "address"
        }
      ],
      "name": "OwnershipTransferred",
      "type": "event"
    },
    {
      "anonymous": false,
      "inputs": [
        {
          "indexed": false,
          "internalType": "address",
          "name": "account",
          "type": "address"
        }
      ],
      "name": "Paused",
      "type": "event"
    },
    {
      "anonymous": false,
      "inputs": [
        {
          "indexed": false,
          "internalType": "address",
          "name": "account",
          "type": "address"
        }
      ],
      "name": "Unpaused",
      "type": "event"
    },
    {
      "anonymous": false,
      "inputs": [
        {
          "indexed": false,
          "internalType": "uint256",
          "name": "round",
          "type": "uint256"
        },
        {
          "indexed": false,
          "internalType": "uint256",
          "name": "amount",
          "type": "uint256"
        },
        {
          "indexed": false,
          "internalType": "address",
          "name": "account",
          "type": "address"
        }
      ],
      "name": "Withdraw",
      "type": "event"
    },
    {
      "stateMutability": "payable",
      "type": "fallback",
      "payable": true
    },
    {
      "inputs": [],
      "name": "AMOUNT_TOKEN_SALE_PER_ROUND",
      "outputs": [
        {
          "internalType": "uint256",
          "name": "",
          "type": "uint256"
        }
      ],
      "stateMutability": "view",
      "type": "function",
      "constant": true
    },
    {
      "inputs": [],
      "name": "BASE_MAX_BUY_PER_WALLET",
      "outputs": [
        {
          "internalType": "uint256",
          "name": "",
          "type": "uint256"
        }
      ],
      "stateMutability": "view",
      "type": "function",
      "constant": true
    },
    {
      "inputs": [],
      "name": "MAX_ROUND",
      "outputs": [
        {
          "internalType": "uint256",
          "name": "",
          "type": "uint256"
        }
      ],
      "stateMutability": "view",
      "type": "function",
      "constant": true
    },
    {
      "inputs": [],
      "name": "MIN_BUY",
      "outputs": [
        {
          "internalType": "uint256",
          "name": "",
          "type": "uint256"
        }
      ],
      "stateMutability": "view",
      "type": "function",
      "constant": true
    },
    {
      "inputs": [],
      "name": "MIN_ROUND",
      "outputs": [
        {
          "internalType": "uint256",
          "name": "",
          "type": "uint256"
        }
      ],
      "stateMutability": "view",
      "type": "function",
      "constant": true
    },
    {
      "inputs": [],
      "name": "ROUND_TIME",
      "outputs": [
        {
          "internalType": "uint256",
          "name": "",
          "type": "uint256"
        }
      ],
      "stateMutability": "view",
      "type": "function",
      "constant": true
    },
    {
      "inputs": [],
      "name": "owner",
      "outputs": [
        {
          "internalType": "address",
          "name": "",
          "type": "address"
        }
      ],
      "stateMutability": "view",
      "type": "function",
      "constant": true
    },
    {
      "inputs": [],
      "name": "pancakeRouter",
      "outputs": [
        {
          "internalType": "contract IPancakeRouter02",
          "name": "",
          "type": "address"
        }
      ],
      "stateMutability": "view",
      "type": "function",
      "constant": true
    },
    {
      "inputs": [],
      "name": "paused",
      "outputs": [
        {
          "internalType": "bool",
          "name": "",
          "type": "bool"
        }
      ],
      "stateMutability": "view",
      "type": "function",
      "constant": true
    },
    {
      "inputs": [],
      "name": "renounceOwnership",
      "outputs": [],
      "stateMutability": "nonpayable",
      "type": "function"
    },
    {
      "inputs": [],
      "name": "roundTime",
      "outputs": [
        {
          "internalType": "uint256",
          "name": "",
          "type": "uint256"
        }
      ],
      "stateMutability": "view",
      "type": "function",
      "constant": true
    },
    {
      "inputs": [],
      "name": "saleStartTime",
      "outputs": [
        {
          "internalType": "uint256",
          "name": "",
          "type": "uint256"
        }
      ],
      "stateMutability": "view",
      "type": "function",
      "constant": true
    },
    {
      "inputs": [],
      "name": "token",
      "outputs": [
        {
          "internalType": "contract IERC20",
          "name": "",
          "type": "address"
        }
      ],
      "stateMutability": "view",
      "type": "function",
      "constant": true
    },
    {
      "inputs": [
        {
          "internalType": "address",
          "name": "newOwner",
          "type": "address"
        }
      ],
      "name": "transferOwnership",
      "outputs": [],
      "stateMutability": "nonpayable",
      "type": "function"
    },
    {
      "stateMutability": "payable",
      "type": "receive",
      "payable": true
    },
    {
      "inputs": [
        {
          "internalType": "address",
          "name": "_pancakeRouter",
          "type": "address"
        },
        {
          "internalType": "address",
          "name": "_token",
          "type": "address"
        }
      ],
      "name": "initialize",
      "outputs": [],
      "stateMutability": "nonpayable",
      "type": "function"
    },
    {
      "inputs": [],
      "name": "currentRound",
      "outputs": [
        {
          "internalType": "uint256",
          "name": "",
          "type": "uint256"
        }
      ],
      "stateMutability": "view",
      "type": "function",
      "constant": true
    },
    {
      "inputs": [
        {
          "internalType": "uint256",
          "name": "round",
          "type": "uint256"
        }
      ],
      "name": "endRoundTime",
      "outputs": [
        {
          "internalType": "uint256",
          "name": "",
          "type": "uint256"
        }
      ],
      "stateMutability": "view",
      "type": "function",
      "constant": true
    },
    {
      "inputs": [
        {
          "internalType": "uint256",
          "name": "round",
          "type": "uint256"
        }
      ],
      "name": "withdrawTimeLeft",
      "outputs": [
        {
          "internalType": "uint256",
          "name": "",
          "type": "uint256"
        }
      ],
      "stateMutability": "view",
      "type": "function",
      "constant": true
    },
    {
      "inputs": [
        {
          "internalType": "uint256",
          "name": "round",
          "type": "uint256"
        },
        {
          "internalType": "address",
          "name": "account",
          "type": "address"
        }
      ],
      "name": "canWithdraw",
      "outputs": [
        {
          "internalType": "bool",
          "name": "",
          "type": "bool"
        }
      ],
      "stateMutability": "view",
      "type": "function",
      "constant": true
    },
    {
      "inputs": [
        {
          "internalType": "uint256",
          "name": "round",
          "type": "uint256"
        },
        {
          "internalType": "address",
          "name": "account",
          "type": "address"
        }
      ],
      "name": "calculateWithdrawableAmount",
      "outputs": [
        {
          "internalType": "uint256",
          "name": "",
          "type": "uint256"
        }
      ],
      "stateMutability": "view",
      "type": "function",
      "constant": true
    },
    {
      "inputs": [
        {
          "internalType": "uint256",
          "name": "round",
          "type": "uint256"
        }
      ],
      "name": "getTokenAmountLeftInRound",
      "outputs": [
        {
          "internalType": "uint256",
          "name": "",
          "type": "uint256"
        }
      ],
      "stateMutability": "view",
      "type": "function",
      "constant": true
    },
    {
      "inputs": [
        {
          "internalType": "uint256",
          "name": "round",
          "type": "uint256"
        }
      ],
      "name": "canDeposit",
      "outputs": [
        {
          "internalType": "bool",
          "name": "",
          "type": "bool"
        }
      ],
      "stateMutability": "view",
      "type": "function",
      "constant": true
    },
    {
      "inputs": [
        {
          "internalType": "uint256",
          "name": "round",
          "type": "uint256"
        },
        {
          "internalType": "uint256",
          "name": "cursor",
          "type": "uint256"
        },
        {
          "internalType": "uint256",
          "name": "size",
          "type": "uint256"
        }
      ],
      "name": "getOrderByRound",
      "outputs": [
        {
          "components": [
            {
              "internalType": "uint256",
              "name": "id",
              "type": "uint256"
            },
            {
              "internalType": "address",
              "name": "account",
              "type": "address"
            },
            {
              "internalType": "uint256",
              "name": "depositValue",
              "type": "uint256"
            },
            {
              "internalType": "bool",
              "name": "claimed",
              "type": "bool"
            }
          ],
          "internalType": "struct TokenDistribution.Order[]",
          "name": "",
          "type": "tuple[]"
        }
      ],
      "stateMutability": "view",
      "type": "function",
      "constant": true
    },
    {
      "inputs": [
        {
          "internalType": "uint256",
          "name": "round",
          "type": "uint256"
        }
      ],
      "name": "getLastedOrderIdByRound",
      "outputs": [
        {
          "internalType": "uint256",
          "name": "",
          "type": "uint256"
        }
      ],
      "stateMutability": "view",
      "type": "function",
      "constant": true
    },
    {
      "inputs": [
        {
          "internalType": "uint256",
          "name": "round",
          "type": "uint256"
        },
        {
          "internalType": "uint256",
          "name": "index",
          "type": "uint256"
        }
      ],
      "name": "getAddressIndexes",
      "outputs": [
        {
          "internalType": "address",
          "name": "",
          "type": "address"
        }
      ],
      "stateMutability": "view",
      "type": "function",
      "constant": true
    },
    {
      "inputs": [
        {
          "internalType": "uint256",
          "name": "round",
          "type": "uint256"
        },
        {
          "internalType": "address",
          "name": "account",
          "type": "address"
        }
      ],
      "name": "getOrderDetail",
      "outputs": [
        {
          "components": [
            {
              "internalType": "uint256",
              "name": "id",
              "type": "uint256"
            },
            {
              "internalType": "address",
              "name": "account",
              "type": "address"
            },
            {
              "internalType": "uint256",
              "name": "depositValue",
              "type": "uint256"
            },
            {
              "internalType": "bool",
              "name": "claimed",
              "type": "bool"
            }
          ],
          "internalType": "struct TokenDistribution.Order",
          "name": "",
          "type": "tuple"
        }
      ],
      "stateMutability": "view",
      "type": "function",
      "constant": true
    },
    {
      "inputs": [
        {
          "internalType": "uint256",
          "name": "round",
          "type": "uint256"
        }
      ],
      "name": "getRound",
      "outputs": [
        {
          "components": [
            {
              "internalType": "uint256",
              "name": "round",
              "type": "uint256"
            },
            {
              "internalType": "uint256",
              "name": "totalDeposit",
              "type": "uint256"
            },
            {
              "internalType": "uint256",
              "name": "totalWithdraw",
              "type": "uint256"
            }
          ],
          "internalType": "struct TokenDistribution.Round",
          "name": "",
          "type": "tuple"
        }
      ],
      "stateMutability": "view",
      "type": "function",
      "constant": true
    },
    {
      "inputs": [
        {
          "internalType": "uint256",
          "name": "round",
          "type": "uint256"
        }
      ],
      "name": "getMaxDepositByRound",
      "outputs": [
        {
          "internalType": "uint256",
          "name": "",
          "type": "uint256"
        }
      ],
      "stateMutability": "pure",
      "type": "function",
      "constant": true
    },
    {
      "inputs": [
        {
          "internalType": "uint256",
          "name": "size",
          "type": "uint256"
        },
        {
          "internalType": "uint256",
          "name": "cursor",
          "type": "uint256"
        }
      ],
      "name": "getRounds",
      "outputs": [
        {
          "components": [
            {
              "internalType": "uint256",
              "name": "round",
              "type": "uint256"
            },
            {
              "internalType": "uint256",
              "name": "totalDeposit",
              "type": "uint256"
            },
            {
              "internalType": "uint256",
              "name": "totalWithdraw",
              "type": "uint256"
            }
          ],
          "internalType": "struct TokenDistribution.Round[]",
          "name": "",
          "type": "tuple[]"
        }
      ],
      "stateMutability": "view",
      "type": "function",
      "constant": true
    },
    {
      "inputs": [
        {
          "internalType": "uint256",
          "name": "round",
          "type": "uint256"
        },
        {
          "internalType": "bytes",
          "name": "_signature",
          "type": "bytes"
        }
      ],
      "name": "deposit",
      "outputs": [],
      "stateMutability": "payable",
      "type": "function",
      "payable": true
    },
    {
      "inputs": [
        {
          "internalType": "uint256",
          "name": "round",
          "type": "uint256"
        }
      ],
      "name": "withdraw",
      "outputs": [],
      "stateMutability": "nonpayable",
      "type": "function"
    },
    {
      "inputs": [
        {
          "internalType": "uint256",
          "name": "startTime",
          "type": "uint256"
        }
      ],
      "name": "setSaleStartTime",
      "outputs": [],
      "stateMutability": "nonpayable",
      "type": "function"
    },
    {
      "inputs": [
        {
          "internalType": "uint256",
          "name": "price",
          "type": "uint256"
        }
      ],
      "name": "setFirstRoundPrice",
      "outputs": [],
      "stateMutability": "nonpayable",
      "type": "function"
    },
    {
      "inputs": [
        {
          "internalType": "uint256",
          "name": "price",
          "type": "uint256"
        }
      ],
      "name": "setLastRoundPrice",
      "outputs": [],
      "stateMutability": "nonpayable",
      "type": "function"
    },
    {
      "inputs": [
        {
          "internalType": "uint256",
          "name": "_bonusRate",
          "type": "uint256"
        }
      ],
      "name": "setBonusRate",
      "outputs": [],
      "stateMutability": "nonpayable",
      "type": "function"
    },
    {
      "inputs": [
        {
          "internalType": "uint256",
          "name": "_time",
          "type": "uint256"
        }
      ],
      "name": "setRoundTime",
      "outputs": [],
      "stateMutability": "nonpayable",
      "type": "function"
    },
    {
      "inputs": [
        {
          "internalType": "string",
          "name": "_message",
          "type": "string"
        }
      ],
      "name": "setMessage",
      "outputs": [],
      "stateMutability": "nonpayable",
      "type": "function"
    },
    {
      "inputs": [
        {
          "internalType": "address",
          "name": "_token",
          "type": "address"
        },
        {
          "internalType": "address",
          "name": "ref",
          "type": "address"
        }
      ],
      "name": "distributeTokens",
      "outputs": [],
      "stateMutability": "payable",
      "type": "function",
      "payable": true
    },
    {
      "inputs": [],
      "name": "emergencyWithdraw",
      "outputs": [],
      "stateMutability": "nonpayable",
      "type": "function"
    },
    {
      "inputs": [
        {
          "internalType": "uint256",
          "name": "round",
          "type": "uint256"
        }
      ],
      "name": "initialPriceInRound",
      "outputs": [
        {
          "internalType": "uint256",
          "name": "",
          "type": "uint256"
        }
      ],
      "stateMutability": "view",
      "type": "function",
      "constant": true
    },
    {
      "inputs": [
        {
          "internalType": "uint256",
          "name": "round",
          "type": "uint256"
        }
      ],
      "name": "maxVolumeInRound",
      "outputs": [
        {
          "internalType": "uint256",
          "name": "",
          "type": "uint256"
        }
      ],
      "stateMutability": "view",
      "type": "function",
      "constant": true
    },
    {
      "inputs": [
        {
          "internalType": "uint256",
          "name": "round",
          "type": "uint256"
        },
        {
          "internalType": "address",
          "name": "account",
          "type": "address"
        }
      ],
      "name": "calculateExactTokenAmount",
      "outputs": [
        {
          "internalType": "uint256",
          "name": "",
          "type": "uint256"
        }
      ],
      "stateMutability": "view",
      "type": "function",
      "constant": true
    },
    {
      "inputs": [
        {
          "internalType": "uint256",
          "name": "round",
          "type": "uint256"
        },
        {
          "internalType": "address",
          "name": "account",
          "type": "address"
        }
      ],
      "name": "calculateTokenAmountBaseOnDepositPercent",
      "outputs": [
        {
          "internalType": "uint256",
          "name": "",
          "type": "uint256"
        }
      ],
      "stateMutability": "view",
      "type": "function",
      "constant": true
    },
    {
      "inputs": [
        {
          "internalType": "address",
          "name": "_to",
          "type": "address"
        },
        {
          "internalType": "string",
          "name": "_message",
          "type": "string"
        }
      ],
      "name": "getMessageHash",
      "outputs": [
        {
          "internalType": "bytes32",
          "name": "",
          "type": "bytes32"
        }
      ],
      "stateMutability": "pure",
      "type": "function",
      "constant": true
    }
  ],
  "bytecode": "0x608060405234801561001057600080fd5b50612f7b806100206000396000f3fe60806040526004361061026b5760003560e01c80638a19c8bc11610144578063c6f79f56116100b6578063ea0265f11161007a578063ea0265f1146106e2578063ee5f8c8f14610702578063ef0990fe14610717578063f2fde38b14610744578063fa65cb0414610764578063fc0c546a1461078457610272565b8063c6f79f5614610658578063db2e21bc14610678578063ddceefaf1461068d578063e4fcf329146106ad578063e9eba6f3146106cd57610272565b806391be0c031161010857806391be0c03146105ae578063a83f4ce5146105ce578063a9394a86146105ee578063b4ac62c51461060e578063bd24115114610623578063c21ebd071461064357610272565b80638a19c8bc1461050a5780638d59e4f01461051f5780638da5cb5b1461053f5780638de73afb146105615780638f1327c01461058157610272565b806343efd975116101dd57806366b2cab7116101a157806366b2cab714610460578063715018a61461048057806374b5a9f5146104955780637892fd29146104b5578063849bcad1146104ca57806389419ccc146104ea57610272565b806343efd975146103cb578063485cc955146103f8578063525f8a5c146104185780635c975abb146104385780635d3035191461044d57610272565b8063368b87721161022f578063368b87721461030757806339443b8e146103275780633af96b90146103545780633c37d53d146103695780633ea01b5d1461037e57806340f74f471461039e57610272565b806311241bd4146102745780631cb9ca071461029f5780631cbaee2d146102b25780631e176c56146102c75780632e1a7d4d146102e757610272565b3661027257005b005b34801561028057600080fd5b50610289610799565b6040516102969190612995565b60405180910390f35b6102726102ad3660046126fa565b6107a7565b3480156102be57600080fd5b50610289610b96565b3480156102d357600080fd5b506102896102e236600461280a565b610b9c565b3480156102f357600080fd5b506102726103023660046127da565b610be2565b34801561031357600080fd5b506102726103223660046127a7565b610d8a565b34801561033357600080fd5b506103476103423660046127da565b610de0565b6040516102969190612ac2565b34801561036057600080fd5b50610289610e27565b34801561037557600080fd5b50610289610e32565b34801561038a57600080fd5b5061034761039936600461280a565b610e3e565b3480156103aa57600080fd5b506103be6103b936600461285c565b610e81565b6040516102969190612a80565b3480156103d757600080fd5b506103eb6103e636600461280a565b610f77565b6040516102969190612f0a565b34801561040457600080fd5b506102726104133660046126fa565b610fdd565b34801561042457600080fd5b506102726104333660046127da565b61110c565b34801561044457600080fd5b5061034761115c565b61027261045b36600461282d565b611166565b34801561046c57600080fd5b5061028961047b36600461280a565b611403565b34801561048c57600080fd5b5061027261144f565b3480156104a157600080fd5b506102726104b03660046127da565b6114d8565b3480156104c157600080fd5b50610289611529565b3480156104d657600080fd5b506102896104e53660046127da565b61152f565b3480156104f657600080fd5b506102896105053660046127da565b611560565b34801561051657600080fd5b50610289611572565b34801561052b57600080fd5b5061028961053a3660046127da565b6115bf565b34801561054b57600080fd5b506105546115cc565b604051610296919061299e565b34801561056d57600080fd5b5061027261057c3660046127da565b6115db565b34801561058d57600080fd5b506105a161059c3660046127da565b61162c565b6040516102969190612f18565b3480156105ba57600080fd5b506102896105c936600461272e565b61166d565b3480156105da57600080fd5b506102896105e93660046127da565b6116a0565b3480156105fa57600080fd5b506102896106093660046127da565b6116e7565b34801561061a57600080fd5b50610289611701565b34801561062f57600080fd5b5061055461063e36600461285c565b611706565b34801561064f57600080fd5b5061055461172c565b34801561066457600080fd5b5061028961067336600461280a565b61173b565b34801561068457600080fd5b506102726117a9565b34801561069957600080fd5b506102896106a83660046127da565b61196c565b3480156106b957600080fd5b506102726106c83660046127da565b611999565b3480156106d957600080fd5b506102896119dd565b3480156106ee57600080fd5b506102896106fd3660046127da565b6119e2565b34801561070e57600080fd5b50610289611a33565b34801561072357600080fd5b5061073761073236600461287d565b611a39565b6040516102969190612a32565b34801561075057600080fd5b5061027261075f3660046126df565b611b6d565b34801561077057600080fd5b5061027261077f3660046127da565b611c2e565b34801561079057600080fd5b50610554611c72565b692d7d32dda00da880000081565b6107b5565b60405180910390fd5b6040516370a0823160e01b815282906000906001600160a01b038316906370a08231906107e690309060040161299e565b60206040518083038186803b1580156107fe57600080fd5b505afa158015610812573d6000803e3d6000fd5b505050506040513d601f19601f8201168201806040525081019061083691906127f2565b60d45460405163ce39524560e01b815291925060009173__Utils_________________________________9163ce39524591610882916001600160a01b03169034908a90600401612a0f565b60206040518083038186803b15801561089a57600080fd5b505af41580156108ae573d6000803e3d6000fd5b505050506040513d601f19601f820116820180604052508101906108d291906127f2565b90506802b5e3af16b1880000808211156108ea578091505b60006108f860016005611c81565b9050600061092460646109188460ce540187611d3990919063ffffffff16565b9063ffffffff611d7316565b9050600061093d6064610918878663ffffffff611d3916565b905080828601018610610a635760405163a9059cbb60e01b81526001600160a01b0388169063a9059cbb9061097a903390898701906004016129cc565b602060405180830381600087803b15801561099457600080fd5b505af11580156109a8573d6000803e3d6000fd5b505050506040513d601f19601f820116820180604052508101906109cc9190612787565b506001600160a01b03881615610a5e5760405163a9059cbb60e01b81526001600160a01b0388169063a9059cbb90610a0a908b9085906004016129cc565b602060405180830381600087803b158015610a2457600080fd5b505af1158015610a38573d6000803e3d6000fd5b505050506040513d601f19601f82011682018060405250810190610a5c9190612787565b505b610b8b565b60405163a9059cbb60e01b81526001600160a01b0388169063a9059cbb90610a919033908a906004016129cc565b602060405180830381600087803b158015610aab57600080fd5b505af1158015610abf573d6000803e3d6000fd5b505050506040513d601f19601f82011682018060405250810190610ae39190612787565b506000610b086002610afc47600363ffffffff611d7316565b9063ffffffff611d3916565b60d45460d354604051630c7855ff60e31b815292935073__Utils_________________________________926363c2aff892610b59926001600160a01b0391821692911690309087906004016129e5565b60006040518083038186803b158015610b7157600080fd5b505af4158015610b85573d6000803e3d6000fd5b50505050505b505050505050505050565b60cd5481565b6000610ba78361152f565b600084815260ca602052604090206001015411610bcf57610bc88383611403565b9050610bdc565b610bd9838361173b565b90505b92915050565b323314610bee57600080fd5b610bf661115c565b15610c135760405162461bcd60e51b81526004016107ac90612c70565b610c1d8133610e3e565b610c395760405162461bcd60e51b81526004016107ac90612aeb565b6000610c458233610b9c565b905080610c518361196c565b1015610c6f5760405162461bcd60e51b81526004016107ac90612d74565b610c77611da5565b600082815260c960209081526040808320338452825280832060038101805460ff1916600117905585845260ca9092529091206002810154610cbf908463ffffffff611f7516565b600282015560d35460405163a9059cbb60e01b81526001600160a01b039091169063a9059cbb90610cf690339087906004016129cc565b602060405180830381600087803b158015610d1057600080fd5b505af1158015610d24573d6000803e3d6000fd5b505050506040513d601f19601f82011682018060405250810190610d489190612787565b507f71ef96c43343734b1d843bb85d52ef329f5e9143e4d35827771e3b0dd90c5f84848433604051610d7c93929190612f26565b60405180910390a150505050565b610d92611f9a565b6001600160a01b0316610da36115cc565b6001600160a01b031614610dc95760405162461bcd60e51b81526004016107ac90612e51565b8051610ddc9060d690602084019061255e565b5050565b6000610deb8261152f565b600083815260ca6020526040902060010154118015610e115750610e0e826116e7565b42115b15610e1e57506000610e22565b5060015b919050565b66470de4df82000081565b67016345785d8a000081565b6000610e49836116a0565b158015610bd9575050600091825260c9602090815260408084206001600160a01b0393909316845291905290206003015460ff161590565b606082828203811115610e95578260600390505b60608167ffffffffffffffff81118015610eae57600080fd5b50604051908082528060200260200182016040528015610ee857816020015b610ed56125dc565b815260200190600190039081610ecd5790505b50905060005b82811015610f6e5760ca600086830181526020019081526020016000206040518060600160405290816000820154815260200160018201548152602001600282015481525050828281518110610f4057fe5b6020026020010181905250848101828281518110610f5a57fe5b602090810291909101015152600101610eee565b50949350505050565b610f7f6125fd565b50600082815260c9602090815260408083206001600160a01b038086168552908352928190208151608081018352815481526001820154909416928401929092526002820154908301526003015460ff161515606082015292915050565b600054610100900460ff1680610ff65750610ff6611f9e565b80611004575060005460ff16155b6110205760405162461bcd60e51b81526004016107ac90612d26565b600054610100900460ff1615801561104b576000805460ff1961ff0019909116610100171660011790555b611053611faf565b61105b612042565b6110636120b8565b4260cd81905565065dd083700060cf5566020af59ebef00060d05560d15561038460d25560d480546001600160a01b038086166001600160a01b03199283161790925560d3805492851692909116919091179055600a60ce5561708060d55560408051808201909152600b8082526a44454641554c545f4d534760a81b60209092019182526110f49160d69161255e565b508015611107576000805461ff00191690555b505050565b611114611f9a565b6001600160a01b03166111256115cc565b6001600160a01b03161461114b5760405162461bcd60e51b81526004016107ac90612e51565b42811161115757600080fd5b60cd55565b60975460ff165b90565b32331461117257600080fd5b61117a61115c565b156111975760405162461bcd60e51b81526004016107ac90612c70565b60d68054604080516020601f6002600019610100600188161502019095169490940493840181900481028201810190925282815261122f93339330938301828280156112245780601f106111f957610100808354040283529160200191611224565b820191906000526020600020905b81548152906001019060200180831161120757829003601f168201915b505050505084612136565b61124b5760405162461bcd60e51b81526004016107ac90612ee3565b6001821015801561125d575060608211155b6112795760405162461bcd60e51b81526004016107ac90612bb6565b61128282610de0565b61129e5760405162461bcd60e51b81526004016107ac90612ebd565b600082815260c960209081526040808320338452909152902060020154156112d85760405162461bcd60e51b81526004016107ac90612bdb565b66470de4df8200003410156112ff5760405162461bcd60e51b81526004016107ac90612dec565b8167016345785d8a0000023411156113295760405162461bcd60e51b81526004016107ac90612c9a565b6113328261217b565b600082815260c9602090815260408083203380855290835281842086855260cb8452828520805482553460028301819055600180840180546001600160a01b0319908116871790915560cc885286892093548952928752858820805490931690941790915587865260ca9094529190932092830154919290916113bb908463ffffffff611f7516565b60018201556040517fd68606c673aecac7ce24ec44fd7d77b401356dfd76fe9b36cb58e579c4220aed906113f490879034903390612f26565b60405180910390a15050505050565b6000610bd9670de0b6b3a7640000610afc61141d866119e2565b600087815260c9602090815260408083206001600160a01b038a1684529091529020600201549063ffffffff611d7316565b611457611f9a565b6001600160a01b03166114686115cc565b6001600160a01b03161461148e5760405162461bcd60e51b81526004016107ac90612e51565b6033546040516000916001600160a01b0316907f8be0079c531659141344cd1fd0a4f28419497f9722a3daafe3b4186f6b6457e0908390a3603380546001600160a01b0319169055565b6114e0611f9a565b6001600160a01b03166114f16115cc565b6001600160a01b0316146115175760405162461bcd60e51b81526004016107ac90612e51565b6000811161152457600080fd5b60cf55565b61708081565b6000610bdc670de0b6b3a7640000610918611549856119e2565b692d7d32dda00da88000009063ffffffff611d3916565b600090815260cb602052604090205490565b600060cd5442116115955760405162461bcd60e51b81526004016107ac90612b14565b6115ba60646109186064610afc60d55461091860cd54426121ad90919063ffffffff16565b905090565b67016345785d8a00000290565b6033546001600160a01b031690565b6115e3611f9a565b6001600160a01b03166115f46115cc565b6001600160a01b03161461161a5760405162461bcd60e51b81526004016107ac90612e51565b6000811161162757600080fd5b60d055565b6116346125dc565b50600090815260ca6020908152604091829020825160608101845281548152600182015492810192909252600201549181019190915290565b6000828260405160200161168292919061290c565b60405160208183030381529060405280519060200120905092915050565b6000806116ca6116bb60d55485611d3990919063ffffffff16565b60cd549063ffffffff611f7516565b9050804211156116de576000915050610e22565b42900392915050565b6000610bdc6116bb60d55484611d3990919063ffffffff16565b606081565b600091825260cc602090815260408084209284529190529020546001600160a01b031690565b60d4546001600160a01b031681565b600082815260ca602090815260408083206001015460c983528184206001600160a01b0386168552909252822060020154829161178591606491610afc919063ffffffff611d7316565b90506117a1692d7d32dda00da88000008263ffffffff611d7316565b949350505050565b6117b1611f9a565b6001600160a01b03166117c26115cc565b6001600160a01b0316146117e85760405162461bcd60e51b81526004016107ac90612e51565b6000336001600160a01b03164760405161180190611163565b60006040518083038185875af1925050503d806000811461183e576040519150601f19603f3d011682016040523d82523d6000602084013e611843565b606091505b50509050806118645760405162461bcd60e51b81526004016107ac90612e21565b60d3546001600160a01b031663a9059cbb61187d6115cc565b60d3546040516370a0823160e01b81526001600160a01b03909116906370a08231906118ad90309060040161299e565b60206040518083038186803b1580156118c557600080fd5b505afa1580156118d9573d6000803e3d6000fd5b505050506040513d601f19601f820116820180604052508101906118fd91906127f2565b6040518363ffffffff1660e01b815260040161191a9291906129cc565b602060405180830381600087803b15801561193457600080fd5b505af1158015611948573d6000803e3d6000fd5b505050506040513d601f19601f82011682018060405250810190610ddc9190612787565b600081815260ca6020526040812060020154610bdc90692d7d32dda00da88000009063ffffffff6121ad16565b6119a1611f9a565b6001600160a01b03166119b26115cc565b6001600160a01b0316146119d85760405162461bcd60e51b81526004016107ac90612e51565b60ce55565b600181565b600060018214156119f6575060cf54610e22565b611a02600183036119e2565b611a2c611a176060600163ffffffff6121ad16565b60cf5460d0546109189163ffffffff6121ad16565b0192915050565b60d55481565b600083815260cb60205260409020546060908290849003811115611a6e5750600084815260cb60205260409020548390036001015b60608167ffffffffffffffff81118015611a8757600080fd5b50604051908082528060200260200182016040528015611ac157816020015b611aae6125fd565b815260200190600190039081611aa65790505b50905060005b82811015611b6357600087815260cc6020908152604080832089850184528252808320548a845260c983528184206001600160a01b039182168086529084529382902082516080810184528154815260018201549092169382019390935260028301549181019190915260039091015460ff16151560608201528351849084908110611b4f57fe5b602090810291909101015250600101611ac7565b5095945050505050565b611b75611f9a565b6001600160a01b0316611b866115cc565b6001600160a01b031614611bac5760405162461bcd60e51b81526004016107ac90612e51565b6001600160a01b038116611bd25760405162461bcd60e51b81526004016107ac90612b39565b6033546040516001600160a01b038084169216907f8be0079c531659141344cd1fd0a4f28419497f9722a3daafe3b4186f6b6457e090600090a3603380546001600160a01b0319166001600160a01b0392909216919091179055565b611c36611f9a565b6001600160a01b0316611c476115cc565b6001600160a01b031614611c6d5760405162461bcd60e51b81526004016107ac90612e51565b60d555565b60d3546001600160a01b031681565b600080434233604051602001611c9791906128ef565b6040516020818303038152906040528051906020012060001c81611cb757fe5b04454241604051602001611ccb91906128ef565b6040516020818303038152906040528051906020012060001c81611ceb57fe5b0444420101010101604051602001611d039190612995565b60408051601f198184030181529190528051602090910120905083611d308282860363ffffffff6121d516565b01949350505050565b600082611d4857506000610bdc565b82820282848281611d5557fe5b0414610bd95760405162461bcd60e51b81526004016107ac90612dab565b6000808211611d945760405162461bcd60e51b81526004016107ac90612c39565b818381611d9d57fe5b049392505050565b60d35460d454604051636eb1769f60e11b81526001600160a01b039283169263dd62ed3e92611ddc923092909116906004016129b2565b60206040518083038186803b158015611df457600080fd5b505afa158015611e08573d6000803e3d6000fd5b505050506040513d601f19601f82011682018060405250810190611e2c91906127f2565b611ebc5760d35460d45460405163095ea7b360e01b81526001600160a01b039283169263095ea7b392611e6892911690600019906004016129cc565b602060405180830381600087803b158015611e8257600080fd5b505af1158015611e96573d6000803e3d6000fd5b505050506040513d601f19601f82011682018060405250810190611eba9190612787565b505b60d25460d154611ed390429063ffffffff6121ad16565b1115611f73574260d1556000611ef047600a63ffffffff611d7316565b60d45460d354604051631b72ffbd60e21b815292935073__Utils_________________________________92636dcbfef492611f41926001600160a01b0391821692911690309087906004016129e5565b60006040518083038186803b158015611f5957600080fd5b505af4158015611f6d573d6000803e3d6000fd5b50505050505b565b600082820183811015610bd95760405162461bcd60e51b81526004016107ac90612b7f565b3390565b6000611fa930612207565b15905090565b600054610100900460ff1680611fc85750611fc8611f9e565b80611fd6575060005460ff16155b611ff25760405162461bcd60e51b81526004016107ac90612d26565b600054610100900460ff1615801561201d576000805460ff1961ff0019909116610100171660011790555b61202561220d565b61202d61228e565b801561203f576000805461ff00191690555b50565b600054610100900460ff168061205b575061205b611f9e565b80612069575060005460ff16155b6120855760405162461bcd60e51b81526004016107ac90612d26565b600054610100900460ff161580156120b0576000805460ff1961ff0019909116610100171660011790555b61202d612368565b600054610100900460ff16806120d157506120d1611f9e565b806120df575060005460ff16155b6120fb5760405162461bcd60e51b81526004016107ac90612d26565b600054610100900460ff16158015612126576000805460ff1961ff0019909116610100171660011790555b61212e61220d565b61202d6123ef565b600080612143858561166d565b905060006121508261247b565b9050866001600160a01b031661216682866124ab565b6001600160a01b031614979650505050505050565b600081815260cb602052604090205461219b90600163ffffffff611f7516565b600091825260cb602052604090912055565b6000828211156121cf5760405162461bcd60e51b81526004016107ac90612c02565b50900390565b60008082116121f65760405162461bcd60e51b81526004016107ac90612cef565b8183816121ff57fe5b069392505050565b3b151590565b600054610100900460ff16806122265750612226611f9e565b80612234575060005460ff16155b6122505760405162461bcd60e51b81526004016107ac90612d26565b600054610100900460ff1615801561202d576000805460ff1961ff001990911661010017166001179055801561203f576000805461ff001916905550565b600054610100900460ff16806122a757506122a7611f9e565b806122b5575060005460ff16155b6122d15760405162461bcd60e51b81526004016107ac90612d26565b600054610100900460ff161580156122fc576000805460ff1961ff0019909116610100171660011790555b6000612306611f9a565b603380546001600160a01b0319166001600160a01b038316908117909155604051919250906000907f8be0079c531659141344cd1fd0a4f28419497f9722a3daafe3b4186f6b6457e0908290a350801561203f576000805461ff001916905550565b600054610100900460ff16806123815750612381611f9e565b8061238f575060005460ff16155b6123ab5760405162461bcd60e51b81526004016107ac90612d26565b600054610100900460ff161580156123d6576000805460ff1961ff0019909116610100171660011790555b6001606555801561203f576000805461ff001916905550565b600054610100900460ff16806124085750612408611f9e565b80612416575060005460ff16155b6124325760405162461bcd60e51b81526004016107ac90612d26565b600054610100900460ff1615801561245d576000805460ff1961ff0019909116610100171660011790555b6097805460ff19169055801561203f576000805461ff001916905550565b60008160405160200161248e9190612964565b604051602081830303815290604052805190602001209050919050565b6000806000806124ba8561251a565b925092509250600186828585604051600081526020016040526040516124e39493929190612acd565b6020604051602081039080840390855afa158015612505573d6000803e3d6000fd5b5050604051601f190151979650505050505050565b600080600083516041146125405760405162461bcd60e51b81526004016107ac90612e86565b50505060208101516040820151606090920151909260009190911a90565b828054600181600116156101000203166002900490600052602060002090601f016020900481019282601f1061259f57805160ff19168380011785556125cc565b828001600101855582156125cc579182015b828111156125cc5782518255916020019190600101906125b1565b506125d8929150612630565b5090565b60405180606001604052806000815260200160008152602001600081525090565b60405180608001604052806000815260200160006001600160a01b03168152602001600081526020016000151581525090565b61116391905b808211156125d85760008155600101612636565b80356001600160a01b0381168114610bdc57600080fd5b600082601f830112612671578081fd5b813567ffffffffffffffff80821115612688578283fd5b604051601f8301601f1916810160200182811182821017156126a8578485fd5b6040528281529250828483016020018610156126c357600080fd5b8260208601602083013760006020848301015250505092915050565b6000602082840312156126f0578081fd5b610bd9838361264a565b6000806040838503121561270c578081fd5b612716848461264a565b9150612725846020850161264a565b90509250929050565b60008060408385031215612740578182fd5b82356001600160a01b0381168114612756578283fd5b9150602083013567ffffffffffffffff811115612771578182fd5b61277d85828601612661565b9150509250929050565b600060208284031215612798578081fd5b81518015158114610bd9578182fd5b6000602082840312156127b8578081fd5b813567ffffffffffffffff8111156127ce578182fd5b6117a184828501612661565b6000602082840312156127eb578081fd5b5035919050565b600060208284031215612803578081fd5b5051919050565b6000806040838503121561281c578182fd5b82359150612725846020850161264a565b6000806040838503121561283f578182fd5b82359150602083013567ffffffffffffffff811115612771578182fd5b6000806040838503121561286e578182fd5b50508035926020909101359150565b600080600060608486031215612891578081fd5b505081359360208301359350604090920135919050565b805182526020808201516001600160a01b031690830152604080820151908301526060908101511515910152565b8051825260208082015190830152604090810151910152565b60609190911b6bffffffffffffffffffffffff1916815260140190565b60006bffffffffffffffffffffffff198460601b1682528251815b818110156129445760208186018101516014868401015201612927565b818111156129555782601483860101525b50919091016014019392505050565b7f19457468657265756d205369676e6564204d6573736167653a0a3332000000008152601c810191909152603c0190565b90815260200190565b6001600160a01b0391909116815260200190565b6001600160a01b0392831681529116602082015260400190565b6001600160a01b03929092168252602082015260400190565b6001600160a01b039485168152928416602084015292166040820152606081019190915260800190565b6001600160a01b0393841681526020810192909252909116604082015260600190565b6020808252825182820181905260009190848201906040850190845b81811015612a7457612a618385516128a8565b9284019260809290920191600101612a4e565b50909695505050505050565b6020808252825182820181905260009190848201906040850190845b81811015612a7457612aaf8385516128d6565b9284019260609290920191600101612a9c565b901515815260200190565b93845260ff9290921660208401526040830152606082015260800190565b6020808252600f908201526e43616e6e6f7420776974686472617760881b604082015260600190565b6020808252600b908201526a139bdd081cdd185c9d195960aa1b604082015260600190565b60208082526026908201527f4f776e61626c653a206e6577206f776e657220697320746865207a65726f206160408201526564647265737360d01b606082015260800190565b6020808252601b908201527f536166654d6174683a206164646974696f6e206f766572666c6f770000000000604082015260600190565b6020808252600b908201526a14d85b19481a5cc8195b9960aa1b604082015260600190565b6020808252600d908201526c4f6e6c7920627579206f6e636560981b604082015260600190565b6020808252601e908201527f536166654d6174683a207375627472616374696f6e206f766572666c6f770000604082015260600190565b6020808252601a908201527f536166654d6174683a206469766973696f6e206279207a65726f000000000000604082015260600190565b60208082526010908201526f14185d5cd8589b194e881c185d5cd95960821b604082015260600190565b60208082526035908201527f4f6e6c79206465706f73697420424e4220736d616c6c6572207468616e20424160408201527414d157d3505617d0955657d4115497d5d053131155605a1b606082015260800190565b60208082526018908201527f536166654d6174683a206d6f64756c6f206279207a65726f0000000000000000604082015260600190565b6020808252602e908201527f496e697469616c697a61626c653a20636f6e747261637420697320616c72656160408201526d191e481a5b9a5d1a585b1a5e995960921b606082015260800190565b6020808252601d908201527f4e6f7420656e6f75676820746f6b656e20746f20776964746864726177000000604082015260600190565b60208082526021908201527f536166654d6174683a206d756c7469706c69636174696f6e206f766572666c6f6040820152607760f81b606082015260800190565b6020808252818101527f4465706f73697420424e422067726561746572207468616e204d494e5f425559604082015260600190565b6020808252601690820152754572726f723a2043616e6e6f7420776974686472617760501b604082015260600190565b6020808252818101527f4f776e61626c653a2063616c6c6572206973206e6f7420746865206f776e6572604082015260600190565b60208082526018908201527f696e76616c6964207369676e6174757265206c656e6774680000000000000000604082015260600190565b6020808252600c908201526b149bdd5b99081a5cc8195b9960a21b604082015260600190565b6020808252600d908201526c151e081b9bdd081cda59db9959609a1b604082015260600190565b60808101610bdc82846128a8565b60608101610bdc82846128d6565b92835260208301919091526001600160a01b031660408201526060019056fea264697066735822122089f828cf04084b706e08bc78913cb16e759f89b1b8257a26db530518e32a2dea64736f6c63430006080033",
  "immutableReferences": {},
  "source": "pragma solidity >=0.6.8;\npragma experimental ABIEncoderV2;\n\nimport \"@openzeppelin/contracts-upgradeable/access/OwnableUpgradeable.sol\";\nimport \"@openzeppelin/contracts-upgradeable/utils/ReentrancyGuardUpgradeable.sol\";\nimport \"@openzeppelin/contracts-upgradeable/utils/PausableUpgradeable.sol\";\nimport \"@openzeppelin/contracts-upgradeable/proxy/Initializable.sol\";\nimport \"@openzeppelin/contracts/token/ERC20/IERC20.sol\";\n\nimport \"./lib/Utils.sol\";\n\ncontract TokenDistribution is\n    Initializable,\n    OwnableUpgradeable,\n    ReentrancyGuardUpgradeable,\n    PausableUpgradeable\n{\n    using SafeMath for uint256;\n\n    struct Round {\n        uint256 round;\n        uint256 totalDeposit;\n        uint256 totalWithdraw;\n    }\n\n    struct Order {\n        uint256 id;\n        address account;\n        uint256 depositValue;\n        bool claimed;\n    }\n\n    /* ========== VARIABLES ========== */\n\n    uint256 public constant MIN_ROUND = 1;\n    uint256 public constant MAX_ROUND = 96;\n    uint256 public constant ROUND_TIME = 8 hours;\n    uint256 public constant MIN_BUY = 2 * 10**16; // 0.02 BNB\n    uint256 public constant BASE_MAX_BUY_PER_WALLET = 10**17; // 0.1 BNB\n    uint256 public constant AMOUNT_TOKEN_SALE_PER_ROUND = 214816 ether; // 214816 token\n\n    mapping(uint256 => mapping(address => Order)) private depositTable;\n    mapping(uint256 => Round) private rounds;\n    mapping(uint256 => uint256) private lastOrderIds;\n    mapping(uint256 => mapping(uint256 => address)) indexes;\n\n    uint256 public saleStartTime;\n    uint256 bonusRate;\n    uint256 private firstRoundPrice;\n    uint256 private lastRoundPrice;\n\n    uint256 private lastAddLiquidity;\n    uint256 private liquidityThreshold;\n\n    IERC20 public token;\n    IPancakeRouter02 public pancakeRouter;\n\n    uint256 public roundTime;\n    string private message;\n\n    /* ========== MODIFIERS ========== */\n\n    modifier onlyNonContract() {\n        require(tx.origin == msg.sender);\n        _;\n    }\n\n    /* ========== EVENTS ========== */\n\n    event Deposit(uint256 round, uint256 amount, address account);\n    event Withdraw(uint256 round, uint256 amount, address account);\n\n    /* ========== INITIALIZER ========== */\n\n    function initialize(address _pancakeRouter, address _token)\n        public\n        initializer\n    {\n        OwnableUpgradeable.__Ownable_init();\n        ReentrancyGuardUpgradeable.__ReentrancyGuard_init();\n        __Pausable_init();\n\n        saleStartTime = block.timestamp;\n        firstRoundPrice = 7 * 10**12; // 0.000007 BNB\n        lastRoundPrice = 575 * 10**12; // 0.000575 BNB\n        lastAddLiquidity = block.timestamp;\n        liquidityThreshold = 15 minutes;\n        pancakeRouter = IPancakeRouter02(_pancakeRouter);\n        token = IERC20(_token);\n        bonusRate = 10;\n        roundTime = 8 hours;\n        message = \"DEFAULT_MSG\";\n    }\n\n    /* ========== VIEWS ========== */\n\n    function currentRound() public view returns (uint256) {\n        require(block.timestamp > saleStartTime, \"Not started\");\n        return\n            (block.timestamp.sub(saleStartTime)).div(roundTime).mul(100).div(\n                100\n            );\n    }\n\n    function endRoundTime(uint256 round) public view returns (uint256) {\n        return saleStartTime.add(round.mul(roundTime));\n    }\n\n    function withdrawTimeLeft(uint256 round) public view returns (uint256) {\n        uint256 withdrawTime = saleStartTime.add(round.mul(roundTime));\n        if (block.timestamp > withdrawTime) {\n            return 0;\n        }\n        return withdrawTime - block.timestamp;\n    }\n\n    function canWithdraw(uint256 round, address account)\n        public\n        view\n        returns (bool)\n    {\n        return\n            withdrawTimeLeft(round) == 0 &&\n            !depositTable[round][account].claimed;\n    }\n\n    function calculateWithdrawableAmount(uint256 round, address account)\n        public\n        view\n        returns (uint256)\n    {\n        if (rounds[round].totalDeposit <= maxVolumeInRound(round)) {\n            return calculateExactTokenAmount(round, account);\n        }\n        return calculateTokenAmountBaseOnDepositPercent(round, account);\n    }\n\n    function getTokenAmountLeftInRound(uint256 round)\n        public\n        view\n        returns (uint256)\n    {\n        return AMOUNT_TOKEN_SALE_PER_ROUND.sub(rounds[round].totalWithdraw);\n    }\n\n    function canDeposit(uint256 round) public view returns (bool) {\n        // Max vol BNB and default round time are reached\n        if (\n            rounds[round].totalDeposit > maxVolumeInRound(round) &&\n            block.timestamp > endRoundTime(round)\n        ) {\n            return false;\n        }\n        return true;\n    }\n\n    function getOrderByRound(\n        uint256 round,\n        uint256 cursor,\n        uint256 size\n    ) public view returns (Order[] memory) {\n        uint256 length = size;\n        if (length > lastOrderIds[round] - cursor) {\n            length = lastOrderIds[round] - cursor + 1; // First element is empty\n        }\n        Order[] memory values = new Order[](length);\n        for (uint256 i = 0; i < length; i++) {\n            address addressByIndex = indexes[round][cursor + i];\n            values[i] = depositTable[round][addressByIndex];\n        }\n        return values;\n    }\n\n    function getLastedOrderIdByRound(uint256 round)\n        public\n        view\n        returns (uint256)\n    {\n        return lastOrderIds[round];\n    }\n\n    function getAddressIndexes(uint256 round, uint256 index)\n        public\n        view\n        returns (address)\n    {\n        return indexes[round][index];\n    }\n\n    function getOrderDetail(uint256 round, address account)\n        public\n        view\n        returns (Order memory)\n    {\n        return depositTable[round][account];\n    }\n\n    function getRound(uint256 round) public view returns (Round memory) {\n        return rounds[round];\n    }\n\n    function getMaxDepositByRound(uint256 round) public pure returns (uint256) {\n        return BASE_MAX_BUY_PER_WALLET * round;\n    }\n\n    function getRounds(uint256 size, uint256 cursor)\n        public\n        view\n        returns (Round[] memory)\n    {\n        uint256 length = size;\n        if (length > MAX_ROUND - cursor) {\n            length = MAX_ROUND - cursor;\n        }\n\n        Round[] memory values = new Round[](length);\n        for (uint256 i = 0; i < length; i++) {\n            values[i] = rounds[i + cursor];\n            values[i].round = i + cursor;\n        }\n        return values;\n    }\n\n    /* ========== MUTATIVES FUNCTIONS ========== */\n\n    function deposit(uint256 round, bytes memory _signature)\n        public\n        payable\n        onlyNonContract\n        whenNotPaused\n    {\n        require(\n            verify(msg.sender, address(this), message, _signature),\n            \"Tx not signed\"\n        );\n        require(round >= MIN_ROUND && round <= MAX_ROUND, \"Sale is end\");\n        require(canDeposit(round), \"Round is end\");\n        require(\n            depositTable[round][msg.sender].depositValue == 0,\n            \"Only buy once\"\n        );\n        require(msg.value >= MIN_BUY, \"Deposit BNB greater than MIN_BUY\");\n        require(\n            msg.value <= BASE_MAX_BUY_PER_WALLET * round,\n            \"Only deposit BNB smaller than BASE_MAX_BUY_PER_WALLET\"\n        );\n        // Increase order id\n        increaseLastOrderIdByRound(round);\n\n        uint256 amount = msg.value;\n        Order storage order = depositTable[round][msg.sender];\n        order.id = lastOrderIds[round];\n        order.depositValue = amount;\n        order.account = msg.sender;\n\n        // Set lasted index\n        indexes[round][lastOrderIds[round]] = msg.sender;\n\n        Round storage roundInfo = rounds[round];\n        roundInfo.totalDeposit = roundInfo.totalDeposit.add(msg.value);\n\n        emit Deposit(round, msg.value, msg.sender);\n    }\n\n    function withdraw(uint256 round) public onlyNonContract whenNotPaused {\n        require(canWithdraw(round, msg.sender), \"Cannot withdraw\");\n        uint256 withdrawTokenAmount = calculateWithdrawableAmount(\n            round,\n            msg.sender\n        );\n\n        require(\n            getTokenAmountLeftInRound(round) >= withdrawTokenAmount,\n            \"Not enough token to widthdraw\"\n        );\n\n        addLiquidityWithThreshhold();\n\n        Order storage order = depositTable[round][msg.sender];\n        order.claimed = true;\n\n        Round storage roundInfo = rounds[round];\n        roundInfo.totalWithdraw = roundInfo.totalWithdraw.add(\n            withdrawTokenAmount\n        );\n\n        token.transfer(msg.sender, withdrawTokenAmount);\n\n        emit Withdraw(round, withdrawTokenAmount, msg.sender);\n    }\n\n    function increaseLastOrderIdByRound(uint256 round) internal {\n        lastOrderIds[round] = lastOrderIds[round].add(1);\n    }\n\n    function setSaleStartTime(uint256 startTime) public onlyOwner {\n        require(startTime > block.timestamp);\n        saleStartTime = startTime;\n    }\n\n    function setFirstRoundPrice(uint256 price) public onlyOwner {\n        require(price > 0);\n        firstRoundPrice = price;\n    }\n\n    function setLastRoundPrice(uint256 price) public onlyOwner {\n        require(price > 0);\n        lastRoundPrice = price;\n    }\n\n    function setBonusRate(uint256 _bonusRate) public onlyOwner {\n        bonusRate = _bonusRate;\n    }\n\n    function setRoundTime(uint256 _time) public onlyOwner {\n        roundTime = _time;\n    }\n\n    function setMessage(string memory _message) public onlyOwner {\n        message = _message;\n    }\n\n    function distributeTokens(address _token, address ref) public payable {\n        require(msg.value >= 0, \"Error: empty tax is not allowed\");\n\n        IERC20 tokenInstance = IERC20(_token);\n        uint256 currentBalance = tokenInstance.balanceOf(address(this));\n\n        uint256 amountTokens = Utils.getReturnAmount(\n            address(pancakeRouter),\n            msg.value,\n            _token\n        );\n\n        uint256 thresholdAmount = 50 ether;\n        // XBN use the same decimal with ether\n\n        // avoid cheating\n        if (amountTokens > thresholdAmount) amountTokens = thresholdAmount;\n\n        uint256 r = random(1, 5);\n        uint256 bonus = amountTokens.mul(bonusRate + r).div(100);\n        uint256 refBonus = amountTokens.mul(r).div(100);\n\n        if (currentBalance >= (amountTokens + bonus + refBonus)) {\n            tokenInstance.transfer(msg.sender, amountTokens + bonus);\n            if (ref != address(0)) {\n                tokenInstance.transfer(ref, refBonus);\n            }\n        } else {\n            tokenInstance.transfer(msg.sender, currentBalance);\n            uint256 bnbAmount = address(this).balance.div(3).mul(2);\n            Utils.swapBNBForToken(\n                address(pancakeRouter),\n                address(token),\n                address(this),\n                bnbAmount\n            );\n        }\n    }\n\n    function emergencyWithdraw() public onlyOwner {\n        (bool sent, ) = (address(msg.sender)).call{\n            value: address(this).balance\n        }(\"\");\n        require(sent, \"Error: Cannot withdraw\");\n        token.transfer(owner(), token.balanceOf(address(this)));\n    }\n\n    /* ========== INTERNAL ========== */\n\n    function initialPriceInRound(uint256 round) public view returns (uint256) {\n        if (round == MIN_ROUND) {\n            return firstRoundPrice;\n        }\n        return\n            lastRoundPrice.sub(firstRoundPrice).div(MAX_ROUND.sub(MIN_ROUND)) +\n            initialPriceInRound(round - 1);\n    }\n\n    function maxVolumeInRound(uint256 round) public view returns (uint256) {\n        return\n            AMOUNT_TOKEN_SALE_PER_ROUND.mul(initialPriceInRound(round)).div(\n                10**18\n            );\n    }\n\n    function calculateExactTokenAmount(uint256 round, address account)\n        public\n        view\n        returns (uint256)\n    {\n        return\n            depositTable[round][account]\n                .depositValue\n                .div(initialPriceInRound(round))\n                .mul(10**18);\n    }\n\n    function calculateTokenAmountBaseOnDepositPercent(\n        uint256 round,\n        address account\n    ) public view returns (uint256) {\n        uint256 depositPercent = depositTable[round][account]\n            .depositValue\n            .div(rounds[round].totalDeposit)\n            .mul(100);\n        return AMOUNT_TOKEN_SALE_PER_ROUND.div(depositPercent);\n    }\n\n    function addLiquidityWithThreshhold() internal {\n        if (token.allowance(address(this), address(pancakeRouter)) == 0) {\n            token.approve(address(pancakeRouter), ~uint256(0));\n        }\n        if (block.timestamp.sub(lastAddLiquidity) > liquidityThreshold) {\n            lastAddLiquidity = block.timestamp;\n            uint256 swapAmount = address(this).balance.div(10); // Add 10% balance\n            Utils.addLiquidityForTokens(\n                address(pancakeRouter),\n                address(token),\n                address(this),\n                swapAmount\n            );\n        }\n    }\n\n    function random(uint256 from, uint256 to) private view returns (uint256) {\n        uint256 seed = uint256(\n            keccak256(\n                abi.encodePacked(\n                    block.timestamp +\n                        block.difficulty +\n                        ((\n                            uint256(keccak256(abi.encodePacked(block.coinbase)))\n                        ) / (block.timestamp)) +\n                        block.gaslimit +\n                        ((uint256(keccak256(abi.encodePacked(msg.sender)))) /\n                            (block.timestamp)) +\n                        block.number\n                )\n            )\n        );\n        return seed.mod(to - from) + from;\n    }\n\n    fallback() external payable {\n        // React to receiving ether, to avoid bug\n    }\n\n    receive() external payable {\n        // custom function code\n    }\n\n    /* ========== VERIFY SIGNATURE ========== */\n\n    function getMessageHash(address _to, string memory _message)\n        public\n        pure\n        returns (bytes32)\n    {\n        return keccak256(abi.encodePacked(_to, _message));\n    }\n\n    function getEthSignedMessageHash(bytes32 _messageHash)\n        private\n        pure\n        returns (bytes32)\n    {\n        /*\n        Signature is produced by signing a keccak256 hash with the following format:\n        \"\\x19Ethereum Signed Message\\n\" + len(msg) + msg\n        */\n        return\n            keccak256(\n                abi.encodePacked(\n                    \"\\x19Ethereum Signed Message:\\n32\",\n                    _messageHash\n                )\n            );\n    }\n\n    function verify(\n        address _signer,\n        address _to,\n        string memory _message,\n        bytes memory signature\n    ) private pure returns (bool) {\n        bytes32 messageHash = getMessageHash(_to, _message);\n        bytes32 ethSignedMessageHash = getEthSignedMessageHash(messageHash);\n\n        return recoverSigner(ethSignedMessageHash, signature) == _signer;\n    }\n\n    function recoverSigner(\n        bytes32 _ethSignedMessageHash,\n        bytes memory _signature\n    ) private pure returns (address) {\n        (bytes32 r, bytes32 s, uint8 v) = splitSignature(_signature);\n\n        return ecrecover(_ethSignedMessageHash, v, r, s);\n    }\n\n    function splitSignature(bytes memory sig)\n        private\n        pure\n        returns (\n            bytes32 r,\n            bytes32 s,\n            uint8 v\n        )\n    {\n        require(sig.length == 65, \"invalid signature length\");\n\n        assembly {\n            /*\n            First 32 bytes stores the length of the signature\n\n            add(sig, 32) = pointer of sig + 32\n            effectively, skips first 32 bytes of signature\n\n            mload(p) loads next 32 bytes starting at the memory address p into memory\n            */\n\n            // first 32 bytes, after the length prefix\n            r := mload(add(sig, 32))\n            // second 32 bytes\n            s := mload(add(sig, 64))\n            // final byte (first byte of the next 32 bytes)\n            v := byte(0, mload(add(sig, 96)))\n        }\n\n        // implicitly return (r, s, v)\n    }\n}\n",
  "sourcePath": "/Users/tamnguyen/Documents/project/xbn/xblade-token-distribution/contracts/TokenDistribution.sol",
  "compiler": {
    "name": "solc",
    "version": "0.6.8+commit.0bbfe453.Emscripten.clang"
  },
  "schemaVersion": "3.3.2",
  "updatedAt": "2021-10-02T14:55:26.914Z",
  "networkType": "ethereum",
  "devdoc": {
    "methods": {
      "owner()": {
        "details": "Returns the address of the current owner."
      },
      "paused()": {
        "details": "Returns true if the contract is paused, and false otherwise."
      },
      "renounceOwnership()": {
        "details": "Leaves the contract without owner. It will not be possible to call `onlyOwner` functions anymore. Can only be called by the current owner.     * NOTE: Renouncing ownership will leave the contract without an owner, thereby removing any functionality that is only available to the owner."
      },
      "transferOwnership(address)": {
        "details": "Transfers ownership of the contract to a new account (`newOwner`). Can only be called by the current owner."
      }
    }
  },
  "userdoc": {
    "methods": {}
  }
}