{
  "contractName": "TokenDistribution",
  "abi": [
    {
      "anonymous": false,
      "inputs": [
        {
          "indexed": false,
          "internalType": "uint256",
          "name": "round",
          "type": "uint256"
        },
        {
          "indexed": false,
          "internalType": "uint256",
          "name": "amount",
          "type": "uint256"
        },
        {
          "indexed": false,
          "internalType": "address",
          "name": "account",
          "type": "address"
        }
      ],
      "name": "Deposit",
      "type": "event"
    },
    {
      "anonymous": false,
      "inputs": [
        {
          "indexed": true,
          "internalType": "address",
          "name": "previousOwner",
          "type": "address"
        },
        {
          "indexed": true,
          "internalType": "address",
          "name": "newOwner",
          "type": "address"
        }
      ],
      "name": "OwnershipTransferred",
      "type": "event"
    },
    {
      "anonymous": false,
      "inputs": [
        {
          "indexed": false,
          "internalType": "address",
          "name": "account",
          "type": "address"
        }
      ],
      "name": "Paused",
      "type": "event"
    },
    {
      "anonymous": false,
      "inputs": [
        {
          "indexed": false,
          "internalType": "address",
          "name": "account",
          "type": "address"
        }
      ],
      "name": "Unpaused",
      "type": "event"
    },
    {
      "anonymous": false,
      "inputs": [
        {
          "indexed": false,
          "internalType": "uint256",
          "name": "round",
          "type": "uint256"
        },
        {
          "indexed": false,
          "internalType": "uint256",
          "name": "amount",
          "type": "uint256"
        },
        {
          "indexed": false,
          "internalType": "address",
          "name": "account",
          "type": "address"
        }
      ],
      "name": "Withdraw",
      "type": "event"
    },
    {
      "stateMutability": "payable",
      "type": "fallback",
      "payable": true
    },
    {
      "inputs": [],
      "name": "AMOUNT_TOKEN_SALE_PER_ROUND",
      "outputs": [
        {
          "internalType": "uint256",
          "name": "",
          "type": "uint256"
        }
      ],
      "stateMutability": "view",
      "type": "function",
      "constant": true
    },
    {
      "inputs": [],
      "name": "BASE_MAX_BUY_PER_WALLET",
      "outputs": [
        {
          "internalType": "uint256",
          "name": "",
          "type": "uint256"
        }
      ],
      "stateMutability": "view",
      "type": "function",
      "constant": true
    },
    {
      "inputs": [],
      "name": "MAX_ROUND",
      "outputs": [
        {
          "internalType": "uint256",
          "name": "",
          "type": "uint256"
        }
      ],
      "stateMutability": "view",
      "type": "function",
      "constant": true
    },
    {
      "inputs": [],
      "name": "MIN_BUY",
      "outputs": [
        {
          "internalType": "uint256",
          "name": "",
          "type": "uint256"
        }
      ],
      "stateMutability": "view",
      "type": "function",
      "constant": true
    },
    {
      "inputs": [],
      "name": "MIN_ROUND",
      "outputs": [
        {
          "internalType": "uint256",
          "name": "",
          "type": "uint256"
        }
      ],
      "stateMutability": "view",
      "type": "function",
      "constant": true
    },
    {
      "inputs": [],
      "name": "ROUND_TIME",
      "outputs": [
        {
          "internalType": "uint256",
          "name": "",
          "type": "uint256"
        }
      ],
      "stateMutability": "view",
      "type": "function",
      "constant": true
    },
    {
      "inputs": [],
      "name": "owner",
      "outputs": [
        {
          "internalType": "address",
          "name": "",
          "type": "address"
        }
      ],
      "stateMutability": "view",
      "type": "function",
      "constant": true
    },
    {
      "inputs": [],
      "name": "pancakeRouter",
      "outputs": [
        {
          "internalType": "contract IPancakeRouter02",
          "name": "",
          "type": "address"
        }
      ],
      "stateMutability": "view",
      "type": "function",
      "constant": true
    },
    {
      "inputs": [],
      "name": "paused",
      "outputs": [
        {
          "internalType": "bool",
          "name": "",
          "type": "bool"
        }
      ],
      "stateMutability": "view",
      "type": "function",
      "constant": true
    },
    {
      "inputs": [],
      "name": "renounceOwnership",
      "outputs": [],
      "stateMutability": "nonpayable",
      "type": "function"
    },
    {
      "inputs": [],
      "name": "roundTime",
      "outputs": [
        {
          "internalType": "uint256",
          "name": "",
          "type": "uint256"
        }
      ],
      "stateMutability": "view",
      "type": "function",
      "constant": true
    },
    {
      "inputs": [],
      "name": "saleStartTime",
      "outputs": [
        {
          "internalType": "uint256",
          "name": "",
          "type": "uint256"
        }
      ],
      "stateMutability": "view",
      "type": "function",
      "constant": true
    },
    {
      "inputs": [],
      "name": "token",
      "outputs": [
        {
          "internalType": "contract IERC20",
          "name": "",
          "type": "address"
        }
      ],
      "stateMutability": "view",
      "type": "function",
      "constant": true
    },
    {
      "inputs": [
        {
          "internalType": "address",
          "name": "newOwner",
          "type": "address"
        }
      ],
      "name": "transferOwnership",
      "outputs": [],
      "stateMutability": "nonpayable",
      "type": "function"
    },
    {
      "stateMutability": "payable",
      "type": "receive",
      "payable": true
    },
    {
      "inputs": [
        {
          "internalType": "address",
          "name": "_pancakeRouter",
          "type": "address"
        },
        {
          "internalType": "address",
          "name": "_token",
          "type": "address"
        }
      ],
      "name": "initialize",
      "outputs": [],
      "stateMutability": "nonpayable",
      "type": "function"
    },
    {
      "inputs": [],
      "name": "currentRound",
      "outputs": [
        {
          "internalType": "uint256",
          "name": "",
          "type": "uint256"
        }
      ],
      "stateMutability": "view",
      "type": "function",
      "constant": true
    },
    {
      "inputs": [
        {
          "internalType": "uint256",
          "name": "round",
          "type": "uint256"
        }
      ],
      "name": "endRoundTime",
      "outputs": [
        {
          "internalType": "uint256",
          "name": "",
          "type": "uint256"
        }
      ],
      "stateMutability": "view",
      "type": "function",
      "constant": true
    },
    {
      "inputs": [
        {
          "internalType": "uint256",
          "name": "round",
          "type": "uint256"
        }
      ],
      "name": "withdrawTimeLeft",
      "outputs": [
        {
          "internalType": "uint256",
          "name": "",
          "type": "uint256"
        }
      ],
      "stateMutability": "view",
      "type": "function",
      "constant": true
    },
    {
      "inputs": [
        {
          "internalType": "uint256",
          "name": "round",
          "type": "uint256"
        },
        {
          "internalType": "address",
          "name": "account",
          "type": "address"
        }
      ],
      "name": "canWithdraw",
      "outputs": [
        {
          "internalType": "bool",
          "name": "",
          "type": "bool"
        }
      ],
      "stateMutability": "view",
      "type": "function",
      "constant": true
    },
    {
      "inputs": [
        {
          "internalType": "uint256",
          "name": "round",
          "type": "uint256"
        }
      ],
      "name": "getTokenAmountLeftInRound",
      "outputs": [
        {
          "internalType": "uint256",
          "name": "",
          "type": "uint256"
        }
      ],
      "stateMutability": "view",
      "type": "function",
      "constant": true
    },
    {
      "inputs": [
        {
          "internalType": "uint256",
          "name": "round",
          "type": "uint256"
        }
      ],
      "name": "canDeposit",
      "outputs": [
        {
          "internalType": "bool",
          "name": "",
          "type": "bool"
        }
      ],
      "stateMutability": "view",
      "type": "function",
      "constant": true
    },
    {
      "inputs": [
        {
          "internalType": "uint256",
          "name": "round",
          "type": "uint256"
        },
        {
          "internalType": "uint256",
          "name": "cursor",
          "type": "uint256"
        },
        {
          "internalType": "uint256",
          "name": "size",
          "type": "uint256"
        }
      ],
      "name": "getOrderByRound",
      "outputs": [
        {
          "components": [
            {
              "internalType": "uint256",
              "name": "id",
              "type": "uint256"
            },
            {
              "internalType": "address",
              "name": "account",
              "type": "address"
            },
            {
              "internalType": "uint256",
              "name": "depositValue",
              "type": "uint256"
            },
            {
              "internalType": "bool",
              "name": "claimed",
              "type": "bool"
            }
          ],
          "internalType": "struct TokenDistribution.Order[]",
          "name": "",
          "type": "tuple[]"
        }
      ],
      "stateMutability": "view",
      "type": "function",
      "constant": true
    },
    {
      "inputs": [
        {
          "internalType": "uint256",
          "name": "round",
          "type": "uint256"
        }
      ],
      "name": "getLastedOrderIdByRound",
      "outputs": [
        {
          "internalType": "uint256",
          "name": "",
          "type": "uint256"
        }
      ],
      "stateMutability": "view",
      "type": "function",
      "constant": true
    },
    {
      "inputs": [
        {
          "internalType": "uint256",
          "name": "round",
          "type": "uint256"
        },
        {
          "internalType": "uint256",
          "name": "index",
          "type": "uint256"
        }
      ],
      "name": "getAddressIndexes",
      "outputs": [
        {
          "internalType": "address",
          "name": "",
          "type": "address"
        }
      ],
      "stateMutability": "view",
      "type": "function",
      "constant": true
    },
    {
      "inputs": [
        {
          "internalType": "uint256",
          "name": "round",
          "type": "uint256"
        },
        {
          "internalType": "address",
          "name": "account",
          "type": "address"
        }
      ],
      "name": "getOrderDetail",
      "outputs": [
        {
          "components": [
            {
              "internalType": "uint256",
              "name": "id",
              "type": "uint256"
            },
            {
              "internalType": "address",
              "name": "account",
              "type": "address"
            },
            {
              "internalType": "uint256",
              "name": "depositValue",
              "type": "uint256"
            },
            {
              "internalType": "bool",
              "name": "claimed",
              "type": "bool"
            }
          ],
          "internalType": "struct TokenDistribution.Order",
          "name": "",
          "type": "tuple"
        }
      ],
      "stateMutability": "view",
      "type": "function",
      "constant": true
    },
    {
      "inputs": [
        {
          "internalType": "uint256",
          "name": "round",
          "type": "uint256"
        }
      ],
      "name": "getRound",
      "outputs": [
        {
          "components": [
            {
              "internalType": "uint256",
              "name": "round",
              "type": "uint256"
            },
            {
              "internalType": "uint256",
              "name": "totalDeposit",
              "type": "uint256"
            },
            {
              "internalType": "uint256",
              "name": "totalWithdraw",
              "type": "uint256"
            }
          ],
          "internalType": "struct TokenDistribution.Round",
          "name": "",
          "type": "tuple"
        }
      ],
      "stateMutability": "view",
      "type": "function",
      "constant": true
    },
    {
      "inputs": [
        {
          "internalType": "uint256",
          "name": "round",
          "type": "uint256"
        }
      ],
      "name": "getMaxDepositByRound",
      "outputs": [
        {
          "internalType": "uint256",
          "name": "",
          "type": "uint256"
        }
      ],
      "stateMutability": "pure",
      "type": "function",
      "constant": true
    },
    {
      "inputs": [
        {
          "internalType": "uint256",
          "name": "size",
          "type": "uint256"
        },
        {
          "internalType": "uint256",
          "name": "cursor",
          "type": "uint256"
        }
      ],
      "name": "getRounds",
      "outputs": [
        {
          "components": [
            {
              "internalType": "uint256",
              "name": "round",
              "type": "uint256"
            },
            {
              "internalType": "uint256",
              "name": "totalDeposit",
              "type": "uint256"
            },
            {
              "internalType": "uint256",
              "name": "totalWithdraw",
              "type": "uint256"
            }
          ],
          "internalType": "struct TokenDistribution.Round[]",
          "name": "",
          "type": "tuple[]"
        }
      ],
      "stateMutability": "view",
      "type": "function",
      "constant": true
    },
    {
      "inputs": [
        {
          "internalType": "uint256",
          "name": "round",
          "type": "uint256"
        }
      ],
      "name": "getClaimAt",
      "outputs": [
        {
          "internalType": "uint256",
          "name": "",
          "type": "uint256"
        }
      ],
      "stateMutability": "view",
      "type": "function",
      "constant": true
    },
    {
      "inputs": [
        {
          "internalType": "uint256",
          "name": "round",
          "type": "uint256"
        }
      ],
      "name": "getBuyableBnb",
      "outputs": [
        {
          "internalType": "uint256",
          "name": "",
          "type": "uint256"
        }
      ],
      "stateMutability": "view",
      "type": "function",
      "constant": true
    },
    {
      "inputs": [
        {
          "internalType": "uint256",
          "name": "round",
          "type": "uint256"
        },
        {
          "internalType": "bytes",
          "name": "_signature",
          "type": "bytes"
        },
        {
          "internalType": "string",
          "name": "_message",
          "type": "string"
        }
      ],
      "name": "deposit",
      "outputs": [],
      "stateMutability": "payable",
      "type": "function",
      "payable": true
    },
    {
      "inputs": [
        {
          "internalType": "uint256",
          "name": "round",
          "type": "uint256"
        }
      ],
      "name": "withdraw",
      "outputs": [],
      "stateMutability": "nonpayable",
      "type": "function"
    },
    {
      "inputs": [
        {
          "internalType": "uint256",
          "name": "startTime",
          "type": "uint256"
        }
      ],
      "name": "setSaleStartTime",
      "outputs": [],
      "stateMutability": "nonpayable",
      "type": "function"
    },
    {
      "inputs": [
        {
          "internalType": "uint256",
          "name": "price",
          "type": "uint256"
        }
      ],
      "name": "setFirstRoundPrice",
      "outputs": [],
      "stateMutability": "nonpayable",
      "type": "function"
    },
    {
      "inputs": [
        {
          "internalType": "uint256",
          "name": "price",
          "type": "uint256"
        }
      ],
      "name": "setLastRoundPrice",
      "outputs": [],
      "stateMutability": "nonpayable",
      "type": "function"
    },
    {
      "inputs": [
        {
          "internalType": "uint256",
          "name": "_bonusRate",
          "type": "uint256"
        }
      ],
      "name": "setBonusRate",
      "outputs": [],
      "stateMutability": "nonpayable",
      "type": "function"
    },
    {
      "inputs": [
        {
          "internalType": "uint256",
          "name": "_time",
          "type": "uint256"
        }
      ],
      "name": "setRoundTime",
      "outputs": [],
      "stateMutability": "nonpayable",
      "type": "function"
    },
    {
      "inputs": [
        {
          "internalType": "string",
          "name": "_message",
          "type": "string"
        }
      ],
      "name": "setMessage",
      "outputs": [],
      "stateMutability": "nonpayable",
      "type": "function"
    },
    {
      "inputs": [
        {
          "internalType": "address",
          "name": "_token",
          "type": "address"
        },
        {
          "internalType": "address",
          "name": "ref",
          "type": "address"
        }
      ],
      "name": "distributeTokens",
      "outputs": [],
      "stateMutability": "payable",
      "type": "function",
      "payable": true
    },
    {
      "inputs": [],
      "name": "emergencyWithdraw",
      "outputs": [],
      "stateMutability": "nonpayable",
      "type": "function"
    },
    {
      "inputs": [
        {
          "internalType": "uint256",
          "name": "round",
          "type": "uint256"
        }
      ],
      "name": "initialPriceInRound",
      "outputs": [
        {
          "internalType": "uint256",
          "name": "",
          "type": "uint256"
        }
      ],
      "stateMutability": "view",
      "type": "function",
      "constant": true
    },
    {
      "inputs": [
        {
          "internalType": "uint256",
          "name": "round",
          "type": "uint256"
        }
      ],
      "name": "maxVolumeInRound",
      "outputs": [
        {
          "internalType": "uint256",
          "name": "",
          "type": "uint256"
        }
      ],
      "stateMutability": "view",
      "type": "function",
      "constant": true
    },
    {
      "inputs": [
        {
          "internalType": "uint256",
          "name": "round",
          "type": "uint256"
        },
        {
          "internalType": "uint256",
          "name": "amountBnb",
          "type": "uint256"
        }
      ],
      "name": "calculateExactTokenAmount",
      "outputs": [
        {
          "internalType": "uint256",
          "name": "",
          "type": "uint256"
        }
      ],
      "stateMutability": "view",
      "type": "function",
      "constant": true
    },
    {
      "inputs": [
        {
          "internalType": "address",
          "name": "_to",
          "type": "address"
        },
        {
          "internalType": "string",
          "name": "_message",
          "type": "string"
        }
      ],
      "name": "getMessageHash",
      "outputs": [
        {
          "internalType": "bytes32",
          "name": "",
          "type": "bytes32"
        }
      ],
      "stateMutability": "pure",
      "type": "function",
      "constant": true
    }
  ],
  "bytecode": "0x608060405234801561001057600080fd5b506130e7806100206000396000f3fe60806040526004361061026b5760003560e01c80638d59e4f011610144578063db2e21bc116100b6578063ea0265f11161007a578063ea0265f1146106c2578063ee5f8c8f146106e2578063ef0990fe146106f7578063f2fde38b14610724578063fa65cb0414610744578063fc0c546a1461076457610272565b8063db2e21bc14610658578063ddceefaf1461066d578063e4fcf3291461068d578063e85f86d1146105ee578063e9eba6f3146106ad57610272565b80639a1457b1116101085780639a1457b1146105bb578063a83f4ce5146105ce578063a9394a86146105ee578063b4ac62c51461060e578063bd24115114610623578063c21ebd071461064357610272565b80638d59e4f01461050c5780638da5cb5b1461052c5780638de73afb1461054e5780638f1327c01461056e57806391be0c031461059b57610272565b806343efd975116101dd57806374b5a9f5116101a157806374b5a9f5146104625780637892fd2914610482578063839bb08814610497578063849bcad1146104b757806389419ccc146104d75780638a19c8bc146104f757610272565b806343efd975146103cb578063485cc955146103f8578063525f8a5c146104185780635c975abb14610438578063715018a61461044d57610272565b8063368b87721161022f578063368b87721461030757806339443b8e146103275780633af96b90146103545780633c37d53d146103695780633ea01b5d1461037e57806340f74f471461039e57610272565b806311241bd4146102745780631985bd3e1461029f5780631cb9ca07146102bf5780631cbaee2d146102d25780632e1a7d4d146102e757610272565b3661027257005b005b34801561028057600080fd5b50610289610779565b6040516102969190612a9c565b60405180910390f35b3480156102ab57600080fd5b506102896102ba366004612963565b610787565b6102726102cd3660046127be565b6107c3565b3480156102de57600080fd5b50610289610ba6565b3480156102f357600080fd5b506102726103023660046128a6565b610bac565b34801561031357600080fd5b5061027261032236600461286b565b610e6c565b34801561033357600080fd5b506103476103423660046128a6565b610ec2565b6040516102969190612bc9565b34801561036057600080fd5b50610289610f09565b34801561037557600080fd5b50610289610f14565b34801561038a57600080fd5b506103476103993660046128d6565b610f20565b3480156103aa57600080fd5b506103be6103b9366004612963565b610f93565b6040516102969190612b87565b3480156103d757600080fd5b506103eb6103e63660046128d6565b611089565b6040516102969190613076565b34801561040457600080fd5b506102726104133660046127be565b6110ef565b34801561042457600080fd5b506102726104333660046128a6565b61121e565b34801561044457600080fd5b5061034761126e565b34801561045957600080fd5b50610272611278565b34801561046e57600080fd5b5061027261047d3660046128a6565b611301565b34801561048e57600080fd5b50610289611352565b3480156104a357600080fd5b506102896104b23660046128a6565b611358565b3480156104c357600080fd5b506102896104d23660046128a6565b611384565b3480156104e357600080fd5b506102896104f23660046128a6565b6113b5565b34801561050357600080fd5b506102896113c7565b34801561051857600080fd5b506102896105273660046128a6565b611414565b34801561053857600080fd5b50610541611421565b6040516102969190612aa5565b34801561055a57600080fd5b506102726105693660046128a6565b611430565b34801561057a57600080fd5b5061058e6105893660046128a6565b611481565b6040516102969190613084565b3480156105a757600080fd5b506102896105b63660046127f2565b6114c2565b6102726105c93660046128f9565b6114f5565b3480156105da57600080fd5b506102896105e93660046128a6565b611707565b3480156105fa57600080fd5b506102896106093660046128a6565b61174e565b34801561061a57600080fd5b50610289611768565b34801561062f57600080fd5b5061054161063e366004612963565b61176d565b34801561064f57600080fd5b50610541611793565b34801561066457600080fd5b506102726117a2565b34801561067957600080fd5b506102896106883660046128a6565b611965565b34801561069957600080fd5b506102726106a83660046128a6565b611992565b3480156106b957600080fd5b506102896119d6565b3480156106ce57600080fd5b506102896106dd3660046128a6565b6119db565b3480156106ee57600080fd5b50610289611a2c565b34801561070357600080fd5b50610717610712366004612984565b611a32565b6040516102969190612b39565b34801561073057600080fd5b5061027261073f3660046127a3565b611bb5565b34801561075057600080fd5b5061027261075f3660046128a6565b611c76565b34801561077057600080fd5b50610541611cba565b692d7d32dda00da880000081565b60006107ba670de0b6b3a76400006107ae6107a1866119db565b859063ffffffff611cc916565b9063ffffffff611cfb16565b90505b92915050565b6107d1565b60405180910390fd5b6040516370a0823160e01b815282906000906001600160a01b038316906370a0823190610802903090600401612aa5565b60206040518083038186803b15801561081a57600080fd5b505afa15801561082e573d6000803e3d6000fd5b505050506040513d601f19601f8201168201806040525081019061085291906128be565b60d45460405163ce39524560e01b815291925060009173__Utils_________________________________9163ce3952459161089e916001600160a01b03169034908a90600401612b16565b60206040518083038186803b1580156108b657600080fd5b505af41580156108ca573d6000803e3d6000fd5b505050506040513d601f19601f820116820180604052508101906108ee91906128be565b90506802b5e3af16b188000080821115610906578091505b600061091460016005611d35565b9050600061094060646109348460ce540187611cfb90919063ffffffff16565b9063ffffffff611cc916565b905060006109596064610934878663ffffffff611cfb16565b905080828601018610610a7f5760405163a9059cbb60e01b81526001600160a01b0388169063a9059cbb9061099690339089870190600401612ad3565b602060405180830381600087803b1580156109b057600080fd5b505af11580156109c4573d6000803e3d6000fd5b505050506040513d601f19601f820116820180604052508101906109e8919061284b565b506001600160a01b03881615610a7a5760405163a9059cbb60e01b81526001600160a01b0388169063a9059cbb90610a26908b908590600401612ad3565b602060405180830381600087803b158015610a4057600080fd5b505af1158015610a54573d6000803e3d6000fd5b505050506040513d601f19601f82011682018060405250810190610a78919061284b565b505b610b9b565b60405163a9059cbb60e01b81526001600160a01b0388169063a9059cbb90610aad9033908a90600401612ad3565b602060405180830381600087803b158015610ac757600080fd5b505af1158015610adb573d6000803e3d6000fd5b505050506040513d601f19601f82011682018060405250810190610aff919061284b565b506000610b1860026107ae47600363ffffffff611cc916565b60d45460d354604051630c7855ff60e31b815292935073__Utils_________________________________926363c2aff892610b69926001600160a01b039182169291169030908790600401612aec565b60006040518083038186803b158015610b8157600080fd5b505af4158015610b95573d6000803e3d6000fd5b50505050505b505050505050505050565b60cd5481565b323314610bb857600080fd5b610bc061126e565b15610bdd5760405162461bcd60e51b81526004016107c890612d77565b60026065541415610c005760405162461bcd60e51b81526004016107c89061303f565b6002606555610c0f8133610f20565b610c2b5760405162461bcd60e51b81526004016107c890612bf2565b6000610c3682611384565b600083815260ca602052604090206001015411610c7c57600082815260c960209081526040808320338452909152902060020154610c75908390610787565b9050610d24565b6000610c8783611358565b600084815260c960209081526040808320338452909152902060020154909150811015610cf757610cb88382610787565b600084815260c96020908152604080832033808552925290912060020154919350610cf291610ced908463ffffffff611ded16565b611e15565b610d22565b600083815260c960209081526040808320338452909152902060020154610d1f908490610787565b91505b505b80610d2e83611965565b1015610d4c5760405162461bcd60e51b81526004016107c890612ea9565b610d54611e91565b600082815260c960209081526040808320338452825280832060038101805460ff1916600117905585845260ca9092529091206002810154610d9c908463ffffffff61206116565b600282015560d35460405163a9059cbb60e01b81526001600160a01b039091169063a9059cbb90610dd39033908790600401612ad3565b602060405180830381600087803b158015610ded57600080fd5b505af1158015610e01573d6000803e3d6000fd5b505050506040513d601f19601f82011682018060405250810190610e25919061284b565b507f71ef96c43343734b1d843bb85d52ef329f5e9143e4d35827771e3b0dd90c5f84848433604051610e5993929190613092565b60405180910390a1505060016065555050565b610e74612086565b6001600160a01b0316610e85611421565b6001600160a01b031614610eab5760405162461bcd60e51b81526004016107c890612f86565b8051610ebe9060d6906020840190612622565b5050565b6000610ecd82611384565b600083815260ca6020526040902060010154118015610ef35750610ef08261174e565b42115b15610f0057506000610f04565b5060015b919050565b66470de4df82000081565b67016345785d8a000081565b6000610f2b83611707565b158015610f5e5750600083815260c9602090815260408083206001600160a01b038616845290915290206003015460ff16155b80156107ba575050600091825260c9602090815260408084206001600160a01b03939093168452919052902060020154151590565b606082828203811115610fa7578260600390505b60608167ffffffffffffffff81118015610fc057600080fd5b50604051908082528060200260200182016040528015610ffa57816020015b610fe76126a0565b815260200190600190039081610fdf5790505b50905060005b828110156110805760ca60008683018152602001908152602001600020604051806060016040529081600082015481526020016001820154815260200160028201548152505082828151811061105257fe5b602002602001018190525084810182828151811061106c57fe5b602090810291909101015152600101611000565b50949350505050565b6110916126c1565b50600082815260c9602090815260408083206001600160a01b038086168552908352928190208151608081018352815481526001820154909416928401929092526002820154908301526003015460ff161515606082015292915050565b600054610100900460ff1680611108575061110861208a565b80611116575060005460ff16155b6111325760405162461bcd60e51b81526004016107c890612e2d565b600054610100900460ff1615801561115d576000805460ff1961ff0019909116610100171660011790555b61116561209b565b61116d61212e565b6111756121a4565b4260cd81905565065dd083700060cf5566020af59ebef00060d05560d15561038460d25560d480546001600160a01b038086166001600160a01b03199283161790925560d3805492851692909116919091179055600a60ce5561708060d55560408051808201909152600b8082526a44454641554c545f4d534760a81b60209092019182526112069160d691612622565b508015611219576000805461ff00191690555b505050565b611226612086565b6001600160a01b0316611237611421565b6001600160a01b03161461125d5760405162461bcd60e51b81526004016107c890612f86565b42811161126957600080fd5b60cd55565b60975460ff165b90565b611280612086565b6001600160a01b0316611291611421565b6001600160a01b0316146112b75760405162461bcd60e51b81526004016107c890612f86565b6033546040516000916001600160a01b0316907f8be0079c531659141344cd1fd0a4f28419497f9722a3daafe3b4186f6b6457e0908390a3603380546001600160a01b0319169055565b611309612086565b6001600160a01b031661131a611421565b6001600160a01b0316146113405760405162461bcd60e51b81526004016107c890612f86565b6000811161134d57600080fd5b60cf55565b61708081565b600081815260cb602090815260408083205460ca9092528220600101546107bd9163ffffffff611cc916565b60006107bd670de0b6b3a764000061093461139e856119db565b692d7d32dda00da88000009063ffffffff611cfb16565b600090815260cb602052604090205490565b600060cd5442116113ea5760405162461bcd60e51b81526004016107c890612c1b565b61140f606461093460646107ae60d55461093460cd5442611ded90919063ffffffff16565b905090565b67016345785d8a00000290565b6033546001600160a01b031690565b611438612086565b6001600160a01b0316611449611421565b6001600160a01b03161461146f5760405162461bcd60e51b81526004016107c890612f86565b6000811161147c57600080fd5b60d055565b6114896126a0565b50600090815260ca6020908152604091829020825160608101845281548152600182015492810192909252600201549181019190915290565b600082826040516020016114d7929190612a13565b60405160208183030381529060405280519060200120905092915050565b32331461150157600080fd5b61150961126e565b156115265760405162461bcd60e51b81526004016107c890612d77565b61153233308385612222565b61154e5760405162461bcd60e51b81526004016107c890613018565b60018310158015611560575060608311155b61157c5760405162461bcd60e51b81526004016107c890612cbd565b61158583610ec2565b6115a15760405162461bcd60e51b81526004016107c890612ff2565b600083815260c960209081526040808320338452909152902060020154156115db5760405162461bcd60e51b81526004016107c890612ce2565b66470de4df8200003410156116025760405162461bcd60e51b81526004016107c890612f21565b8267016345785d8a00000234111561162c5760405162461bcd60e51b81526004016107c890612da1565b61163583612267565b600083815260c9602090815260408083203380855290835281842087855260cb8452828520805482553460028301819055600180840180546001600160a01b0319908116871790915560cc885286892093548952928752858820805490931690941790915588865260ca9094529190932092830154919290916116be908463ffffffff61206116565b60018201556040517fd68606c673aecac7ce24ec44fd7d77b401356dfd76fe9b36cb58e579c4220aed906116f790889034903390613092565b60405180910390a1505050505050565b60008061173161172260d55485611cfb90919063ffffffff16565b60cd549063ffffffff61206116565b905080421115611745576000915050610f04565b42900392915050565b60006107bd61172260d55484611cfb90919063ffffffff16565b606081565b600091825260cc602090815260408084209284529190529020546001600160a01b031690565b60d4546001600160a01b031681565b6117aa612086565b6001600160a01b03166117bb611421565b6001600160a01b0316146117e15760405162461bcd60e51b81526004016107c890612f86565b6000336001600160a01b0316476040516117fa90611275565b60006040518083038185875af1925050503d8060008114611837576040519150601f19603f3d011682016040523d82523d6000602084013e61183c565b606091505b505090508061185d5760405162461bcd60e51b81526004016107c890612f56565b60d3546001600160a01b031663a9059cbb611876611421565b60d3546040516370a0823160e01b81526001600160a01b03909116906370a08231906118a6903090600401612aa5565b60206040518083038186803b1580156118be57600080fd5b505afa1580156118d2573d6000803e3d6000fd5b505050506040513d601f19601f820116820180604052508101906118f691906128be565b6040518363ffffffff1660e01b8152600401611913929190612ad3565b602060405180830381600087803b15801561192d57600080fd5b505af1158015611941573d6000803e3d6000fd5b505050506040513d601f19601f82011682018060405250810190610ebe919061284b565b600081815260ca60205260408120600201546107bd90692d7d32dda00da88000009063ffffffff611ded16565b61199a612086565b6001600160a01b03166119ab611421565b6001600160a01b0316146119d15760405162461bcd60e51b81526004016107c890612f86565b60ce55565b600181565b600060018214156119ef575060cf54610f04565b6119fb600183036119db565b611a25611a106060600163ffffffff611ded16565b60cf5460d0546109349163ffffffff611ded16565b0192915050565b60d55481565b600083815260cb60205260409020546060908290611a84576040805160008082526020820190925290611a7b565b611a686126c1565b815260200190600190039081611a605790505b50915050611bae565b600085815260cb6020526040902054849003811115611ab45750600084815260cb60205260409020548390036001015b60608167ffffffffffffffff81118015611acd57600080fd5b50604051908082528060200260200182016040528015611b0757816020015b611af46126c1565b815260200190600190039081611aec5790505b50905060005b82811015611ba957600087815260cc6020908152604080832089850184528252808320548a845260c983528184206001600160a01b039182168086529084529382902082516080810184528154815260018201549092169382019390935260028301549181019190915260039091015460ff16151560608201528351849084908110611b9557fe5b602090810291909101015250600101611b0d565b509150505b9392505050565b611bbd612086565b6001600160a01b0316611bce611421565b6001600160a01b031614611bf45760405162461bcd60e51b81526004016107c890612f86565b6001600160a01b038116611c1a5760405162461bcd60e51b81526004016107c890612c40565b6033546040516001600160a01b038084169216907f8be0079c531659141344cd1fd0a4f28419497f9722a3daafe3b4186f6b6457e090600090a3603380546001600160a01b0319166001600160a01b0392909216919091179055565b611c7e612086565b6001600160a01b0316611c8f611421565b6001600160a01b031614611cb55760405162461bcd60e51b81526004016107c890612f86565b60d555565b60d3546001600160a01b031681565b6000808211611cea5760405162461bcd60e51b81526004016107c890612d40565b818381611cf357fe5b049392505050565b600082611d0a575060006107bd565b82820282848281611d1757fe5b04146107ba5760405162461bcd60e51b81526004016107c890612ee0565b600080434233604051602001611d4b91906129f6565b6040516020818303038152906040528051906020012060001c81611d6b57fe5b04454241604051602001611d7f91906129f6565b6040516020818303038152906040528051906020012060001c81611d9f57fe5b0444420101010101604051602001611db79190612a9c565b60408051601f198184030181529190528051602090910120905083611de48282860363ffffffff61229916565b01949350505050565b600082821115611e0f5760405162461bcd60e51b81526004016107c890612d09565b50900390565b6000826001600160a01b031682604051611e2e90611275565b60006040518083038185875af1925050503d8060008114611e6b576040519150601f19603f3d011682016040523d82523d6000602084013e611e70565b606091505b50509050806112195760405162461bcd60e51b81526004016107c890612e7b565b60d35460d454604051636eb1769f60e11b81526001600160a01b039283169263dd62ed3e92611ec892309290911690600401612ab9565b60206040518083038186803b158015611ee057600080fd5b505afa158015611ef4573d6000803e3d6000fd5b505050506040513d601f19601f82011682018060405250810190611f1891906128be565b611fa85760d35460d45460405163095ea7b360e01b81526001600160a01b039283169263095ea7b392611f549291169060001990600401612ad3565b602060405180830381600087803b158015611f6e57600080fd5b505af1158015611f82573d6000803e3d6000fd5b505050506040513d601f19601f82011682018060405250810190611fa6919061284b565b505b60d25460d154611fbf90429063ffffffff611ded16565b111561205f574260d1556000611fdc47600a63ffffffff611cc916565b60d45460d354604051631b72ffbd60e21b815292935073__Utils_________________________________92636dcbfef49261202d926001600160a01b039182169291169030908790600401612aec565b60006040518083038186803b15801561204557600080fd5b505af4158015612059573d6000803e3d6000fd5b50505050505b565b6000828201838110156107ba5760405162461bcd60e51b81526004016107c890612c86565b3390565b6000612095306122cb565b15905090565b600054610100900460ff16806120b457506120b461208a565b806120c2575060005460ff16155b6120de5760405162461bcd60e51b81526004016107c890612e2d565b600054610100900460ff16158015612109576000805460ff1961ff0019909116610100171660011790555b6121116122d1565b612119612352565b801561212b576000805461ff00191690555b50565b600054610100900460ff1680612147575061214761208a565b80612155575060005460ff16155b6121715760405162461bcd60e51b81526004016107c890612e2d565b600054610100900460ff1615801561219c576000805460ff1961ff0019909116610100171660011790555b61211961242c565b600054610100900460ff16806121bd57506121bd61208a565b806121cb575060005460ff16155b6121e75760405162461bcd60e51b81526004016107c890612e2d565b600054610100900460ff16158015612212576000805460ff1961ff0019909116610100171660011790555b61221a6122d1565b6121196124b3565b60008061222f85856114c2565b9050600061223c8261253f565b9050866001600160a01b0316612252828661256f565b6001600160a01b031614979650505050505050565b600081815260cb602052604090205461228790600163ffffffff61206116565b600091825260cb602052604090912055565b60008082116122ba5760405162461bcd60e51b81526004016107c890612df6565b8183816122c357fe5b069392505050565b3b151590565b600054610100900460ff16806122ea57506122ea61208a565b806122f8575060005460ff16155b6123145760405162461bcd60e51b81526004016107c890612e2d565b600054610100900460ff16158015612119576000805460ff1961ff001990911661010017166001179055801561212b576000805461ff001916905550565b600054610100900460ff168061236b575061236b61208a565b80612379575060005460ff16155b6123955760405162461bcd60e51b81526004016107c890612e2d565b600054610100900460ff161580156123c0576000805460ff1961ff0019909116610100171660011790555b60006123ca612086565b603380546001600160a01b0319166001600160a01b038316908117909155604051919250906000907f8be0079c531659141344cd1fd0a4f28419497f9722a3daafe3b4186f6b6457e0908290a350801561212b576000805461ff001916905550565b600054610100900460ff1680612445575061244561208a565b80612453575060005460ff16155b61246f5760405162461bcd60e51b81526004016107c890612e2d565b600054610100900460ff1615801561249a576000805460ff1961ff0019909116610100171660011790555b6001606555801561212b576000805461ff001916905550565b600054610100900460ff16806124cc57506124cc61208a565b806124da575060005460ff16155b6124f65760405162461bcd60e51b81526004016107c890612e2d565b600054610100900460ff16158015612521576000805460ff1961ff0019909116610100171660011790555b6097805460ff19169055801561212b576000805461ff001916905550565b6000816040516020016125529190612a6b565b604051602081830303815290604052805190602001209050919050565b60008060008061257e856125de565b925092509250600186828585604051600081526020016040526040516125a79493929190612bd4565b6020604051602081039080840390855afa1580156125c9573d6000803e3d6000fd5b5050604051601f190151979650505050505050565b600080600083516041146126045760405162461bcd60e51b81526004016107c890612fbb565b50505060208101516040820151606090920151909260009190911a90565b828054600181600116156101000203166002900490600052602060002090601f016020900481019282601f1061266357805160ff1916838001178555612690565b82800160010185558215612690579182015b82811115612690578251825591602001919060010190612675565b5061269c9291506126f4565b5090565b60405180606001604052806000815260200160008152602001600081525090565b60405180608001604052806000815260200160006001600160a01b03168152602001600081526020016000151581525090565b61127591905b8082111561269c57600081556001016126fa565b80356001600160a01b03811681146107bd57600080fd5b600082601f830112612735578081fd5b813567ffffffffffffffff8082111561274c578283fd5b604051601f8301601f19168101602001828111828210171561276c578485fd5b60405282815292508284830160200186101561278757600080fd5b8260208601602083013760006020848301015250505092915050565b6000602082840312156127b4578081fd5b6107ba838361270e565b600080604083850312156127d0578081fd5b6127da848461270e565b91506127e9846020850161270e565b90509250929050565b60008060408385031215612804578182fd5b82356001600160a01b038116811461281a578283fd5b9150602083013567ffffffffffffffff811115612835578182fd5b61284185828601612725565b9150509250929050565b60006020828403121561285c578081fd5b815180151581146107ba578182fd5b60006020828403121561287c578081fd5b813567ffffffffffffffff811115612892578182fd5b61289e84828501612725565b949350505050565b6000602082840312156128b7578081fd5b5035919050565b6000602082840312156128cf578081fd5b5051919050565b600080604083850312156128e8578182fd5b823591506127e9846020850161270e565b60008060006060848603121561290d578081fd5b83359250602084013567ffffffffffffffff8082111561292b578283fd5b61293787838801612725565b9350604086013591508082111561294c578283fd5b5061295986828701612725565b9150509250925092565b60008060408385031215612975578182fd5b50508035926020909101359150565b600080600060608486031215612998578283fd5b505081359360208301359350604090920135919050565b805182526020808201516001600160a01b031690830152604080820151908301526060908101511515910152565b8051825260208082015190830152604090810151910152565b60609190911b6bffffffffffffffffffffffff1916815260140190565b60006bffffffffffffffffffffffff198460601b1682528251815b81811015612a4b5760208186018101516014868401015201612a2e565b81811115612a5c5782601483860101525b50919091016014019392505050565b7f19457468657265756d205369676e6564204d6573736167653a0a3332000000008152601c810191909152603c0190565b90815260200190565b6001600160a01b0391909116815260200190565b6001600160a01b0392831681529116602082015260400190565b6001600160a01b03929092168252602082015260400190565b6001600160a01b039485168152928416602084015292166040820152606081019190915260800190565b6001600160a01b0393841681526020810192909252909116604082015260600190565b6020808252825182820181905260009190848201906040850190845b81811015612b7b57612b688385516129af565b9284019260809290920191600101612b55565b50909695505050505050565b6020808252825182820181905260009190848201906040850190845b81811015612b7b57612bb68385516129dd565b9284019260609290920191600101612ba3565b901515815260200190565b93845260ff9290921660208401526040830152606082015260800190565b6020808252600f908201526e43616e6e6f7420776974686472617760881b604082015260600190565b6020808252600b908201526a139bdd081cdd185c9d195960aa1b604082015260600190565b60208082526026908201527f4f776e61626c653a206e6577206f776e657220697320746865207a65726f206160408201526564647265737360d01b606082015260800190565b6020808252601b908201527f536166654d6174683a206164646974696f6e206f766572666c6f770000000000604082015260600190565b6020808252600b908201526a14d85b19481a5cc8195b9960aa1b604082015260600190565b6020808252600d908201526c4f6e6c7920627579206f6e636560981b604082015260600190565b6020808252601e908201527f536166654d6174683a207375627472616374696f6e206f766572666c6f770000604082015260600190565b6020808252601a908201527f536166654d6174683a206469766973696f6e206279207a65726f000000000000604082015260600190565b60208082526010908201526f14185d5cd8589b194e881c185d5cd95960821b604082015260600190565b60208082526035908201527f4f6e6c79206465706f73697420424e4220736d616c6c6572207468616e20424160408201527414d157d3505617d0955657d4115497d5d053131155605a1b606082015260800190565b60208082526018908201527f536166654d6174683a206d6f64756c6f206279207a65726f0000000000000000604082015260600190565b6020808252602e908201527f496e697469616c697a61626c653a20636f6e747261637420697320616c72656160408201526d191e481a5b9a5d1a585b1a5e995960921b606082015260800190565b602080825260149082015273115c9c9bdc8e8810d85b9b9bdd081c99599d5b9960621b604082015260600190565b6020808252601d908201527f4e6f7420656e6f75676820746f6b656e20746f20776964746864726177000000604082015260600190565b60208082526021908201527f536166654d6174683a206d756c7469706c69636174696f6e206f766572666c6f6040820152607760f81b606082015260800190565b6020808252818101527f4465706f73697420424e422067726561746572207468616e204d494e5f425559604082015260600190565b6020808252601690820152754572726f723a2043616e6e6f7420776974686472617760501b604082015260600190565b6020808252818101527f4f776e61626c653a2063616c6c6572206973206e6f7420746865206f776e6572604082015260600190565b60208082526018908201527f696e76616c6964207369676e6174757265206c656e6774680000000000000000604082015260600190565b6020808252600c908201526b149bdd5b99081a5cc8195b9960a21b604082015260600190565b6020808252600d908201526c151e081b9bdd081cda59db9959609a1b604082015260600190565b6020808252601f908201527f5265656e7472616e637947756172643a207265656e7472616e742063616c6c00604082015260600190565b608081016107bd82846129af565b606081016107bd82846129dd565b92835260208301919091526001600160a01b031660408201526060019056fea2646970667358221220dbd6ac33301e4ab54ab9075ed68f8fbd27afeeb4023516d4980e42413bd7d8ed64736f6c63430006080033",
  "immutableReferences": {},
  "source": "pragma solidity >=0.6.8;\npragma experimental ABIEncoderV2;\n\nimport \"@openzeppelin/contracts-upgradeable/access/OwnableUpgradeable.sol\";\nimport \"@openzeppelin/contracts-upgradeable/utils/ReentrancyGuardUpgradeable.sol\";\nimport \"@openzeppelin/contracts-upgradeable/utils/PausableUpgradeable.sol\";\nimport \"@openzeppelin/contracts-upgradeable/proxy/Initializable.sol\";\nimport \"@openzeppelin/contracts/token/ERC20/IERC20.sol\";\n\nimport \"./lib/Utils.sol\";\n\ncontract TokenDistribution is\n    Initializable,\n    OwnableUpgradeable,\n    ReentrancyGuardUpgradeable,\n    PausableUpgradeable\n{\n    using SafeMath for uint256;\n\n    struct Round {\n        uint256 round;\n        uint256 totalDeposit;\n        uint256 totalWithdraw;\n    }\n\n    struct Order {\n        uint256 id;\n        address account;\n        uint256 depositValue;\n        bool claimed;\n    }\n\n    /* ========== VARIABLES ========== */\n\n    uint256 public constant MIN_ROUND = 1;\n    uint256 public constant MAX_ROUND = 96;\n    uint256 public constant ROUND_TIME = 8 hours;\n    uint256 public constant MIN_BUY = 2 * 10**16; // 0.02 BNB\n    uint256 public constant BASE_MAX_BUY_PER_WALLET = 10**17; // 0.1 BNB\n    uint256 public constant AMOUNT_TOKEN_SALE_PER_ROUND = 214816 ether; // 214816 token\n\n    mapping(uint256 => mapping(address => Order)) private depositTable;\n    mapping(uint256 => Round) private rounds;\n    mapping(uint256 => uint256) private lastOrderIds;\n    mapping(uint256 => mapping(uint256 => address)) indexes;\n\n    uint256 public saleStartTime;\n    uint256 bonusRate;\n    uint256 private firstRoundPrice;\n    uint256 private lastRoundPrice;\n\n    uint256 private lastAddLiquidity;\n    uint256 private liquidityThreshold;\n\n    IERC20 public token;\n    IPancakeRouter02 public pancakeRouter;\n\n    uint256 public roundTime;\n    string private message;\n\n    /* ========== MODIFIERS ========== */\n\n    modifier onlyNonContract() {\n        require(tx.origin == msg.sender);\n        _;\n    }\n\n    /* ========== EVENTS ========== */\n\n    event Deposit(uint256 round, uint256 amount, address account);\n    event Withdraw(uint256 round, uint256 amount, address account);\n\n    /* ========== INITIALIZER ========== */\n\n    function initialize(address _pancakeRouter, address _token)\n        public\n        initializer\n    {\n        OwnableUpgradeable.__Ownable_init();\n        ReentrancyGuardUpgradeable.__ReentrancyGuard_init();\n        __Pausable_init();\n\n        saleStartTime = block.timestamp;\n        firstRoundPrice = 7 * 10**12; // 0.000007 BNB\n        lastRoundPrice = 575 * 10**12; // 0.000575 BNB\n        lastAddLiquidity = block.timestamp;\n        liquidityThreshold = 15 minutes;\n        pancakeRouter = IPancakeRouter02(_pancakeRouter);\n        token = IERC20(_token);\n        bonusRate = 10;\n        roundTime = 8 hours;\n        message = \"DEFAULT_MSG\";\n    }\n\n    /* ========== VIEWS ========== */\n\n    function currentRound() public view returns (uint256) {\n        require(block.timestamp > saleStartTime, \"Not started\");\n        return\n            (block.timestamp.sub(saleStartTime)).div(roundTime).mul(100).div(\n                100\n            );\n    }\n\n    function endRoundTime(uint256 round) public view returns (uint256) {\n        return saleStartTime.add(round.mul(roundTime));\n    }\n\n    function withdrawTimeLeft(uint256 round) public view returns (uint256) {\n        uint256 withdrawTime = saleStartTime.add(round.mul(roundTime));\n        if (block.timestamp > withdrawTime) {\n            return 0;\n        }\n        return withdrawTime - block.timestamp;\n    }\n\n    function canWithdraw(uint256 round, address account)\n        public\n        view\n        returns (bool)\n    {\n        return\n            withdrawTimeLeft(round) == 0 &&\n            !depositTable[round][account].claimed &&\n            depositTable[round][account].depositValue > 0;\n    }\n\n    function getTokenAmountLeftInRound(uint256 round)\n        public\n        view\n        returns (uint256)\n    {\n        return AMOUNT_TOKEN_SALE_PER_ROUND.sub(rounds[round].totalWithdraw);\n    }\n\n    function canDeposit(uint256 round) public view returns (bool) {\n        // Max vol BNB and default round time are reached\n        if (\n            rounds[round].totalDeposit > maxVolumeInRound(round) &&\n            block.timestamp > endRoundTime(round)\n        ) {\n            return false;\n        }\n        return true;\n    }\n\n    function getOrderByRound(\n        uint256 round,\n        uint256 cursor,\n        uint256 size\n    ) public view returns (Order[] memory) {\n        uint256 length = size;\n        if (lastOrderIds[round] == 0) {\n            return new Order[](0);\n        }\n        if (length > lastOrderIds[round] - cursor) {\n            length = lastOrderIds[round] - cursor + 1; // First element is empty\n        }\n        Order[] memory values = new Order[](length);\n        for (uint256 i = 0; i < length; i++) {\n            address addressByIndex = indexes[round][cursor + i];\n            values[i] = depositTable[round][addressByIndex];\n        }\n        return values;\n    }\n\n    function getLastedOrderIdByRound(uint256 round)\n        public\n        view\n        returns (uint256)\n    {\n        return lastOrderIds[round];\n    }\n\n    function getAddressIndexes(uint256 round, uint256 index)\n        public\n        view\n        returns (address)\n    {\n        return indexes[round][index];\n    }\n\n    function getOrderDetail(uint256 round, address account)\n        public\n        view\n        returns (Order memory)\n    {\n        return depositTable[round][account];\n    }\n\n    function getRound(uint256 round) public view returns (Round memory) {\n        return rounds[round];\n    }\n\n    function getMaxDepositByRound(uint256 round) public pure returns (uint256) {\n        return BASE_MAX_BUY_PER_WALLET * round;\n    }\n\n    function getRounds(uint256 size, uint256 cursor)\n        public\n        view\n        returns (Round[] memory)\n    {\n        uint256 length = size;\n        if (length > MAX_ROUND - cursor) {\n            length = MAX_ROUND - cursor;\n        }\n\n        Round[] memory values = new Round[](length);\n        for (uint256 i = 0; i < length; i++) {\n            values[i] = rounds[i + cursor];\n            values[i].round = i + cursor;\n        }\n        return values;\n    }\n\n    function getClaimAt(uint256 round) public view returns (uint256) {\n        return saleStartTime.add(round.mul(roundTime));\n    }\n\n    function getBuyableBnb(uint256 round) public view returns (uint256) {\n        return rounds[round].totalDeposit.div(lastOrderIds[round]);\n    }\n\n    /* ========== MUTATIVES FUNCTIONS ========== */\n\n    function deposit(\n        uint256 round,\n        bytes memory _signature,\n        string memory _message\n    ) public payable onlyNonContract whenNotPaused {\n        require(\n            verify(msg.sender, address(this), _message, _signature),\n            \"Tx not signed\"\n        );\n        require(round >= MIN_ROUND && round <= MAX_ROUND, \"Sale is end\");\n        require(canDeposit(round), \"Round is end\");\n        require(\n            depositTable[round][msg.sender].depositValue == 0,\n            \"Only buy once\"\n        );\n        require(msg.value >= MIN_BUY, \"Deposit BNB greater than MIN_BUY\");\n        require(\n            msg.value <= BASE_MAX_BUY_PER_WALLET * round,\n            \"Only deposit BNB smaller than BASE_MAX_BUY_PER_WALLET\"\n        );\n        // Increase order id\n        increaseLastOrderIdByRound(round);\n\n        uint256 amount = msg.value;\n        Order storage order = depositTable[round][msg.sender];\n        order.id = lastOrderIds[round];\n        order.depositValue = amount;\n        order.account = msg.sender;\n\n        // Set lasted index\n        indexes[round][lastOrderIds[round]] = msg.sender;\n\n        Round storage roundInfo = rounds[round];\n        roundInfo.totalDeposit = roundInfo.totalDeposit.add(msg.value);\n\n        emit Deposit(round, msg.value, msg.sender);\n    }\n\n    function withdraw(uint256 round)\n        public\n        onlyNonContract\n        whenNotPaused\n        nonReentrant\n    {\n        require(canWithdraw(round, msg.sender), \"Cannot withdraw\");\n        uint256 withdrawTokenAmount = 0;\n        if (rounds[round].totalDeposit <= maxVolumeInRound(round)) {\n            withdrawTokenAmount = calculateExactTokenAmount(\n                round,\n                depositTable[round][msg.sender].depositValue\n            );\n        } else {\n            uint256 buyableBnb = getBuyableBnb(round);\n            if (depositTable[round][msg.sender].depositValue > buyableBnb) {\n                withdrawTokenAmount = calculateExactTokenAmount(\n                    round,\n                    buyableBnb\n                );\n                refund(\n                    msg.sender,\n                    depositTable[round][msg.sender].depositValue.sub(buyableBnb)\n                );\n            } else {\n                withdrawTokenAmount = calculateExactTokenAmount(\n                    round,\n                    depositTable[round][msg.sender].depositValue\n                );\n            }\n        }\n\n        require(\n            getTokenAmountLeftInRound(round) >= withdrawTokenAmount,\n            \"Not enough token to widthdraw\"\n        );\n\n        addLiquidityWithThreshhold();\n\n        Order storage order = depositTable[round][msg.sender];\n        order.claimed = true;\n\n        Round storage roundInfo = rounds[round];\n        roundInfo.totalWithdraw = roundInfo.totalWithdraw.add(\n            withdrawTokenAmount\n        );\n\n        token.transfer(msg.sender, withdrawTokenAmount);\n\n        emit Withdraw(round, withdrawTokenAmount, msg.sender);\n    }\n\n    function refund(address account, uint256 amount) private {\n        (bool sent, ) = (account).call{value: amount}(\"\");\n        require(sent, \"Error: Cannot refund\");\n    }\n\n    function increaseLastOrderIdByRound(uint256 round) internal {\n        lastOrderIds[round] = lastOrderIds[round].add(1);\n    }\n\n    function setSaleStartTime(uint256 startTime) public onlyOwner {\n        require(startTime > block.timestamp);\n        saleStartTime = startTime;\n    }\n\n    function setFirstRoundPrice(uint256 price) public onlyOwner {\n        require(price > 0);\n        firstRoundPrice = price;\n    }\n\n    function setLastRoundPrice(uint256 price) public onlyOwner {\n        require(price > 0);\n        lastRoundPrice = price;\n    }\n\n    function setBonusRate(uint256 _bonusRate) public onlyOwner {\n        bonusRate = _bonusRate;\n    }\n\n    function setRoundTime(uint256 _time) public onlyOwner {\n        roundTime = _time;\n    }\n\n    function setMessage(string memory _message) public onlyOwner {\n        message = _message;\n    }\n\n    function distributeTokens(address _token, address ref) public payable {\n        require(msg.value >= 0, \"Error: empty tax is not allowed\");\n\n        IERC20 tokenInstance = IERC20(_token);\n        uint256 currentBalance = tokenInstance.balanceOf(address(this));\n\n        uint256 amountTokens = Utils.getReturnAmount(\n            address(pancakeRouter),\n            msg.value,\n            _token\n        );\n\n        uint256 thresholdAmount = 50 ether;\n        // XBN use the same decimal with ether\n\n        // avoid cheating\n        if (amountTokens > thresholdAmount) amountTokens = thresholdAmount;\n\n        uint256 r = random(1, 5);\n        uint256 bonus = amountTokens.mul(bonusRate + r).div(100);\n        uint256 refBonus = amountTokens.mul(r).div(100);\n\n        if (currentBalance >= (amountTokens + bonus + refBonus)) {\n            tokenInstance.transfer(msg.sender, amountTokens + bonus);\n            if (ref != address(0)) {\n                tokenInstance.transfer(ref, refBonus);\n            }\n        } else {\n            tokenInstance.transfer(msg.sender, currentBalance);\n            uint256 bnbAmount = address(this).balance.div(3).mul(2);\n            Utils.swapBNBForToken(\n                address(pancakeRouter),\n                address(token),\n                address(this),\n                bnbAmount\n            );\n        }\n    }\n\n    function emergencyWithdraw() public onlyOwner {\n        (bool sent, ) = (address(msg.sender)).call{\n            value: address(this).balance\n        }(\"\");\n        require(sent, \"Error: Cannot withdraw\");\n        token.transfer(owner(), token.balanceOf(address(this)));\n    }\n\n    /* ========== INTERNAL ========== */\n\n    function initialPriceInRound(uint256 round) public view returns (uint256) {\n        if (round == MIN_ROUND) {\n            return firstRoundPrice;\n        }\n        return\n            lastRoundPrice.sub(firstRoundPrice).div(MAX_ROUND.sub(MIN_ROUND)) +\n            initialPriceInRound(round - 1);\n    }\n\n    function maxVolumeInRound(uint256 round) public view returns (uint256) {\n        return\n            AMOUNT_TOKEN_SALE_PER_ROUND.mul(initialPriceInRound(round)).div(\n                10**18\n            );\n    }\n\n    function calculateExactTokenAmount(uint256 round, uint256 amountBnb)\n        public\n        view\n        returns (uint256)\n    {\n        return amountBnb.div(initialPriceInRound(round)).mul(10**18);\n    }\n\n    function addLiquidityWithThreshhold() internal {\n        if (token.allowance(address(this), address(pancakeRouter)) == 0) {\n            token.approve(address(pancakeRouter), ~uint256(0));\n        }\n        if (block.timestamp.sub(lastAddLiquidity) > liquidityThreshold) {\n            lastAddLiquidity = block.timestamp;\n            uint256 swapAmount = address(this).balance.div(10); // Add 10% balance\n            Utils.addLiquidityForTokens(\n                address(pancakeRouter),\n                address(token),\n                address(this),\n                swapAmount\n            );\n        }\n    }\n\n    function random(uint256 from, uint256 to) private view returns (uint256) {\n        uint256 seed = uint256(\n            keccak256(\n                abi.encodePacked(\n                    block.timestamp +\n                        block.difficulty +\n                        ((\n                            uint256(keccak256(abi.encodePacked(block.coinbase)))\n                        ) / (block.timestamp)) +\n                        block.gaslimit +\n                        ((uint256(keccak256(abi.encodePacked(msg.sender)))) /\n                            (block.timestamp)) +\n                        block.number\n                )\n            )\n        );\n        return seed.mod(to - from) + from;\n    }\n\n    fallback() external payable {\n        // React to receiving ether, to avoid bug\n    }\n\n    receive() external payable {\n        // custom function code\n    }\n\n    /* ========== VERIFY SIGNATURE ========== */\n\n    function getMessageHash(address _to, string memory _message)\n        public\n        pure\n        returns (bytes32)\n    {\n        return keccak256(abi.encodePacked(_to, _message));\n    }\n\n    function getEthSignedMessageHash(bytes32 _messageHash)\n        private\n        pure\n        returns (bytes32)\n    {\n        /*\n        Signature is produced by signing a keccak256 hash with the following format:\n        \"\\x19Ethereum Signed Message\\n\" + len(msg) + msg\n        */\n        return\n            keccak256(\n                abi.encodePacked(\n                    \"\\x19Ethereum Signed Message:\\n32\",\n                    _messageHash\n                )\n            );\n    }\n\n    function verify(\n        address _signer,\n        address _to,\n        string memory _message,\n        bytes memory signature\n    ) private pure returns (bool) {\n        bytes32 messageHash = getMessageHash(_to, _message);\n        bytes32 ethSignedMessageHash = getEthSignedMessageHash(messageHash);\n\n        return recoverSigner(ethSignedMessageHash, signature) == _signer;\n    }\n\n    function recoverSigner(\n        bytes32 _ethSignedMessageHash,\n        bytes memory _signature\n    ) private pure returns (address) {\n        (bytes32 r, bytes32 s, uint8 v) = splitSignature(_signature);\n\n        return ecrecover(_ethSignedMessageHash, v, r, s);\n    }\n\n    function splitSignature(bytes memory sig)\n        private\n        pure\n        returns (\n            bytes32 r,\n            bytes32 s,\n            uint8 v\n        )\n    {\n        require(sig.length == 65, \"invalid signature length\");\n\n        assembly {\n            /*\n            First 32 bytes stores the length of the signature\n\n            add(sig, 32) = pointer of sig + 32\n            effectively, skips first 32 bytes of signature\n\n            mload(p) loads next 32 bytes starting at the memory address p into memory\n            */\n\n            // first 32 bytes, after the length prefix\n            r := mload(add(sig, 32))\n            // second 32 bytes\n            s := mload(add(sig, 64))\n            // final byte (first byte of the next 32 bytes)\n            v := byte(0, mload(add(sig, 96)))\n        }\n\n        // implicitly return (r, s, v)\n    }\n}\n",
  "sourcePath": "/Users/tamnguyen/Documents/project/xbn/xblade-token-distribution/contracts/TokenDistribution.sol",
  "compiler": {
    "name": "solc",
    "version": "0.6.8+commit.0bbfe453.Emscripten.clang"
  },
  "schemaVersion": "3.3.2",
  "updatedAt": "2021-10-05T04:43:02.902Z",
  "networkType": "ethereum",
  "devdoc": {
    "methods": {
      "owner()": {
        "details": "Returns the address of the current owner."
      },
      "paused()": {
        "details": "Returns true if the contract is paused, and false otherwise."
      },
      "renounceOwnership()": {
        "details": "Leaves the contract without owner. It will not be possible to call `onlyOwner` functions anymore. Can only be called by the current owner.     * NOTE: Renouncing ownership will leave the contract without an owner, thereby removing any functionality that is only available to the owner."
      },
      "transferOwnership(address)": {
        "details": "Transfers ownership of the contract to a new account (`newOwner`). Can only be called by the current owner."
      }
    }
  },
  "userdoc": {
    "methods": {}
  }
}