{
  "contractName": "TokenDistribution",
  "abi": [
    {
      "anonymous": false,
      "inputs": [
        {
          "indexed": false,
          "internalType": "uint256",
          "name": "round",
          "type": "uint256"
        },
        {
          "indexed": false,
          "internalType": "uint256",
          "name": "amount",
          "type": "uint256"
        },
        {
          "indexed": false,
          "internalType": "address",
          "name": "account",
          "type": "address"
        }
      ],
      "name": "Deposit",
      "type": "event"
    },
    {
      "anonymous": false,
      "inputs": [
        {
          "indexed": true,
          "internalType": "address",
          "name": "previousOwner",
          "type": "address"
        },
        {
          "indexed": true,
          "internalType": "address",
          "name": "newOwner",
          "type": "address"
        }
      ],
      "name": "OwnershipTransferred",
      "type": "event"
    },
    {
      "anonymous": false,
      "inputs": [
        {
          "indexed": false,
          "internalType": "address",
          "name": "account",
          "type": "address"
        }
      ],
      "name": "Paused",
      "type": "event"
    },
    {
      "anonymous": false,
      "inputs": [
        {
          "indexed": false,
          "internalType": "address",
          "name": "account",
          "type": "address"
        }
      ],
      "name": "Unpaused",
      "type": "event"
    },
    {
      "anonymous": false,
      "inputs": [
        {
          "indexed": false,
          "internalType": "uint256",
          "name": "round",
          "type": "uint256"
        },
        {
          "indexed": false,
          "internalType": "uint256",
          "name": "amount",
          "type": "uint256"
        },
        {
          "indexed": false,
          "internalType": "address",
          "name": "account",
          "type": "address"
        }
      ],
      "name": "Withdraw",
      "type": "event"
    },
    {
      "stateMutability": "payable",
      "type": "fallback",
      "payable": true
    },
    {
      "inputs": [],
      "name": "AMOUNT_TOKEN_SALE_PER_ROUND",
      "outputs": [
        {
          "internalType": "uint256",
          "name": "",
          "type": "uint256"
        }
      ],
      "stateMutability": "view",
      "type": "function",
      "constant": true
    },
    {
      "inputs": [],
      "name": "BASE_MAX_BUY_PER_WALLET",
      "outputs": [
        {
          "internalType": "uint256",
          "name": "",
          "type": "uint256"
        }
      ],
      "stateMutability": "view",
      "type": "function",
      "constant": true
    },
    {
      "inputs": [],
      "name": "MAX_ROUND",
      "outputs": [
        {
          "internalType": "uint256",
          "name": "",
          "type": "uint256"
        }
      ],
      "stateMutability": "view",
      "type": "function",
      "constant": true
    },
    {
      "inputs": [],
      "name": "MIN_BUY",
      "outputs": [
        {
          "internalType": "uint256",
          "name": "",
          "type": "uint256"
        }
      ],
      "stateMutability": "view",
      "type": "function",
      "constant": true
    },
    {
      "inputs": [],
      "name": "MIN_ROUND",
      "outputs": [
        {
          "internalType": "uint256",
          "name": "",
          "type": "uint256"
        }
      ],
      "stateMutability": "view",
      "type": "function",
      "constant": true
    },
    {
      "inputs": [],
      "name": "ROUND_TIME",
      "outputs": [
        {
          "internalType": "uint256",
          "name": "",
          "type": "uint256"
        }
      ],
      "stateMutability": "view",
      "type": "function",
      "constant": true
    },
    {
      "inputs": [],
      "name": "owner",
      "outputs": [
        {
          "internalType": "address",
          "name": "",
          "type": "address"
        }
      ],
      "stateMutability": "view",
      "type": "function",
      "constant": true
    },
    {
      "inputs": [],
      "name": "pancakeRouter",
      "outputs": [
        {
          "internalType": "contract IPancakeRouter02",
          "name": "",
          "type": "address"
        }
      ],
      "stateMutability": "view",
      "type": "function",
      "constant": true
    },
    {
      "inputs": [],
      "name": "paused",
      "outputs": [
        {
          "internalType": "bool",
          "name": "",
          "type": "bool"
        }
      ],
      "stateMutability": "view",
      "type": "function",
      "constant": true
    },
    {
      "inputs": [],
      "name": "renounceOwnership",
      "outputs": [],
      "stateMutability": "nonpayable",
      "type": "function"
    },
    {
      "inputs": [],
      "name": "roundTime",
      "outputs": [
        {
          "internalType": "uint256",
          "name": "",
          "type": "uint256"
        }
      ],
      "stateMutability": "view",
      "type": "function",
      "constant": true
    },
    {
      "inputs": [],
      "name": "saleStartTime",
      "outputs": [
        {
          "internalType": "uint256",
          "name": "",
          "type": "uint256"
        }
      ],
      "stateMutability": "view",
      "type": "function",
      "constant": true
    },
    {
      "inputs": [],
      "name": "token",
      "outputs": [
        {
          "internalType": "contract IERC20",
          "name": "",
          "type": "address"
        }
      ],
      "stateMutability": "view",
      "type": "function",
      "constant": true
    },
    {
      "inputs": [
        {
          "internalType": "address",
          "name": "newOwner",
          "type": "address"
        }
      ],
      "name": "transferOwnership",
      "outputs": [],
      "stateMutability": "nonpayable",
      "type": "function"
    },
    {
      "stateMutability": "payable",
      "type": "receive",
      "payable": true
    },
    {
      "inputs": [
        {
          "internalType": "address",
          "name": "_pancakeRouter",
          "type": "address"
        },
        {
          "internalType": "address",
          "name": "_token",
          "type": "address"
        }
      ],
      "name": "initialize",
      "outputs": [],
      "stateMutability": "nonpayable",
      "type": "function"
    },
    {
      "inputs": [],
      "name": "currentRound",
      "outputs": [
        {
          "internalType": "uint256",
          "name": "",
          "type": "uint256"
        }
      ],
      "stateMutability": "view",
      "type": "function",
      "constant": true
    },
    {
      "inputs": [
        {
          "internalType": "uint256",
          "name": "round",
          "type": "uint256"
        }
      ],
      "name": "endRoundTime",
      "outputs": [
        {
          "internalType": "uint256",
          "name": "",
          "type": "uint256"
        }
      ],
      "stateMutability": "view",
      "type": "function",
      "constant": true
    },
    {
      "inputs": [
        {
          "internalType": "uint256",
          "name": "round",
          "type": "uint256"
        }
      ],
      "name": "withdrawTimeLeft",
      "outputs": [
        {
          "internalType": "uint256",
          "name": "",
          "type": "uint256"
        }
      ],
      "stateMutability": "view",
      "type": "function",
      "constant": true
    },
    {
      "inputs": [
        {
          "internalType": "uint256",
          "name": "round",
          "type": "uint256"
        },
        {
          "internalType": "address",
          "name": "account",
          "type": "address"
        }
      ],
      "name": "canWithdraw",
      "outputs": [
        {
          "internalType": "bool",
          "name": "",
          "type": "bool"
        }
      ],
      "stateMutability": "view",
      "type": "function",
      "constant": true
    },
    {
      "inputs": [
        {
          "internalType": "uint256",
          "name": "round",
          "type": "uint256"
        }
      ],
      "name": "getTokenAmountLeftInRound",
      "outputs": [
        {
          "internalType": "uint256",
          "name": "",
          "type": "uint256"
        }
      ],
      "stateMutability": "view",
      "type": "function",
      "constant": true
    },
    {
      "inputs": [
        {
          "internalType": "uint256",
          "name": "round",
          "type": "uint256"
        }
      ],
      "name": "canDeposit",
      "outputs": [
        {
          "internalType": "bool",
          "name": "",
          "type": "bool"
        }
      ],
      "stateMutability": "view",
      "type": "function",
      "constant": true
    },
    {
      "inputs": [
        {
          "internalType": "uint256",
          "name": "round",
          "type": "uint256"
        },
        {
          "internalType": "uint256",
          "name": "cursor",
          "type": "uint256"
        },
        {
          "internalType": "uint256",
          "name": "size",
          "type": "uint256"
        }
      ],
      "name": "getOrderByRound",
      "outputs": [
        {
          "components": [
            {
              "internalType": "uint256",
              "name": "id",
              "type": "uint256"
            },
            {
              "internalType": "address",
              "name": "account",
              "type": "address"
            },
            {
              "internalType": "uint256",
              "name": "depositValue",
              "type": "uint256"
            },
            {
              "internalType": "bool",
              "name": "claimed",
              "type": "bool"
            }
          ],
          "internalType": "struct TokenDistribution.Order[]",
          "name": "",
          "type": "tuple[]"
        }
      ],
      "stateMutability": "view",
      "type": "function",
      "constant": true
    },
    {
      "inputs": [
        {
          "internalType": "uint256",
          "name": "round",
          "type": "uint256"
        }
      ],
      "name": "getLastedOrderIdByRound",
      "outputs": [
        {
          "internalType": "uint256",
          "name": "",
          "type": "uint256"
        }
      ],
      "stateMutability": "view",
      "type": "function",
      "constant": true
    },
    {
      "inputs": [
        {
          "internalType": "uint256",
          "name": "round",
          "type": "uint256"
        },
        {
          "internalType": "uint256",
          "name": "index",
          "type": "uint256"
        }
      ],
      "name": "getAddressIndexes",
      "outputs": [
        {
          "internalType": "address",
          "name": "",
          "type": "address"
        }
      ],
      "stateMutability": "view",
      "type": "function",
      "constant": true
    },
    {
      "inputs": [
        {
          "internalType": "uint256",
          "name": "round",
          "type": "uint256"
        },
        {
          "internalType": "address",
          "name": "account",
          "type": "address"
        }
      ],
      "name": "getOrderDetail",
      "outputs": [
        {
          "components": [
            {
              "internalType": "uint256",
              "name": "id",
              "type": "uint256"
            },
            {
              "internalType": "address",
              "name": "account",
              "type": "address"
            },
            {
              "internalType": "uint256",
              "name": "depositValue",
              "type": "uint256"
            },
            {
              "internalType": "bool",
              "name": "claimed",
              "type": "bool"
            }
          ],
          "internalType": "struct TokenDistribution.Order",
          "name": "",
          "type": "tuple"
        }
      ],
      "stateMutability": "view",
      "type": "function",
      "constant": true
    },
    {
      "inputs": [
        {
          "internalType": "uint256",
          "name": "round",
          "type": "uint256"
        }
      ],
      "name": "getRound",
      "outputs": [
        {
          "components": [
            {
              "internalType": "uint256",
              "name": "round",
              "type": "uint256"
            },
            {
              "internalType": "uint256",
              "name": "totalDeposit",
              "type": "uint256"
            },
            {
              "internalType": "uint256",
              "name": "totalWithdraw",
              "type": "uint256"
            }
          ],
          "internalType": "struct TokenDistribution.Round",
          "name": "",
          "type": "tuple"
        }
      ],
      "stateMutability": "view",
      "type": "function",
      "constant": true
    },
    {
      "inputs": [
        {
          "internalType": "uint256",
          "name": "round",
          "type": "uint256"
        }
      ],
      "name": "getMaxDepositByRound",
      "outputs": [
        {
          "internalType": "uint256",
          "name": "",
          "type": "uint256"
        }
      ],
      "stateMutability": "pure",
      "type": "function",
      "constant": true
    },
    {
      "inputs": [
        {
          "internalType": "uint256",
          "name": "size",
          "type": "uint256"
        },
        {
          "internalType": "uint256",
          "name": "cursor",
          "type": "uint256"
        }
      ],
      "name": "getRounds",
      "outputs": [
        {
          "components": [
            {
              "internalType": "uint256",
              "name": "round",
              "type": "uint256"
            },
            {
              "internalType": "uint256",
              "name": "totalDeposit",
              "type": "uint256"
            },
            {
              "internalType": "uint256",
              "name": "totalWithdraw",
              "type": "uint256"
            }
          ],
          "internalType": "struct TokenDistribution.Round[]",
          "name": "",
          "type": "tuple[]"
        }
      ],
      "stateMutability": "view",
      "type": "function",
      "constant": true
    },
    {
      "inputs": [
        {
          "internalType": "uint256",
          "name": "round",
          "type": "uint256"
        }
      ],
      "name": "getClaimAt",
      "outputs": [
        {
          "internalType": "uint256",
          "name": "",
          "type": "uint256"
        }
      ],
      "stateMutability": "view",
      "type": "function",
      "constant": true
    },
    {
      "inputs": [
        {
          "internalType": "uint256",
          "name": "round",
          "type": "uint256"
        }
      ],
      "name": "getBuyableBnb",
      "outputs": [
        {
          "internalType": "uint256",
          "name": "",
          "type": "uint256"
        }
      ],
      "stateMutability": "view",
      "type": "function",
      "constant": true
    },
    {
      "inputs": [
        {
          "internalType": "uint256",
          "name": "round",
          "type": "uint256"
        },
        {
          "internalType": "bytes",
          "name": "_signature",
          "type": "bytes"
        },
        {
          "internalType": "string",
          "name": "_message",
          "type": "string"
        },
        {
          "internalType": "string",
          "name": "_messageWS",
          "type": "string"
        }
      ],
      "name": "deposit",
      "outputs": [],
      "stateMutability": "payable",
      "type": "function",
      "payable": true
    },
    {
      "inputs": [
        {
          "internalType": "uint256",
          "name": "round",
          "type": "uint256"
        }
      ],
      "name": "withdraw",
      "outputs": [],
      "stateMutability": "nonpayable",
      "type": "function"
    },
    {
      "inputs": [
        {
          "internalType": "uint256",
          "name": "startTime",
          "type": "uint256"
        }
      ],
      "name": "setSaleStartTime",
      "outputs": [],
      "stateMutability": "nonpayable",
      "type": "function"
    },
    {
      "inputs": [
        {
          "internalType": "uint256",
          "name": "price",
          "type": "uint256"
        }
      ],
      "name": "setFirstRoundPrice",
      "outputs": [],
      "stateMutability": "nonpayable",
      "type": "function"
    },
    {
      "inputs": [
        {
          "internalType": "uint256",
          "name": "price",
          "type": "uint256"
        }
      ],
      "name": "setLastRoundPrice",
      "outputs": [],
      "stateMutability": "nonpayable",
      "type": "function"
    },
    {
      "inputs": [
        {
          "internalType": "uint256",
          "name": "_bonusRate",
          "type": "uint256"
        }
      ],
      "name": "setBonusRate",
      "outputs": [],
      "stateMutability": "nonpayable",
      "type": "function"
    },
    {
      "inputs": [
        {
          "internalType": "uint256",
          "name": "_time",
          "type": "uint256"
        }
      ],
      "name": "setRoundTime",
      "outputs": [],
      "stateMutability": "nonpayable",
      "type": "function"
    },
    {
      "inputs": [
        {
          "internalType": "string",
          "name": "_message",
          "type": "string"
        }
      ],
      "name": "setMessage",
      "outputs": [],
      "stateMutability": "nonpayable",
      "type": "function"
    },
    {
      "inputs": [
        {
          "internalType": "address",
          "name": "_token",
          "type": "address"
        },
        {
          "internalType": "address",
          "name": "ref",
          "type": "address"
        }
      ],
      "name": "distributeTokens",
      "outputs": [],
      "stateMutability": "payable",
      "type": "function",
      "payable": true
    },
    {
      "inputs": [],
      "name": "emergencyWithdraw",
      "outputs": [],
      "stateMutability": "nonpayable",
      "type": "function"
    },
    {
      "inputs": [
        {
          "internalType": "uint256",
          "name": "round",
          "type": "uint256"
        }
      ],
      "name": "initialPriceInRound",
      "outputs": [
        {
          "internalType": "uint256",
          "name": "",
          "type": "uint256"
        }
      ],
      "stateMutability": "view",
      "type": "function",
      "constant": true
    },
    {
      "inputs": [
        {
          "internalType": "uint256",
          "name": "round",
          "type": "uint256"
        }
      ],
      "name": "maxVolumeInRound",
      "outputs": [
        {
          "internalType": "uint256",
          "name": "",
          "type": "uint256"
        }
      ],
      "stateMutability": "view",
      "type": "function",
      "constant": true
    },
    {
      "inputs": [
        {
          "internalType": "uint256",
          "name": "round",
          "type": "uint256"
        },
        {
          "internalType": "uint256",
          "name": "amountBnb",
          "type": "uint256"
        }
      ],
      "name": "calculateExactTokenAmount",
      "outputs": [
        {
          "internalType": "uint256",
          "name": "",
          "type": "uint256"
        }
      ],
      "stateMutability": "view",
      "type": "function",
      "constant": true
    },
    {
      "inputs": [
        {
          "internalType": "address",
          "name": "_to",
          "type": "address"
        },
        {
          "internalType": "string",
          "name": "_message",
          "type": "string"
        }
      ],
      "name": "getMessageHash",
      "outputs": [
        {
          "internalType": "bytes32",
          "name": "",
          "type": "bytes32"
        }
      ],
      "stateMutability": "pure",
      "type": "function",
      "constant": true
    }
  ],
  "bytecode": "0x608060405234801561001057600080fd5b50613221806100206000396000f3fe60806040526004361061026b5760003560e01c80638a19c8bc11610144578063db2e21bc116100b6578063ea0265f11161007a578063ea0265f1146106c2578063ee5f8c8f146106e2578063ef0990fe146106f7578063f2fde38b14610724578063fa65cb0414610744578063fc0c546a1461076457610272565b8063db2e21bc14610658578063ddceefaf1461066d578063e4fcf3291461068d578063e85f86d1146105ee578063e9eba6f3146106ad57610272565b806391be0c031161010857806391be0c03146105ae578063a83f4ce5146105ce578063a9394a86146105ee578063b4ac62c51461060e578063bd24115114610623578063c21ebd071461064357610272565b80638a19c8bc1461050a5780638d59e4f01461051f5780638da5cb5b1461053f5780638de73afb146105615780638f1327c01461058157610272565b806343efd975116101dd578063715018a6116101a1578063715018a61461046057806374b5a9f5146104755780637892fd2914610495578063839bb088146104aa578063849bcad1146104ca57806389419ccc146104ea57610272565b806343efd975146103cb578063485cc955146103f8578063525f8a5c146104185780635c975abb146104385780635e0db6201461044d57610272565b8063368b87721161022f578063368b87721461030757806339443b8e146103275780633af96b90146103545780633c37d53d146103695780633ea01b5d1461037e57806340f74f471461039e57610272565b806311241bd4146102745780631985bd3e1461029f5780631cb9ca07146102bf5780631cbaee2d146102d25780632e1a7d4d146102e757610272565b3661027257005b005b34801561028057600080fd5b50610289610779565b6040516102969190612b76565b60405180910390f35b3480156102ab57600080fd5b506102896102ba3660046129da565b610787565b6102726102cd366004612811565b6107c3565b3480156102de57600080fd5b50610289610ba6565b3480156102f357600080fd5b506102726103023660046128f9565b610bac565b34801561031357600080fd5b506102726103223660046128be565b610e6c565b34801561033357600080fd5b506103476103423660046128f9565b610ec2565b6040516102969190612ca3565b34801561036057600080fd5b50610289610f09565b34801561037557600080fd5b50610289610f14565b34801561038a57600080fd5b50610347610399366004612929565b610f20565b3480156103aa57600080fd5b506103be6103b93660046129da565b610f93565b6040516102969190612c61565b3480156103d757600080fd5b506103eb6103e6366004612929565b611089565b6040516102969190613180565b34801561040457600080fd5b50610272610413366004612811565b6110ef565b34801561042457600080fd5b506102726104333660046128f9565b61121e565b34801561044457600080fd5b5061034761126e565b61027261045b36600461294c565b611278565b34801561046c57600080fd5b5061027261148c565b34801561048157600080fd5b506102726104903660046128f9565b611515565b3480156104a157600080fd5b50610289611566565b3480156104b657600080fd5b506102896104c53660046128f9565b61156c565b3480156104d657600080fd5b506102896104e53660046128f9565b611598565b3480156104f657600080fd5b506102896105053660046128f9565b6115c9565b34801561051657600080fd5b506102896115db565b34801561052b57600080fd5b5061028961053a3660046128f9565b611628565b34801561054b57600080fd5b50610554611635565b6040516102969190612b7f565b34801561056d57600080fd5b5061027261057c3660046128f9565b611644565b34801561058d57600080fd5b506105a161059c3660046128f9565b611695565b604051610296919061318e565b3480156105ba57600080fd5b506102896105c9366004612845565b6116d6565b3480156105da57600080fd5b506102896105e93660046128f9565b611709565b3480156105fa57600080fd5b506102896106093660046128f9565b611750565b34801561061a57600080fd5b5061028961176a565b34801561062f57600080fd5b5061055461063e3660046129da565b61176f565b34801561064f57600080fd5b50610554611795565b34801561066457600080fd5b506102726117a4565b34801561067957600080fd5b506102896106883660046128f9565b611967565b34801561069957600080fd5b506102726106a83660046128f9565b611994565b3480156106b957600080fd5b506102896119d8565b3480156106ce57600080fd5b506102896106dd3660046128f9565b6119dd565b3480156106ee57600080fd5b50610289611a2e565b34801561070357600080fd5b506107176107123660046129fb565b611a34565b6040516102969190612c13565b34801561073057600080fd5b5061027261073f3660046127f6565b611bb7565b34801561075057600080fd5b5061027261075f3660046128f9565b611c78565b34801561077057600080fd5b50610554611cbc565b692d7d32dda00da880000081565b60006107ba670de0b6b3a76400006107ae6107a1866119dd565b859063ffffffff611ccb16565b9063ffffffff611cfd16565b90505b92915050565b6107d1565b60405180910390fd5b6040516370a0823160e01b815282906000906001600160a01b038316906370a0823190610802903090600401612b7f565b60206040518083038186803b15801561081a57600080fd5b505afa15801561082e573d6000803e3d6000fd5b505050506040513d601f19601f820116820180604052508101906108529190612911565b60d45460405163ce39524560e01b815291925060009173__Utils_________________________________9163ce3952459161089e916001600160a01b03169034908a90600401612bf0565b60206040518083038186803b1580156108b657600080fd5b505af41580156108ca573d6000803e3d6000fd5b505050506040513d601f19601f820116820180604052508101906108ee9190612911565b90506802b5e3af16b188000080821115610906578091505b600061091460016005611d37565b9050600061094060646109348460ce540187611cfd90919063ffffffff16565b9063ffffffff611ccb16565b905060006109596064610934878663ffffffff611cfd16565b905080828601018610610a7f5760405163a9059cbb60e01b81526001600160a01b0388169063a9059cbb9061099690339089870190600401612bad565b602060405180830381600087803b1580156109b057600080fd5b505af11580156109c4573d6000803e3d6000fd5b505050506040513d601f19601f820116820180604052508101906109e8919061289e565b506001600160a01b03881615610a7a5760405163a9059cbb60e01b81526001600160a01b0388169063a9059cbb90610a26908b908590600401612bad565b602060405180830381600087803b158015610a4057600080fd5b505af1158015610a54573d6000803e3d6000fd5b505050506040513d601f19601f82011682018060405250810190610a78919061289e565b505b610b9b565b60405163a9059cbb60e01b81526001600160a01b0388169063a9059cbb90610aad9033908a90600401612bad565b602060405180830381600087803b158015610ac757600080fd5b505af1158015610adb573d6000803e3d6000fd5b505050506040513d601f19601f82011682018060405250810190610aff919061289e565b506000610b1860026107ae47600363ffffffff611ccb16565b60d45460d354604051630c7855ff60e31b815292935073__Utils_________________________________926363c2aff892610b69926001600160a01b039182169291169030908790600401612bc6565b60006040518083038186803b158015610b8157600080fd5b505af4158015610b95573d6000803e3d6000fd5b50505050505b505050505050505050565b60cd5481565b323314610bb857600080fd5b610bc061126e565b15610bdd5760405162461bcd60e51b81526004016107c890612e81565b60026065541415610c005760405162461bcd60e51b81526004016107c890613149565b6002606555610c0f8133610f20565b610c2b5760405162461bcd60e51b81526004016107c890612ccc565b6000610c3682611598565b600083815260ca602052604090206001015411610c7c57600082815260c960209081526040808320338452909152902060020154610c75908390610787565b9050610d24565b6000610c878361156c565b600084815260c960209081526040808320338452909152902060020154909150811015610cf757610cb88382610787565b600084815260c96020908152604080832033808552925290912060020154919350610cf291610ced908463ffffffff611def16565b611e17565b610d22565b600083815260c960209081526040808320338452909152902060020154610d1f908490610787565b91505b505b80610d2e83611967565b1015610d4c5760405162461bcd60e51b81526004016107c890612fb3565b610d54611e93565b600082815260c960209081526040808320338452825280832060038101805460ff1916600117905585845260ca9092529091206002810154610d9c908463ffffffff61206316565b600282015560d35460405163a9059cbb60e01b81526001600160a01b039091169063a9059cbb90610dd39033908790600401612bad565b602060405180830381600087803b158015610ded57600080fd5b505af1158015610e01573d6000803e3d6000fd5b505050506040513d601f19601f82011682018060405250810190610e25919061289e565b507f71ef96c43343734b1d843bb85d52ef329f5e9143e4d35827771e3b0dd90c5f84848433604051610e599392919061319c565b60405180910390a1505060016065555050565b610e74612088565b6001600160a01b0316610e85611635565b6001600160a01b031614610eab5760405162461bcd60e51b81526004016107c890613090565b8051610ebe9060d6906020840190612675565b5050565b6000610ecd82611598565b600083815260ca6020526040902060010154118015610ef35750610ef082611750565b42115b15610f0057506000610f04565b5060015b919050565b66470de4df82000081565b67016345785d8a000081565b6000610f2b83611709565b158015610f5e5750600083815260c9602090815260408083206001600160a01b038616845290915290206003015460ff16155b80156107ba575050600091825260c9602090815260408084206001600160a01b03939093168452919052902060020154151590565b606082828203811115610fa7578260600390505b60608167ffffffffffffffff81118015610fc057600080fd5b50604051908082528060200260200182016040528015610ffa57816020015b610fe76126f3565b815260200190600190039081610fdf5790505b50905060005b828110156110805760ca60008683018152602001908152602001600020604051806060016040529081600082015481526020016001820154815260200160028201548152505082828151811061105257fe5b602002602001018190525084810182828151811061106c57fe5b602090810291909101015152600101611000565b50949350505050565b611091612714565b50600082815260c9602090815260408083206001600160a01b038086168552908352928190208151608081018352815481526001820154909416928401929092526002820154908301526003015460ff161515606082015292915050565b600054610100900460ff1680611108575061110861208c565b80611116575060005460ff16155b6111325760405162461bcd60e51b81526004016107c890612f37565b600054610100900460ff1615801561115d576000805460ff1961ff0019909116610100171660011790555b61116561209d565b61116d612130565b6111756121a6565b4260cd81905565065dd083700060cf5566020af59ebef00060d05560d15561038460d25560d480546001600160a01b038086166001600160a01b03199283161790925560d3805492851692909116919091179055600a60ce5561708060d55560408051808201909152600b8082526a44454641554c545f4d534760a81b60209092019182526112069160d691612675565b508015611219576000805461ff00191690555b505050565b611226612088565b6001600160a01b0316611237611635565b6001600160a01b03161461125d5760405162461bcd60e51b81526004016107c890613090565b42811161126957600080fd5b60cd55565b60975460ff165b90565b32331461128457600080fd5b61128c61126e565b156112a95760405162461bcd60e51b81526004016107c890612e81565b6112b63330848487612224565b6112d25760405162461bcd60e51b81526004016107c890613122565b600184101580156112e4575060608411155b6113005760405162461bcd60e51b81526004016107c890612d97565b61130984610ec2565b6113255760405162461bcd60e51b81526004016107c8906130fc565b600084815260c9602090815260408083203384529091529020600201541561135f5760405162461bcd60e51b81526004016107c890612dbc565b66470de4df8200003410156113865760405162461bcd60e51b81526004016107c89061302b565b8367016345785d8a0000023411156113b05760405162461bcd60e51b81526004016107c890612eab565b6113b9846122ba565b600084815260c9602090815260408083203380855290835281842088855260cb8452828520805482553460028301819055600180840180546001600160a01b0319908116871790915560cc885286892093548952928752858820805490931690941790915589865260ca909452919093209283015491929091611442908463ffffffff61206316565b60018201556040517fd68606c673aecac7ce24ec44fd7d77b401356dfd76fe9b36cb58e579c4220aed9061147b9089903490339061319c565b60405180910390a150505050505050565b611494612088565b6001600160a01b03166114a5611635565b6001600160a01b0316146114cb5760405162461bcd60e51b81526004016107c890613090565b6033546040516000916001600160a01b0316907f8be0079c531659141344cd1fd0a4f28419497f9722a3daafe3b4186f6b6457e0908390a3603380546001600160a01b0319169055565b61151d612088565b6001600160a01b031661152e611635565b6001600160a01b0316146115545760405162461bcd60e51b81526004016107c890613090565b6000811161156157600080fd5b60cf55565b61708081565b600081815260cb602090815260408083205460ca9092528220600101546107bd9163ffffffff611ccb16565b60006107bd670de0b6b3a76400006109346115b2856119dd565b692d7d32dda00da88000009063ffffffff611cfd16565b600090815260cb602052604090205490565b600060cd5442116115fe5760405162461bcd60e51b81526004016107c890612cf5565b611623606461093460646107ae60d55461093460cd5442611def90919063ffffffff16565b905090565b67016345785d8a00000290565b6033546001600160a01b031690565b61164c612088565b6001600160a01b031661165d611635565b6001600160a01b0316146116835760405162461bcd60e51b81526004016107c890613090565b6000811161169057600080fd5b60d055565b61169d6126f3565b50600090815260ca6020908152604091829020825160608101845281548152600182015492810192909252600201549181019190915290565b600082826040516020016116eb929190612a8a565b60405160208183030381529060405280519060200120905092915050565b60008061173361172460d55485611cfd90919063ffffffff16565b60cd549063ffffffff61206316565b905080421115611747576000915050610f04565b42900392915050565b60006107bd61172460d55484611cfd90919063ffffffff16565b606081565b600091825260cc602090815260408084209284529190529020546001600160a01b031690565b60d4546001600160a01b031681565b6117ac612088565b6001600160a01b03166117bd611635565b6001600160a01b0316146117e35760405162461bcd60e51b81526004016107c890613090565b6000336001600160a01b0316476040516117fc90611275565b60006040518083038185875af1925050503d8060008114611839576040519150601f19603f3d011682016040523d82523d6000602084013e61183e565b606091505b505090508061185f5760405162461bcd60e51b81526004016107c890613060565b60d3546001600160a01b031663a9059cbb611878611635565b60d3546040516370a0823160e01b81526001600160a01b03909116906370a08231906118a8903090600401612b7f565b60206040518083038186803b1580156118c057600080fd5b505afa1580156118d4573d6000803e3d6000fd5b505050506040513d601f19601f820116820180604052508101906118f89190612911565b6040518363ffffffff1660e01b8152600401611915929190612bad565b602060405180830381600087803b15801561192f57600080fd5b505af1158015611943573d6000803e3d6000fd5b505050506040513d601f19601f82011682018060405250810190610ebe919061289e565b600081815260ca60205260408120600201546107bd90692d7d32dda00da88000009063ffffffff611def16565b61199c612088565b6001600160a01b03166119ad611635565b6001600160a01b0316146119d35760405162461bcd60e51b81526004016107c890613090565b60ce55565b600181565b600060018214156119f1575060cf54610f04565b6119fd600183036119dd565b611a27611a126060600163ffffffff611def16565b60cf5460d0546109349163ffffffff611def16565b0192915050565b60d55481565b600083815260cb60205260409020546060908290611a86576040805160008082526020820190925290611a7d565b611a6a612714565b815260200190600190039081611a625790505b50915050611bb0565b600085815260cb6020526040902054849003811115611ab65750600084815260cb60205260409020548390036001015b60608167ffffffffffffffff81118015611acf57600080fd5b50604051908082528060200260200182016040528015611b0957816020015b611af6612714565b815260200190600190039081611aee5790505b50905060005b82811015611bab57600087815260cc6020908152604080832089850184528252808320548a845260c983528184206001600160a01b039182168086529084529382902082516080810184528154815260018201549092169382019390935260028301549181019190915260039091015460ff16151560608201528351849084908110611b9757fe5b602090810291909101015250600101611b0f565b509150505b9392505050565b611bbf612088565b6001600160a01b0316611bd0611635565b6001600160a01b031614611bf65760405162461bcd60e51b81526004016107c890613090565b6001600160a01b038116611c1c5760405162461bcd60e51b81526004016107c890612d1a565b6033546040516001600160a01b038084169216907f8be0079c531659141344cd1fd0a4f28419497f9722a3daafe3b4186f6b6457e090600090a3603380546001600160a01b0319166001600160a01b0392909216919091179055565b611c80612088565b6001600160a01b0316611c91611635565b6001600160a01b031614611cb75760405162461bcd60e51b81526004016107c890613090565b60d555565b60d3546001600160a01b031681565b6000808211611cec5760405162461bcd60e51b81526004016107c890612e1a565b818381611cf557fe5b049392505050565b600082611d0c575060006107bd565b82820282848281611d1957fe5b04146107ba5760405162461bcd60e51b81526004016107c890612fea565b600080434233604051602001611d4d9190612a6d565b6040516020818303038152906040528051906020012060001c81611d6d57fe5b04454241604051602001611d819190612a6d565b6040516020818303038152906040528051906020012060001c81611da157fe5b0444420101010101604051602001611db99190612b76565b60408051601f198184030181529190528051602090910120905083611de68282860363ffffffff6122ec16565b01949350505050565b600082821115611e115760405162461bcd60e51b81526004016107c890612de3565b50900390565b6000826001600160a01b031682604051611e3090611275565b60006040518083038185875af1925050503d8060008114611e6d576040519150601f19603f3d011682016040523d82523d6000602084013e611e72565b606091505b50509050806112195760405162461bcd60e51b81526004016107c890612f85565b60d35460d454604051636eb1769f60e11b81526001600160a01b039283169263dd62ed3e92611eca92309290911690600401612b93565b60206040518083038186803b158015611ee257600080fd5b505afa158015611ef6573d6000803e3d6000fd5b505050506040513d601f19601f82011682018060405250810190611f1a9190612911565b611faa5760d35460d45460405163095ea7b360e01b81526001600160a01b039283169263095ea7b392611f569291169060001990600401612bad565b602060405180830381600087803b158015611f7057600080fd5b505af1158015611f84573d6000803e3d6000fd5b505050506040513d601f19601f82011682018060405250810190611fa8919061289e565b505b60d25460d154611fc190429063ffffffff611def16565b1115612061574260d1556000611fde47600a63ffffffff611ccb16565b60d45460d354604051631b72ffbd60e21b815292935073__Utils_________________________________92636dcbfef49261202f926001600160a01b039182169291169030908790600401612bc6565b60006040518083038186803b15801561204757600080fd5b505af415801561205b573d6000803e3d6000fd5b50505050505b565b6000828201838110156107ba5760405162461bcd60e51b81526004016107c890612d60565b3390565b60006120973061231e565b15905090565b600054610100900460ff16806120b657506120b661208c565b806120c4575060005460ff16155b6120e05760405162461bcd60e51b81526004016107c890612f37565b600054610100900460ff1615801561210b576000805460ff1961ff0019909116610100171660011790555b612113612324565b61211b6123a5565b801561212d576000805461ff00191690555b50565b600054610100900460ff1680612149575061214961208c565b80612157575060005460ff16155b6121735760405162461bcd60e51b81526004016107c890612f37565b600054610100900460ff1615801561219e576000805460ff1961ff0019909116610100171660011790555b61211b61247f565b600054610100900460ff16806121bf57506121bf61208c565b806121cd575060005460ff16155b6121e95760405162461bcd60e51b81526004016107c890612f37565b600054610100900460ff16158015612214576000805460ff1961ff0019909116610100171660011790555b61221c612324565b61211b612506565b600080612253868660d660405160200161223f929190612ac2565b6040516020818303038152906040526116d6565b9050600061226187866116d6565b90508082146122825760405162461bcd60e51b81526004016107c890612e51565b600061228d82612592565b9050886001600160a01b03166122a382876125c2565b6001600160a01b0316149998505050505050505050565b600081815260cb60205260409020546122da90600163ffffffff61206316565b600091825260cb602052604090912055565b600080821161230d5760405162461bcd60e51b81526004016107c890612f00565b81838161231657fe5b069392505050565b3b151590565b600054610100900460ff168061233d575061233d61208c565b8061234b575060005460ff16155b6123675760405162461bcd60e51b81526004016107c890612f37565b600054610100900460ff1615801561211b576000805460ff1961ff001990911661010017166001179055801561212d576000805461ff001916905550565b600054610100900460ff16806123be57506123be61208c565b806123cc575060005460ff16155b6123e85760405162461bcd60e51b81526004016107c890612f37565b600054610100900460ff16158015612413576000805460ff1961ff0019909116610100171660011790555b600061241d612088565b603380546001600160a01b0319166001600160a01b038316908117909155604051919250906000907f8be0079c531659141344cd1fd0a4f28419497f9722a3daafe3b4186f6b6457e0908290a350801561212d576000805461ff001916905550565b600054610100900460ff1680612498575061249861208c565b806124a6575060005460ff16155b6124c25760405162461bcd60e51b81526004016107c890612f37565b600054610100900460ff161580156124ed576000805460ff1961ff0019909116610100171660011790555b6001606555801561212d576000805461ff001916905550565b600054610100900460ff168061251f575061251f61208c565b8061252d575060005460ff16155b6125495760405162461bcd60e51b81526004016107c890612f37565b600054610100900460ff16158015612574576000805460ff1961ff0019909116610100171660011790555b6097805460ff19169055801561212d576000805461ff001916905550565b6000816040516020016125a59190612b45565b604051602081830303815290604052805190602001209050919050565b6000806000806125d185612631565b925092509250600186828585604051600081526020016040526040516125fa9493929190612cae565b6020604051602081039080840390855afa15801561261c573d6000803e3d6000fd5b5050604051601f190151979650505050505050565b600080600083516041146126575760405162461bcd60e51b81526004016107c8906130c5565b50505060208101516040820151606090920151909260009190911a90565b828054600181600116156101000203166002900490600052602060002090601f016020900481019282601f106126b657805160ff19168380011785556126e3565b828001600101855582156126e3579182015b828111156126e35782518255916020019190600101906126c8565b506126ef929150612747565b5090565b60405180606001604052806000815260200160008152602001600081525090565b60405180608001604052806000815260200160006001600160a01b03168152602001600081526020016000151581525090565b61127591905b808211156126ef576000815560010161274d565b80356001600160a01b03811681146107bd57600080fd5b600082601f830112612788578081fd5b813567ffffffffffffffff8082111561279f578283fd5b604051601f8301601f1916810160200182811182821017156127bf578485fd5b6040528281529250828483016020018610156127da57600080fd5b8260208601602083013760006020848301015250505092915050565b600060208284031215612807578081fd5b6107ba8383612761565b60008060408385031215612823578081fd5b61282d8484612761565b915061283c8460208501612761565b90509250929050565b60008060408385031215612857578182fd5b82356001600160a01b038116811461286d578283fd5b9150602083013567ffffffffffffffff811115612888578182fd5b61289485828601612778565b9150509250929050565b6000602082840312156128af578081fd5b815180151581146107ba578182fd5b6000602082840312156128cf578081fd5b813567ffffffffffffffff8111156128e5578182fd5b6128f184828501612778565b949350505050565b60006020828403121561290a578081fd5b5035919050565b600060208284031215612922578081fd5b5051919050565b6000806040838503121561293b578182fd5b8235915061283c8460208501612761565b60008060008060808587031215612961578182fd5b84359350602085013567ffffffffffffffff8082111561297f578384fd5b61298b88838901612778565b945060408701359150808211156129a0578384fd5b6129ac88838901612778565b935060608701359150808211156129c1578283fd5b506129ce87828801612778565b91505092959194509250565b600080604083850312156129ec578182fd5b50508035926020909101359150565b600080600060608486031215612a0f578283fd5b505081359360208301359350604090920135919050565b805182526020808201516001600160a01b031690830152604080820151908301526060908101511515910152565b8051825260208082015190830152604090810151910152565b60609190911b6bffffffffffffffffffffffff1916815260140190565b60006bffffffffffffffffffffffff198460601b1682528251612ab48160148501602087016131bb565b919091016014019392505050565b600083516020612ad582858389016131bb565b8454839285019060018082168015612af45760018114612b0b57612b37565b60ff198316845260028304607f1684019550612b37565b60028304898852858820885b82811015612b3057815487820152908401908701612b17565b5050840195505b509398975050505050505050565b7f19457468657265756d205369676e6564204d6573736167653a0a3332000000008152601c810191909152603c0190565b90815260200190565b6001600160a01b0391909116815260200190565b6001600160a01b0392831681529116602082015260400190565b6001600160a01b03929092168252602082015260400190565b6001600160a01b039485168152928416602084015292166040820152606081019190915260800190565b6001600160a01b0393841681526020810192909252909116604082015260600190565b6020808252825182820181905260009190848201906040850190845b81811015612c5557612c42838551612a26565b9284019260809290920191600101612c2f565b50909695505050505050565b6020808252825182820181905260009190848201906040850190845b81811015612c5557612c90838551612a54565b9284019260609290920191600101612c7d565b901515815260200190565b93845260ff9290921660208401526040830152606082015260800190565b6020808252600f908201526e43616e6e6f7420776974686472617760881b604082015260600190565b6020808252600b908201526a139bdd081cdd185c9d195960aa1b604082015260600190565b60208082526026908201527f4f776e61626c653a206e6577206f776e657220697320746865207a65726f206160408201526564647265737360d01b606082015260800190565b6020808252601b908201527f536166654d6174683a206164646974696f6e206f766572666c6f770000000000604082015260600190565b6020808252600b908201526a14d85b19481a5cc8195b9960aa1b604082015260600190565b6020808252600d908201526c4f6e6c7920627579206f6e636560981b604082015260600190565b6020808252601e908201527f536166654d6174683a207375627472616374696f6e206f766572666c6f770000604082015260600190565b6020808252601a908201527f536166654d6174683a206469766973696f6e206279207a65726f000000000000604082015260600190565b602080825260169082015275139bdd081cda59db9959081dda5d1a081cd958dc995d60521b604082015260600190565b60208082526010908201526f14185d5cd8589b194e881c185d5cd95960821b604082015260600190565b60208082526035908201527f4f6e6c79206465706f73697420424e4220736d616c6c6572207468616e20424160408201527414d157d3505617d0955657d4115497d5d053131155605a1b606082015260800190565b60208082526018908201527f536166654d6174683a206d6f64756c6f206279207a65726f0000000000000000604082015260600190565b6020808252602e908201527f496e697469616c697a61626c653a20636f6e747261637420697320616c72656160408201526d191e481a5b9a5d1a585b1a5e995960921b606082015260800190565b602080825260149082015273115c9c9bdc8e8810d85b9b9bdd081c99599d5b9960621b604082015260600190565b6020808252601d908201527f4e6f7420656e6f75676820746f6b656e20746f20776964746864726177000000604082015260600190565b60208082526021908201527f536166654d6174683a206d756c7469706c69636174696f6e206f766572666c6f6040820152607760f81b606082015260800190565b6020808252818101527f4465706f73697420424e422067726561746572207468616e204d494e5f425559604082015260600190565b6020808252601690820152754572726f723a2043616e6e6f7420776974686472617760501b604082015260600190565b6020808252818101527f4f776e61626c653a2063616c6c6572206973206e6f7420746865206f776e6572604082015260600190565b60208082526018908201527f696e76616c6964207369676e6174757265206c656e6774680000000000000000604082015260600190565b6020808252600c908201526b149bdd5b99081a5cc8195b9960a21b604082015260600190565b6020808252600d908201526c151e081b9bdd081cda59db9959609a1b604082015260600190565b6020808252601f908201527f5265656e7472616e637947756172643a207265656e7472616e742063616c6c00604082015260600190565b608081016107bd8284612a26565b606081016107bd8284612a54565b92835260208301919091526001600160a01b0316604082015260600190565b60005b838110156131d65781810151838201526020016131be565b838111156131e5576000848401525b5050505056fea26469706673582212204a4ae0b34d5a1a2f98dd1bb6f62d7c02c2a0c9976e8121a6dd8b2fe59584055964736f6c63430006080033",
  "immutableReferences": {},
  "source": "pragma solidity >=0.6.8;\npragma experimental ABIEncoderV2;\n\nimport \"@openzeppelin/contracts-upgradeable/access/OwnableUpgradeable.sol\";\nimport \"@openzeppelin/contracts-upgradeable/utils/ReentrancyGuardUpgradeable.sol\";\nimport \"@openzeppelin/contracts-upgradeable/utils/PausableUpgradeable.sol\";\nimport \"@openzeppelin/contracts-upgradeable/proxy/Initializable.sol\";\nimport \"@openzeppelin/contracts/token/ERC20/IERC20.sol\";\n\nimport \"./lib/Utils.sol\";\n\ncontract TokenDistribution is\n    Initializable,\n    OwnableUpgradeable,\n    ReentrancyGuardUpgradeable,\n    PausableUpgradeable\n{\n    using SafeMath for uint256;\n\n    struct Round {\n        uint256 round;\n        uint256 totalDeposit;\n        uint256 totalWithdraw;\n    }\n\n    struct Order {\n        uint256 id;\n        address account;\n        uint256 depositValue;\n        bool claimed;\n    }\n\n    /* ========== VARIABLES ========== */\n\n    uint256 public constant MIN_ROUND = 1;\n    uint256 public constant MAX_ROUND = 96;\n    uint256 public constant ROUND_TIME = 8 hours;\n    uint256 public constant MIN_BUY = 2 * 10**16; // 0.02 BNB\n    uint256 public constant BASE_MAX_BUY_PER_WALLET = 10**17; // 0.1 BNB\n    uint256 public constant AMOUNT_TOKEN_SALE_PER_ROUND = 214816 ether; // 214816 token\n\n    mapping(uint256 => mapping(address => Order)) private depositTable;\n    mapping(uint256 => Round) private rounds;\n    mapping(uint256 => uint256) private lastOrderIds;\n    mapping(uint256 => mapping(uint256 => address)) indexes;\n\n    uint256 public saleStartTime;\n    uint256 bonusRate;\n    uint256 private firstRoundPrice;\n    uint256 private lastRoundPrice;\n\n    uint256 private lastAddLiquidity;\n    uint256 private liquidityThreshold;\n\n    IERC20 public token;\n    IPancakeRouter02 public pancakeRouter;\n\n    uint256 public roundTime;\n    string private message;\n\n    /* ========== MODIFIERS ========== */\n\n    modifier onlyNonContract() {\n        require(tx.origin == msg.sender);\n        _;\n    }\n\n    /* ========== EVENTS ========== */\n\n    event Deposit(uint256 round, uint256 amount, address account);\n    event Withdraw(uint256 round, uint256 amount, address account);\n\n    /* ========== INITIALIZER ========== */\n\n    function initialize(address _pancakeRouter, address _token)\n        public\n        initializer\n    {\n        OwnableUpgradeable.__Ownable_init();\n        ReentrancyGuardUpgradeable.__ReentrancyGuard_init();\n        __Pausable_init();\n\n        saleStartTime = block.timestamp;\n        firstRoundPrice = 7 * 10**12; // 0.000007 BNB\n        lastRoundPrice = 575 * 10**12; // 0.000575 BNB\n        lastAddLiquidity = block.timestamp;\n        liquidityThreshold = 15 minutes;\n        pancakeRouter = IPancakeRouter02(_pancakeRouter);\n        token = IERC20(_token);\n        bonusRate = 10;\n        roundTime = 8 hours;\n        message = \"DEFAULT_MSG\";\n    }\n\n    /* ========== VIEWS ========== */\n\n    function currentRound() public view returns (uint256) {\n        require(block.timestamp > saleStartTime, \"Not started\");\n        return\n            (block.timestamp.sub(saleStartTime)).div(roundTime).mul(100).div(\n                100\n            );\n    }\n\n    function endRoundTime(uint256 round) public view returns (uint256) {\n        return saleStartTime.add(round.mul(roundTime));\n    }\n\n    function withdrawTimeLeft(uint256 round) public view returns (uint256) {\n        uint256 withdrawTime = saleStartTime.add(round.mul(roundTime));\n        if (block.timestamp > withdrawTime) {\n            return 0;\n        }\n        return withdrawTime - block.timestamp;\n    }\n\n    function canWithdraw(uint256 round, address account)\n        public\n        view\n        returns (bool)\n    {\n        return\n            withdrawTimeLeft(round) == 0 &&\n            !depositTable[round][account].claimed &&\n            depositTable[round][account].depositValue > 0;\n    }\n\n    function getTokenAmountLeftInRound(uint256 round)\n        public\n        view\n        returns (uint256)\n    {\n        return AMOUNT_TOKEN_SALE_PER_ROUND.sub(rounds[round].totalWithdraw);\n    }\n\n    function canDeposit(uint256 round) public view returns (bool) {\n        // Max vol BNB and default round time are reached\n        if (\n            rounds[round].totalDeposit > maxVolumeInRound(round) &&\n            block.timestamp > endRoundTime(round)\n        ) {\n            return false;\n        }\n        return true;\n    }\n\n    function getOrderByRound(\n        uint256 round,\n        uint256 cursor,\n        uint256 size\n    ) public view returns (Order[] memory) {\n        uint256 length = size;\n        if (lastOrderIds[round] == 0) {\n            return new Order[](0);\n        }\n        if (length > lastOrderIds[round] - cursor) {\n            length = lastOrderIds[round] - cursor + 1; // First element is empty\n        }\n        Order[] memory values = new Order[](length);\n        for (uint256 i = 0; i < length; i++) {\n            address addressByIndex = indexes[round][cursor + i];\n            values[i] = depositTable[round][addressByIndex];\n        }\n        return values;\n    }\n\n    function getLastedOrderIdByRound(uint256 round)\n        public\n        view\n        returns (uint256)\n    {\n        return lastOrderIds[round];\n    }\n\n    function getAddressIndexes(uint256 round, uint256 index)\n        public\n        view\n        returns (address)\n    {\n        return indexes[round][index];\n    }\n\n    function getOrderDetail(uint256 round, address account)\n        public\n        view\n        returns (Order memory)\n    {\n        return depositTable[round][account];\n    }\n\n    function getRound(uint256 round) public view returns (Round memory) {\n        return rounds[round];\n    }\n\n    function getMaxDepositByRound(uint256 round) public pure returns (uint256) {\n        return BASE_MAX_BUY_PER_WALLET * round;\n    }\n\n    function getRounds(uint256 size, uint256 cursor)\n        public\n        view\n        returns (Round[] memory)\n    {\n        uint256 length = size;\n        if (length > MAX_ROUND - cursor) {\n            length = MAX_ROUND - cursor;\n        }\n\n        Round[] memory values = new Round[](length);\n        for (uint256 i = 0; i < length; i++) {\n            values[i] = rounds[i + cursor];\n            values[i].round = i + cursor;\n        }\n        return values;\n    }\n\n    function getClaimAt(uint256 round) public view returns (uint256) {\n        return saleStartTime.add(round.mul(roundTime));\n    }\n\n    function getBuyableBnb(uint256 round) public view returns (uint256) {\n        return rounds[round].totalDeposit.div(lastOrderIds[round]);\n    }\n\n    /* ========== MUTATIVES FUNCTIONS ========== */\n\n    function deposit(\n        uint256 round,\n        bytes memory _signature,\n        string memory _message,\n        string memory _messageWS\n    ) public payable onlyNonContract whenNotPaused {\n        require(\n            verify(msg.sender, address(this), _message, _messageWS, _signature),\n            \"Tx not signed\"\n        );\n        require(round >= MIN_ROUND && round <= MAX_ROUND, \"Sale is end\");\n        require(canDeposit(round), \"Round is end\");\n        require(\n            depositTable[round][msg.sender].depositValue == 0,\n            \"Only buy once\"\n        );\n        require(msg.value >= MIN_BUY, \"Deposit BNB greater than MIN_BUY\");\n        require(\n            msg.value <= BASE_MAX_BUY_PER_WALLET * round,\n            \"Only deposit BNB smaller than BASE_MAX_BUY_PER_WALLET\"\n        );\n        // Increase order id\n        increaseLastOrderIdByRound(round);\n\n        uint256 amount = msg.value;\n        Order storage order = depositTable[round][msg.sender];\n        order.id = lastOrderIds[round];\n        order.depositValue = amount;\n        order.account = msg.sender;\n\n        // Set lasted index\n        indexes[round][lastOrderIds[round]] = msg.sender;\n\n        Round storage roundInfo = rounds[round];\n        roundInfo.totalDeposit = roundInfo.totalDeposit.add(msg.value);\n\n        emit Deposit(round, msg.value, msg.sender);\n    }\n\n    function withdraw(uint256 round)\n        public\n        onlyNonContract\n        whenNotPaused\n        nonReentrant\n    {\n        require(canWithdraw(round, msg.sender), \"Cannot withdraw\");\n        uint256 withdrawTokenAmount = 0;\n        if (rounds[round].totalDeposit <= maxVolumeInRound(round)) {\n            withdrawTokenAmount = calculateExactTokenAmount(\n                round,\n                depositTable[round][msg.sender].depositValue\n            );\n        } else {\n            uint256 buyableBnb = getBuyableBnb(round);\n            if (depositTable[round][msg.sender].depositValue > buyableBnb) {\n                withdrawTokenAmount = calculateExactTokenAmount(\n                    round,\n                    buyableBnb\n                );\n                refund(\n                    msg.sender,\n                    depositTable[round][msg.sender].depositValue.sub(buyableBnb)\n                );\n            } else {\n                withdrawTokenAmount = calculateExactTokenAmount(\n                    round,\n                    depositTable[round][msg.sender].depositValue\n                );\n            }\n        }\n\n        require(\n            getTokenAmountLeftInRound(round) >= withdrawTokenAmount,\n            \"Not enough token to widthdraw\"\n        );\n\n        addLiquidityWithThreshhold();\n\n        Order storage order = depositTable[round][msg.sender];\n        order.claimed = true;\n\n        Round storage roundInfo = rounds[round];\n        roundInfo.totalWithdraw = roundInfo.totalWithdraw.add(\n            withdrawTokenAmount\n        );\n\n        token.transfer(msg.sender, withdrawTokenAmount);\n\n        emit Withdraw(round, withdrawTokenAmount, msg.sender);\n    }\n\n    function refund(address account, uint256 amount) private {\n        (bool sent, ) = (account).call{value: amount}(\"\");\n        require(sent, \"Error: Cannot refund\");\n    }\n\n    function increaseLastOrderIdByRound(uint256 round) internal {\n        lastOrderIds[round] = lastOrderIds[round].add(1);\n    }\n\n    function setSaleStartTime(uint256 startTime) public onlyOwner {\n        require(startTime > block.timestamp);\n        saleStartTime = startTime;\n    }\n\n    function setFirstRoundPrice(uint256 price) public onlyOwner {\n        require(price > 0);\n        firstRoundPrice = price;\n    }\n\n    function setLastRoundPrice(uint256 price) public onlyOwner {\n        require(price > 0);\n        lastRoundPrice = price;\n    }\n\n    function setBonusRate(uint256 _bonusRate) public onlyOwner {\n        bonusRate = _bonusRate;\n    }\n\n    function setRoundTime(uint256 _time) public onlyOwner {\n        roundTime = _time;\n    }\n\n    function setMessage(string memory _message) public onlyOwner {\n        message = _message;\n    }\n\n    function distributeTokens(address _token, address ref) public payable {\n        require(msg.value >= 0, \"Error: empty tax is not allowed\");\n\n        IERC20 tokenInstance = IERC20(_token);\n        uint256 currentBalance = tokenInstance.balanceOf(address(this));\n\n        uint256 amountTokens = Utils.getReturnAmount(\n            address(pancakeRouter),\n            msg.value,\n            _token\n        );\n\n        uint256 thresholdAmount = 50 ether;\n        // XBN use the same decimal with ether\n\n        // avoid cheating\n        if (amountTokens > thresholdAmount) amountTokens = thresholdAmount;\n\n        uint256 r = random(1, 5);\n        uint256 bonus = amountTokens.mul(bonusRate + r).div(100);\n        uint256 refBonus = amountTokens.mul(r).div(100);\n\n        if (currentBalance >= (amountTokens + bonus + refBonus)) {\n            tokenInstance.transfer(msg.sender, amountTokens + bonus);\n            if (ref != address(0)) {\n                tokenInstance.transfer(ref, refBonus);\n            }\n        } else {\n            tokenInstance.transfer(msg.sender, currentBalance);\n            uint256 bnbAmount = address(this).balance.div(3).mul(2);\n            Utils.swapBNBForToken(\n                address(pancakeRouter),\n                address(token),\n                address(this),\n                bnbAmount\n            );\n        }\n    }\n\n    function emergencyWithdraw() public onlyOwner {\n        (bool sent, ) = (address(msg.sender)).call{\n            value: address(this).balance\n        }(\"\");\n        require(sent, \"Error: Cannot withdraw\");\n        token.transfer(owner(), token.balanceOf(address(this)));\n    }\n\n    /* ========== INTERNAL ========== */\n\n    function initialPriceInRound(uint256 round) public view returns (uint256) {\n        if (round == MIN_ROUND) {\n            return firstRoundPrice;\n        }\n        return\n            lastRoundPrice.sub(firstRoundPrice).div(MAX_ROUND.sub(MIN_ROUND)) +\n            initialPriceInRound(round - 1);\n    }\n\n    function maxVolumeInRound(uint256 round) public view returns (uint256) {\n        return\n            AMOUNT_TOKEN_SALE_PER_ROUND.mul(initialPriceInRound(round)).div(\n                10**18\n            );\n    }\n\n    function calculateExactTokenAmount(uint256 round, uint256 amountBnb)\n        public\n        view\n        returns (uint256)\n    {\n        return amountBnb.div(initialPriceInRound(round)).mul(10**18);\n    }\n\n    function addLiquidityWithThreshhold() internal {\n        if (token.allowance(address(this), address(pancakeRouter)) == 0) {\n            token.approve(address(pancakeRouter), ~uint256(0));\n        }\n        if (block.timestamp.sub(lastAddLiquidity) > liquidityThreshold) {\n            lastAddLiquidity = block.timestamp;\n            uint256 swapAmount = address(this).balance.div(10); // Add 10% balance\n            Utils.addLiquidityForTokens(\n                address(pancakeRouter),\n                address(token),\n                address(this),\n                swapAmount\n            );\n        }\n    }\n\n    function random(uint256 from, uint256 to) private view returns (uint256) {\n        uint256 seed = uint256(\n            keccak256(\n                abi.encodePacked(\n                    block.timestamp +\n                        block.difficulty +\n                        ((\n                            uint256(keccak256(abi.encodePacked(block.coinbase)))\n                        ) / (block.timestamp)) +\n                        block.gaslimit +\n                        ((uint256(keccak256(abi.encodePacked(msg.sender)))) /\n                            (block.timestamp)) +\n                        block.number\n                )\n            )\n        );\n        return seed.mod(to - from) + from;\n    }\n\n    fallback() external payable {\n        // React to receiving ether, to avoid bug\n    }\n\n    receive() external payable {\n        // custom function code\n    }\n\n    /* ========== VERIFY SIGNATURE ========== */\n\n    function getMessageHash(address _to, string memory _message)\n        public\n        pure\n        returns (bytes32)\n    {\n        return keccak256(abi.encodePacked(_to, _message));\n    }\n\n    function getEthSignedMessageHash(bytes32 _messageHash)\n        private\n        pure\n        returns (bytes32)\n    {\n        /*\n        Signature is produced by signing a keccak256 hash with the following format:\n        \"\\x19Ethereum Signed Message\\n\" + len(msg) + msg\n        */\n        return\n            keccak256(\n                abi.encodePacked(\n                    \"\\x19Ethereum Signed Message:\\n32\",\n                    _messageHash\n                )\n            );\n    }\n\n    function verify(\n        address _signer,\n        address _to,\n        string memory _message,\n        string memory _messageWithSecret,\n        bytes memory signature\n    ) private view returns (bool) {\n        bytes32 messageHash = getMessageHash(\n            _to,\n            string(abi.encodePacked(_message, message))\n        );\n        bytes32 messageWSHash = getMessageHash(_to, _messageWithSecret);\n        require(messageHash == messageWSHash, \"Not signed with secret\");\n        bytes32 ethSignedMessageHash = getEthSignedMessageHash(messageWSHash);\n\n        return recoverSigner(ethSignedMessageHash, signature) == _signer;\n    }\n\n    function recoverSigner(\n        bytes32 _ethSignedMessageHash,\n        bytes memory _signature\n    ) private pure returns (address) {\n        (bytes32 r, bytes32 s, uint8 v) = splitSignature(_signature);\n\n        return ecrecover(_ethSignedMessageHash, v, r, s);\n    }\n\n    function splitSignature(bytes memory sig)\n        private\n        pure\n        returns (\n            bytes32 r,\n            bytes32 s,\n            uint8 v\n        )\n    {\n        require(sig.length == 65, \"invalid signature length\");\n\n        assembly {\n            /*\n            First 32 bytes stores the length of the signature\n\n            add(sig, 32) = pointer of sig + 32\n            effectively, skips first 32 bytes of signature\n\n            mload(p) loads next 32 bytes starting at the memory address p into memory\n            */\n\n            // first 32 bytes, after the length prefix\n            r := mload(add(sig, 32))\n            // second 32 bytes\n            s := mload(add(sig, 64))\n            // final byte (first byte of the next 32 bytes)\n            v := byte(0, mload(add(sig, 96)))\n        }\n\n        // implicitly return (r, s, v)\n    }\n}\n",
  "sourcePath": "/Users/tamnguyen/Documents/project/xbn/xblade-token-distribution/contracts/TokenDistribution.sol",
  "compiler": {
    "name": "solc",
    "version": "0.6.8+commit.0bbfe453.Emscripten.clang"
  },
  "schemaVersion": "3.3.2",
  "updatedAt": "2021-10-05T15:57:05.454Z",
  "networkType": "ethereum",
  "devdoc": {
    "methods": {
      "owner()": {
        "details": "Returns the address of the current owner."
      },
      "paused()": {
        "details": "Returns true if the contract is paused, and false otherwise."
      },
      "renounceOwnership()": {
        "details": "Leaves the contract without owner. It will not be possible to call `onlyOwner` functions anymore. Can only be called by the current owner.     * NOTE: Renouncing ownership will leave the contract without an owner, thereby removing any functionality that is only available to the owner."
      },
      "transferOwnership(address)": {
        "details": "Transfers ownership of the contract to a new account (`newOwner`). Can only be called by the current owner."
      }
    }
  },
  "userdoc": {
    "methods": {}
  }
}