{
  "contractName": "TokenDistribution",
  "abi": [
    {
      "anonymous": false,
      "inputs": [
        {
          "indexed": false,
          "internalType": "uint256",
          "name": "round",
          "type": "uint256"
        },
        {
          "indexed": false,
          "internalType": "uint256",
          "name": "amount",
          "type": "uint256"
        },
        {
          "indexed": false,
          "internalType": "address",
          "name": "account",
          "type": "address"
        }
      ],
      "name": "Deposit",
      "type": "event"
    },
    {
      "anonymous": false,
      "inputs": [
        {
          "indexed": true,
          "internalType": "address",
          "name": "previousOwner",
          "type": "address"
        },
        {
          "indexed": true,
          "internalType": "address",
          "name": "newOwner",
          "type": "address"
        }
      ],
      "name": "OwnershipTransferred",
      "type": "event"
    },
    {
      "anonymous": false,
      "inputs": [
        {
          "indexed": false,
          "internalType": "address",
          "name": "account",
          "type": "address"
        }
      ],
      "name": "Paused",
      "type": "event"
    },
    {
      "anonymous": false,
      "inputs": [
        {
          "indexed": false,
          "internalType": "address",
          "name": "account",
          "type": "address"
        }
      ],
      "name": "Unpaused",
      "type": "event"
    },
    {
      "anonymous": false,
      "inputs": [
        {
          "indexed": false,
          "internalType": "uint256",
          "name": "round",
          "type": "uint256"
        },
        {
          "indexed": false,
          "internalType": "uint256",
          "name": "amount",
          "type": "uint256"
        },
        {
          "indexed": false,
          "internalType": "address",
          "name": "account",
          "type": "address"
        }
      ],
      "name": "Withdraw",
      "type": "event"
    },
    {
      "stateMutability": "payable",
      "type": "fallback"
    },
    {
      "inputs": [],
      "name": "AMOUNT_TOKEN_SALE_PER_ROUND",
      "outputs": [
        {
          "internalType": "uint256",
          "name": "",
          "type": "uint256"
        }
      ],
      "stateMutability": "view",
      "type": "function"
    },
    {
      "inputs": [],
      "name": "BASE_MAX_BUY_PER_WALLET",
      "outputs": [
        {
          "internalType": "uint256",
          "name": "",
          "type": "uint256"
        }
      ],
      "stateMutability": "view",
      "type": "function"
    },
    {
      "inputs": [],
      "name": "MAX_ROUND",
      "outputs": [
        {
          "internalType": "uint256",
          "name": "",
          "type": "uint256"
        }
      ],
      "stateMutability": "view",
      "type": "function"
    },
    {
      "inputs": [],
      "name": "MIN_BUY",
      "outputs": [
        {
          "internalType": "uint256",
          "name": "",
          "type": "uint256"
        }
      ],
      "stateMutability": "view",
      "type": "function"
    },
    {
      "inputs": [],
      "name": "MIN_ROUND",
      "outputs": [
        {
          "internalType": "uint256",
          "name": "",
          "type": "uint256"
        }
      ],
      "stateMutability": "view",
      "type": "function"
    },
    {
      "inputs": [],
      "name": "ROUND_TIME",
      "outputs": [
        {
          "internalType": "uint256",
          "name": "",
          "type": "uint256"
        }
      ],
      "stateMutability": "view",
      "type": "function"
    },
    {
      "inputs": [],
      "name": "owner",
      "outputs": [
        {
          "internalType": "address",
          "name": "",
          "type": "address"
        }
      ],
      "stateMutability": "view",
      "type": "function"
    },
    {
      "inputs": [],
      "name": "pancakeRouter",
      "outputs": [
        {
          "internalType": "contract IPancakeRouter02",
          "name": "",
          "type": "address"
        }
      ],
      "stateMutability": "view",
      "type": "function"
    },
    {
      "inputs": [],
      "name": "pancakeRouter1",
      "outputs": [
        {
          "internalType": "contract IPancakeRouter02",
          "name": "",
          "type": "address"
        }
      ],
      "stateMutability": "view",
      "type": "function"
    },
    {
      "inputs": [],
      "name": "pancakeRouter2",
      "outputs": [
        {
          "internalType": "contract IPancakeRouter02",
          "name": "",
          "type": "address"
        }
      ],
      "stateMutability": "view",
      "type": "function"
    },
    {
      "inputs": [],
      "name": "paused",
      "outputs": [
        {
          "internalType": "bool",
          "name": "",
          "type": "bool"
        }
      ],
      "stateMutability": "view",
      "type": "function"
    },
    {
      "inputs": [],
      "name": "renounceOwnership",
      "outputs": [],
      "stateMutability": "nonpayable",
      "type": "function"
    },
    {
      "inputs": [],
      "name": "roundTime",
      "outputs": [
        {
          "internalType": "uint256",
          "name": "",
          "type": "uint256"
        }
      ],
      "stateMutability": "view",
      "type": "function"
    },
    {
      "inputs": [],
      "name": "saleStartTime",
      "outputs": [
        {
          "internalType": "uint256",
          "name": "",
          "type": "uint256"
        }
      ],
      "stateMutability": "view",
      "type": "function"
    },
    {
      "inputs": [],
      "name": "token",
      "outputs": [
        {
          "internalType": "contract IERC20",
          "name": "",
          "type": "address"
        }
      ],
      "stateMutability": "view",
      "type": "function"
    },
    {
      "inputs": [
        {
          "internalType": "address",
          "name": "newOwner",
          "type": "address"
        }
      ],
      "name": "transferOwnership",
      "outputs": [],
      "stateMutability": "nonpayable",
      "type": "function"
    },
    {
      "stateMutability": "payable",
      "type": "receive"
    },
    {
      "inputs": [
        {
          "internalType": "address",
          "name": "_pancakeRouter",
          "type": "address"
        },
        {
          "internalType": "address",
          "name": "_token",
          "type": "address"
        }
      ],
      "name": "initialize",
      "outputs": [],
      "stateMutability": "nonpayable",
      "type": "function"
    },
    {
      "inputs": [
        {
          "internalType": "address",
          "name": "_pancakeRouter1",
          "type": "address"
        },
        {
          "internalType": "address",
          "name": "_pancakeRouter2",
          "type": "address"
        }
      ],
      "name": "setPancakeRouters",
      "outputs": [],
      "stateMutability": "nonpayable",
      "type": "function"
    },
    {
      "inputs": [
        {
          "internalType": "address",
          "name": "_token",
          "type": "address"
        }
      ],
      "name": "setToken",
      "outputs": [],
      "stateMutability": "nonpayable",
      "type": "function"
    },
    {
      "inputs": [],
      "name": "currentRound",
      "outputs": [
        {
          "internalType": "uint256",
          "name": "",
          "type": "uint256"
        }
      ],
      "stateMutability": "view",
      "type": "function"
    },
    {
      "inputs": [
        {
          "internalType": "uint256",
          "name": "round",
          "type": "uint256"
        }
      ],
      "name": "endRoundTime",
      "outputs": [
        {
          "internalType": "uint256",
          "name": "",
          "type": "uint256"
        }
      ],
      "stateMutability": "view",
      "type": "function"
    },
    {
      "inputs": [
        {
          "internalType": "uint256",
          "name": "round",
          "type": "uint256"
        }
      ],
      "name": "withdrawTimeLeft",
      "outputs": [
        {
          "internalType": "uint256",
          "name": "",
          "type": "uint256"
        }
      ],
      "stateMutability": "view",
      "type": "function"
    },
    {
      "inputs": [
        {
          "internalType": "uint256",
          "name": "round",
          "type": "uint256"
        },
        {
          "internalType": "address",
          "name": "account",
          "type": "address"
        }
      ],
      "name": "canWithdraw",
      "outputs": [
        {
          "internalType": "bool",
          "name": "",
          "type": "bool"
        }
      ],
      "stateMutability": "view",
      "type": "function"
    },
    {
      "inputs": [
        {
          "internalType": "uint256",
          "name": "round",
          "type": "uint256"
        }
      ],
      "name": "getAmountTokenSalePerRound",
      "outputs": [
        {
          "internalType": "uint256",
          "name": "",
          "type": "uint256"
        }
      ],
      "stateMutability": "pure",
      "type": "function"
    },
    {
      "inputs": [
        {
          "internalType": "uint256",
          "name": "round",
          "type": "uint256"
        }
      ],
      "name": "getTokenAmountLeftInRound",
      "outputs": [
        {
          "internalType": "uint256",
          "name": "",
          "type": "uint256"
        }
      ],
      "stateMutability": "view",
      "type": "function"
    },
    {
      "inputs": [
        {
          "internalType": "uint256",
          "name": "round",
          "type": "uint256"
        }
      ],
      "name": "canDeposit",
      "outputs": [
        {
          "internalType": "bool",
          "name": "",
          "type": "bool"
        }
      ],
      "stateMutability": "view",
      "type": "function"
    },
    {
      "inputs": [
        {
          "internalType": "uint256",
          "name": "round",
          "type": "uint256"
        },
        {
          "internalType": "uint256",
          "name": "cursor",
          "type": "uint256"
        },
        {
          "internalType": "uint256",
          "name": "size",
          "type": "uint256"
        }
      ],
      "name": "getOrderByRound",
      "outputs": [
        {
          "components": [
            {
              "internalType": "uint256",
              "name": "id",
              "type": "uint256"
            },
            {
              "internalType": "address",
              "name": "account",
              "type": "address"
            },
            {
              "internalType": "uint256",
              "name": "depositValue",
              "type": "uint256"
            },
            {
              "internalType": "bool",
              "name": "claimed",
              "type": "bool"
            }
          ],
          "internalType": "struct TokenDistribution.Order[]",
          "name": "",
          "type": "tuple[]"
        }
      ],
      "stateMutability": "view",
      "type": "function"
    },
    {
      "inputs": [
        {
          "internalType": "uint256",
          "name": "round",
          "type": "uint256"
        }
      ],
      "name": "getLastedOrderIdByRound",
      "outputs": [
        {
          "internalType": "uint256",
          "name": "",
          "type": "uint256"
        }
      ],
      "stateMutability": "view",
      "type": "function"
    },
    {
      "inputs": [
        {
          "internalType": "uint256",
          "name": "round",
          "type": "uint256"
        },
        {
          "internalType": "uint256",
          "name": "index",
          "type": "uint256"
        }
      ],
      "name": "getAddressIndexes",
      "outputs": [
        {
          "internalType": "address",
          "name": "",
          "type": "address"
        }
      ],
      "stateMutability": "view",
      "type": "function"
    },
    {
      "inputs": [
        {
          "internalType": "uint256",
          "name": "round",
          "type": "uint256"
        },
        {
          "internalType": "address",
          "name": "account",
          "type": "address"
        }
      ],
      "name": "getOrderDetail",
      "outputs": [
        {
          "components": [
            {
              "internalType": "uint256",
              "name": "id",
              "type": "uint256"
            },
            {
              "internalType": "address",
              "name": "account",
              "type": "address"
            },
            {
              "internalType": "uint256",
              "name": "depositValue",
              "type": "uint256"
            },
            {
              "internalType": "bool",
              "name": "claimed",
              "type": "bool"
            }
          ],
          "internalType": "struct TokenDistribution.Order",
          "name": "",
          "type": "tuple"
        }
      ],
      "stateMutability": "view",
      "type": "function"
    },
    {
      "inputs": [
        {
          "internalType": "uint256",
          "name": "round",
          "type": "uint256"
        }
      ],
      "name": "getRound",
      "outputs": [
        {
          "components": [
            {
              "internalType": "uint256",
              "name": "round",
              "type": "uint256"
            },
            {
              "internalType": "uint256",
              "name": "totalDeposit",
              "type": "uint256"
            },
            {
              "internalType": "uint256",
              "name": "totalWithdraw",
              "type": "uint256"
            }
          ],
          "internalType": "struct TokenDistribution.Round",
          "name": "",
          "type": "tuple"
        }
      ],
      "stateMutability": "view",
      "type": "function"
    },
    {
      "inputs": [
        {
          "internalType": "uint256",
          "name": "round",
          "type": "uint256"
        }
      ],
      "name": "getMaxDepositByRound",
      "outputs": [
        {
          "internalType": "uint256",
          "name": "",
          "type": "uint256"
        }
      ],
      "stateMutability": "pure",
      "type": "function"
    },
    {
      "inputs": [
        {
          "internalType": "uint256",
          "name": "size",
          "type": "uint256"
        },
        {
          "internalType": "uint256",
          "name": "cursor",
          "type": "uint256"
        }
      ],
      "name": "getRounds",
      "outputs": [
        {
          "components": [
            {
              "internalType": "uint256",
              "name": "round",
              "type": "uint256"
            },
            {
              "internalType": "uint256",
              "name": "totalDeposit",
              "type": "uint256"
            },
            {
              "internalType": "uint256",
              "name": "totalWithdraw",
              "type": "uint256"
            }
          ],
          "internalType": "struct TokenDistribution.Round[]",
          "name": "",
          "type": "tuple[]"
        }
      ],
      "stateMutability": "view",
      "type": "function"
    },
    {
      "inputs": [
        {
          "internalType": "uint256",
          "name": "round",
          "type": "uint256"
        }
      ],
      "name": "getClaimAt",
      "outputs": [
        {
          "internalType": "uint256",
          "name": "",
          "type": "uint256"
        }
      ],
      "stateMutability": "view",
      "type": "function"
    },
    {
      "inputs": [
        {
          "internalType": "uint256",
          "name": "round",
          "type": "uint256"
        }
      ],
      "name": "getBuyableBnb",
      "outputs": [
        {
          "internalType": "uint256",
          "name": "",
          "type": "uint256"
        }
      ],
      "stateMutability": "view",
      "type": "function"
    },
    {
      "inputs": [
        {
          "internalType": "uint256",
          "name": "round",
          "type": "uint256"
        },
        {
          "internalType": "bytes",
          "name": "_signature",
          "type": "bytes"
        },
        {
          "internalType": "string",
          "name": "_message",
          "type": "string"
        },
        {
          "internalType": "string",
          "name": "_messageWS",
          "type": "string"
        }
      ],
      "name": "deposit",
      "outputs": [],
      "stateMutability": "payable",
      "type": "function"
    },
    {
      "inputs": [
        {
          "internalType": "uint256",
          "name": "round",
          "type": "uint256"
        }
      ],
      "name": "withdraw",
      "outputs": [],
      "stateMutability": "nonpayable",
      "type": "function"
    },
    {
      "inputs": [
        {
          "internalType": "uint256",
          "name": "startTime",
          "type": "uint256"
        }
      ],
      "name": "setSaleStartTime",
      "outputs": [],
      "stateMutability": "nonpayable",
      "type": "function"
    },
    {
      "inputs": [
        {
          "internalType": "uint256",
          "name": "price",
          "type": "uint256"
        }
      ],
      "name": "setFirstRoundPrice",
      "outputs": [],
      "stateMutability": "nonpayable",
      "type": "function"
    },
    {
      "inputs": [
        {
          "internalType": "uint256",
          "name": "price",
          "type": "uint256"
        }
      ],
      "name": "setLastRoundPrice",
      "outputs": [],
      "stateMutability": "nonpayable",
      "type": "function"
    },
    {
      "inputs": [],
      "name": "getLastRoundPrice",
      "outputs": [
        {
          "internalType": "uint256",
          "name": "",
          "type": "uint256"
        }
      ],
      "stateMutability": "view",
      "type": "function"
    },
    {
      "inputs": [
        {
          "internalType": "uint256",
          "name": "_bonusRate",
          "type": "uint256"
        }
      ],
      "name": "setBonusRate",
      "outputs": [],
      "stateMutability": "nonpayable",
      "type": "function"
    },
    {
      "inputs": [
        {
          "internalType": "uint256",
          "name": "_time",
          "type": "uint256"
        }
      ],
      "name": "setRoundTime",
      "outputs": [],
      "stateMutability": "nonpayable",
      "type": "function"
    },
    {
      "inputs": [
        {
          "internalType": "string",
          "name": "_message",
          "type": "string"
        }
      ],
      "name": "setMessage",
      "outputs": [],
      "stateMutability": "nonpayable",
      "type": "function"
    },
    {
      "inputs": [],
      "name": "emergencyWithdraw",
      "outputs": [],
      "stateMutability": "nonpayable",
      "type": "function"
    },
    {
      "inputs": [
        {
          "internalType": "uint256",
          "name": "round",
          "type": "uint256"
        }
      ],
      "name": "initialPriceInRound",
      "outputs": [
        {
          "internalType": "uint256",
          "name": "",
          "type": "uint256"
        }
      ],
      "stateMutability": "view",
      "type": "function"
    },
    {
      "inputs": [
        {
          "internalType": "uint256",
          "name": "round",
          "type": "uint256"
        }
      ],
      "name": "oldInitialPriceInRound",
      "outputs": [
        {
          "internalType": "uint256",
          "name": "",
          "type": "uint256"
        }
      ],
      "stateMutability": "view",
      "type": "function"
    },
    {
      "inputs": [
        {
          "internalType": "uint256",
          "name": "round",
          "type": "uint256"
        }
      ],
      "name": "maxVolumeInRound",
      "outputs": [
        {
          "internalType": "uint256",
          "name": "",
          "type": "uint256"
        }
      ],
      "stateMutability": "view",
      "type": "function"
    },
    {
      "inputs": [
        {
          "internalType": "uint256",
          "name": "round",
          "type": "uint256"
        },
        {
          "internalType": "uint256",
          "name": "amountBnb",
          "type": "uint256"
        }
      ],
      "name": "calculateExactTokenAmount",
      "outputs": [
        {
          "internalType": "uint256",
          "name": "",
          "type": "uint256"
        }
      ],
      "stateMutability": "view",
      "type": "function"
    },
    {
      "inputs": [
        {
          "internalType": "address",
          "name": "_to",
          "type": "address"
        },
        {
          "internalType": "string",
          "name": "_message",
          "type": "string"
        }
      ],
      "name": "getMessageHash",
      "outputs": [
        {
          "internalType": "bytes32",
          "name": "",
          "type": "bytes32"
        }
      ],
      "stateMutability": "pure",
      "type": "function"
    },
    {
      "inputs": [
        {
          "internalType": "uint256",
          "name": "tokenAmount",
          "type": "uint256"
        }
      ],
      "name": "swapTokensForEth",
      "outputs": [],
      "stateMutability": "nonpayable",
      "type": "function"
    },
    {
      "inputs": [
        {
          "internalType": "address",
          "name": "tokenAddress",
          "type": "address"
        },
        {
          "internalType": "address",
          "name": "recipient",
          "type": "address"
        },
        {
          "internalType": "uint256",
          "name": "bnbAmount",
          "type": "uint256"
        }
      ],
      "name": "swapBNBForToken",
      "outputs": [],
      "stateMutability": "nonpayable",
      "type": "function"
    },
    {
      "inputs": [
        {
          "internalType": "address",
          "name": "recipient",
          "type": "address"
        },
        {
          "internalType": "uint256",
          "name": "ethAmount",
          "type": "uint256"
        }
      ],
      "name": "swapETHForTokens",
      "outputs": [],
      "stateMutability": "nonpayable",
      "type": "function"
    },
    {
      "inputs": [
        {
          "internalType": "address",
          "name": "_tokenAddress",
          "type": "address"
        },
        {
          "internalType": "address",
          "name": "_to",
          "type": "address"
        },
        {
          "internalType": "uint256",
          "name": "_bnbAmount",
          "type": "uint256"
        }
      ],
      "name": "addLiquidityForTokens",
      "outputs": [],
      "stateMutability": "nonpayable",
      "type": "function"
    },
    {
      "inputs": [
        {
          "internalType": "address",
          "name": "owner",
          "type": "address"
        },
        {
          "internalType": "uint256",
          "name": "tokenAmount",
          "type": "uint256"
        },
        {
          "internalType": "uint256",
          "name": "ethAmount",
          "type": "uint256"
        }
      ],
      "name": "addLiquidity",
      "outputs": [],
      "stateMutability": "nonpayable",
      "type": "function"
    },
    {
      "inputs": [
        {
          "internalType": "uint256",
          "name": "_amount",
          "type": "uint256"
        },
        {
          "internalType": "address",
          "name": "_token",
          "type": "address"
        }
      ],
      "name": "getReturnAmount",
      "outputs": [
        {
          "internalType": "uint256",
          "name": "",
          "type": "uint256"
        }
      ],
      "stateMutability": "view",
      "type": "function"
    }
  ],
  "bytecode": "0x608060405234801561001057600080fd5b50613bbd806100206000396000f3fe60806040526004361061036f5760003560e01c80638d59e4f0116101c6578063db2e21bc116100f7578063ee5f8c8f11610095578063f2fde38b1161006f578063f2fde38b14610974578063f57c70ec14610994578063fa65cb04146109b4578063fc0c546a146109d457610376565b8063ee5f8c8f1461091d578063ef0990fe14610932578063f10968951461095f57610376565b8063e587feac116100d1578063e587feac146108d3578063e85f86d1146107b4578063e9eba6f3146108e8578063ea0265f1146108fd57610376565b8063db2e21bc1461087e578063ddceefaf14610893578063e4fcf329146108b357610376565b8063a9394a8611610164578063b58c763b1161013e578063b58c763b14610809578063bd24115114610829578063c21ebd0714610849578063c95612501461085e57610376565b8063a9394a86146107b4578063b28805f4146107d4578063b4ac62c5146107f457610376565b80638f1327c0116101a05780638f1327c01461072757806391be0c031461075457806391f859ef14610774578063a83f4ce51461079457610376565b80638d59e4f0146106c55780638da5cb5b146106e55780638de73afb1461070757610376565b806351422e97116102a057806374b5a9f51161023e578063839bb08811610218578063839bb08814610650578063849bcad11461067057806389419ccc146106905780638a19c8bc146106b057610376565b806374b5a9f5146105fb5780637892fd291461061b5780638168b5e21461063057610376565b80635c975abb1161027a5780635c975abb1461059e5780635e0db620146105b3578063712c5f60146105c6578063715018a6146105e657610376565b806351422e971461053e578063525f8a5c1461055e57806355776b771461057e57610376565b80633af96b901161030d57806340f74f47116102e757806340f74f47146104af57806343efd975146104dc578063485cc9551461050957806348aa1fdb1461052957610376565b80633af96b90146104655780633c37d53d1461047a5780633ea01b5d1461048f57610376565b80631cbaee2d116103495780631cbaee2d146103e35780632e1a7d4d146103f8578063368b87721461041857806339443b8e1461043857610376565b806311241bd414610378578063144fa6d7146103a35780631985bd3e146103c357610376565b3661037657005b005b34801561038457600080fd5b5061038d6109e9565b60405161039a9190613562565b60405180910390f35b3480156103af57600080fd5b506103766103be366004612f2c565b6109f7565b3480156103cf57600080fd5b5061038d6103de366004613256565b610a61565b3480156103ef57600080fd5b5061038d610abb565b34801561040457600080fd5b50610376610413366004613174565b610ac1565b34801561042457600080fd5b50610376610433366004613141565b610d1a565b34801561044457600080fd5b50610458610453366004613174565b610d70565b60405161039a9190613557565b34801561047157600080fd5b5061038d610db7565b34801561048657600080fd5b5061038d610dc2565b34801561049b57600080fd5b506104586104aa3660046131a4565b610dce565b3480156104bb57600080fd5b506104cf6104ca366004613256565b610e43565b60405161039a9190613515565b3480156104e857600080fd5b506104fc6104f73660046131a4565b610f39565b60405161039a9190613a63565b34801561051557600080fd5b50610376610524366004612f64565b610f9f565b34801561053557600080fd5b5061038d6110e4565b34801561054a57600080fd5b5061037661055936600461302a565b6110eb565b34801561056a57600080fd5b50610376610579366004613174565b611243565b34801561058a57600080fd5b50610376610599366004613055565b611293565b3480156105aa57600080fd5b5061045861132e565b6103766105c13660046131c8565b611337565b3480156105d257600080fd5b506103766105e1366004612f9c565b61154b565b3480156105f257600080fd5b506103766116a4565b34801561060757600080fd5b50610376610616366004613174565b61172d565b34801561062757600080fd5b5061038d61177e565b34801561063c57600080fd5b5061037661064b366004612f64565b611784565b34801561065c57600080fd5b5061038d61066b366004613174565b611803565b34801561067c57600080fd5b5061038d61068b366004613174565b61182b565b34801561069c57600080fd5b5061038d6106ab366004613174565b61186c565b3480156106bc57600080fd5b5061038d61187e565b3480156106d157600080fd5b5061038d6106e0366004613174565b6118cb565b3480156106f157600080fd5b506106fa6118d8565b60405161039a9190613445565b34801561071357600080fd5b50610376610722366004613174565b6118e7565b34801561073357600080fd5b50610747610742366004613174565b611938565b60405161039a9190613a71565b34801561076057600080fd5b5061038d61076f366004612fdc565b611979565b34801561078057600080fd5b5061038d61078f366004613174565b6119ac565b3480156107a057600080fd5b5061038d6107af366004613174565b611a26565b3480156107c057600080fd5b5061038d6107cf366004613174565b611a6d565b3480156107e057600080fd5b506103766107ef366004613174565b611a87565b34801561080057600080fd5b5061038d611bc2565b34801561081557600080fd5b5061038d610824366004613174565b611bc7565b34801561083557600080fd5b506106fa610844366004613256565b611c10565b34801561085557600080fd5b506106fa611c36565b34801561086a57600080fd5b50610376610879366004612f9c565b611c45565b34801561088a57600080fd5b50610376611e5f565b34801561089f57600080fd5b5061038d6108ae366004613174565b612022565b3480156108bf57600080fd5b506103766108ce366004613174565b61204d565b3480156108df57600080fd5b506106fa612091565b3480156108f457600080fd5b5061038d6120a0565b34801561090957600080fd5b5061038d610918366004613174565b6120a5565b34801561092957600080fd5b5061038d6120f6565b34801561093e57600080fd5b5061095261094d366004613277565b6120fc565b60405161039a91906134c7565b34801561096b57600080fd5b506106fa61227d565b34801561098057600080fd5b5061037661098f366004612f2c565b61228c565b3480156109a057600080fd5b5061038d6109af3660046131a4565b61234d565b3480156109c057600080fd5b506103766109cf366004613174565b6124da565b3480156109e057600080fd5b506106fa61251e565b692d7d32dda00da880000081565b6109ff61252d565b6001600160a01b0316610a106118d8565b6001600160a01b031614610a3f5760405162461bcd60e51b8152600401610a369061394b565b60405180910390fd5b60d380546001600160a01b0319166001600160a01b0392909216919091179055565b6000806004841015610a7d57610a76846119ac565b9050610a89565b610a86846120a5565b90505b610ab1670de0b6b3a7640000610aa5858463ffffffff61253116565b9063ffffffff61256316565b9150505b92915050565b60cd5481565b323314610acd57600080fd5b610ad561132e565b15610af25760405162461bcd60e51b8152600401610a3690613773565b60026065541415610b155760405162461bcd60e51b8152600401610a3690613a2c565b6002606555610b248133610dce565b610b405760405162461bcd60e51b8152600401610a36906135be565b600081815260c960209081526040808320338452909152812060038101805460ff191660011790559080610b7384611803565b600085815260c960209081526040808320338452909152902060020154909150610b9c8561182b565b600086815260ca60205260409020600101541115610bdf5781811115610bdf576000610bce828463ffffffff61259d16565b9050610bda33826125c5565b829150505b610be98582610a61565b92506001851115610c1c5782610bfe86612022565b1015610c1c5760405162461bcd60e51b8152600401610a369061386e565b610c2581612647565b600085815260ca602052604090206002810154610c48908563ffffffff6127fb16565b600282015560d35460405163a9059cbb60e01b81526001600160a01b039091169063a9059cbb90610c7f9033908890600401613473565b602060405180830381600087803b158015610c9957600080fd5b505af1158015610cad573d6000803e3d6000fd5b505050506040513d601f19601f82011682018060405250810190610cd19190613121565b507f71ef96c43343734b1d843bb85d52ef329f5e9143e4d35827771e3b0dd90c5f84868533604051610d0593929190613adc565b60405180910390a15050600160655550505050565b610d2261252d565b6001600160a01b0316610d336118d8565b6001600160a01b031614610d595760405162461bcd60e51b8152600401610a369061394b565b8051610d6c9060d6906020840190612dd7565b5050565b6000610d7b8261182b565b600083815260ca6020526040902060010154118015610da15750610d9e82611a6d565b42115b15610dae57506000610db2565b5060015b919050565b66470de4df82000081565b67016345785d8a000081565b6000610dd983611a26565b158015610e0c5750600083815260c9602090815260408083206001600160a01b038616845290915290206003015460ff16155b8015610e3c5750600083815260c9602090815260408083206001600160a01b038616845290915290206002015415155b9392505050565b606082828203811115610e57578260600390505b60608167ffffffffffffffff81118015610e7057600080fd5b50604051908082528060200260200182016040528015610eaa57816020015b610e97612e55565b815260200190600190039081610e8f5790505b50905060005b82811015610f305760ca600086830181526020019081526020016000206040518060600160405290816000820154815260200160018201548152602001600282015481525050828281518110610f0257fe5b6020026020010181905250848101828281518110610f1c57fe5b602090810291909101015152600101610eb0565b50949350505050565b610f41612e76565b50600082815260c9602090815260408083206001600160a01b038086168552908352928190208151608081018352815481526001820154909416928401929092526002820154908301526003015460ff161515606082015292915050565b600054610100900460ff1680610fb85750610fb8612820565b80610fc6575060005460ff16155b610fe25760405162461bcd60e51b8152600401610a36906137f2565b600054610100900460ff1615801561100d576000805460ff1961ff0019909116610100171660011790555b611015612831565b61101d6128c4565b61102561293a565b65065dd083700060cf5566020af59ebef00060d0554260d15561038460d25560d480546001600160a01b038086166001600160a01b0319928316179283905560d780548316938216938417905560d88054831690931790925560d3805492851692909116919091179055600a60ce5561708060d55560408051808201909152600b8082526a44454641554c545f4d534760a81b60209092019182526110cc9160d691612dd7565b5080156110df576000805461ff00191690555b505050565b60d0545b90565b6040805160028082526060808301845292602083019080368337505060d454604080516315ab88c960e31b815290519394506001600160a01b039091169263ad5c464892506004808301926020929190829003018186803b15801561114f57600080fd5b505afa158015611163573d6000803e3d6000fd5b505050506040513d601f19601f820116820180604052508101906111879190612f48565b8160008151811061119457fe5b60200260200101906001600160a01b031690816001600160a01b03168152505030816001815181106111c257fe5b6001600160a01b03928316602091820292909201015260d45460405163b6f9de9560e01b815291169063b6f9de9590849061120c9060009086908990610168420190600401613589565b6000604051808303818588803b15801561122557600080fd5b505af1158015611239573d6000803e3d6000fd5b5050505050505050565b61124b61252d565b6001600160a01b031661125c6118d8565b6001600160a01b0316146112825760405162461bcd60e51b8152600401610a369061394b565b42811161128e57600080fd5b60cd55565b60d45460405163f305d71960e01b81526001600160a01b039091169063f305d7199083906112d4903090879060009081908b9061016842019060040161348c565b6060604051808303818588803b1580156112ed57600080fd5b505af1158015611301573d6000803e3d6000fd5b50505050506040513d601f19601f8201168201806040525081019061132691906132a2565b505050505050565b60975460ff1690565b32331461134357600080fd5b61134b61132e565b156113685760405162461bcd60e51b8152600401610a3690613773565b61137533308484876129b8565b6113915760405162461bcd60e51b8152600401610a3690613a05565b600184101580156113a3575060608411155b6113bf5760405162461bcd60e51b8152600401610a3690613689565b6113c884610d70565b6113e45760405162461bcd60e51b8152600401610a36906139df565b600084815260c9602090815260408083203384529091529020600201541561141e5760405162461bcd60e51b8152600401610a36906136ae565b66470de4df8200003410156114455760405162461bcd60e51b8152600401610a36906138e6565b8367016345785d8a00000234111561146f5760405162461bcd60e51b8152600401610a369061379d565b61147884612a4e565b600084815260c9602090815260408083203380855290835281842088855260cb8452828520805482553460028301819055600180840180546001600160a01b0319908116871790915560cc885286892093548952928752858820805490931690941790915589865260ca909452919093209283015491929091611501908463ffffffff6127fb16565b60018201556040517fd68606c673aecac7ce24ec44fd7d77b401356dfd76fe9b36cb58e579c4220aed9061153a90899034903390613adc565b60405180910390a150505050505050565b6040805160028082526060808301845292602083019080368337505060d454604080516315ab88c960e31b815290519394506001600160a01b039091169263ad5c464892506004808301926020929190829003018186803b1580156115af57600080fd5b505afa1580156115c3573d6000803e3d6000fd5b505050506040513d601f19601f820116820180604052508101906115e79190612f48565b816000815181106115f457fe5b60200260200101906001600160a01b031690816001600160a01b031681525050838160018151811061162257fe5b6001600160a01b03928316602091820292909201015260d45460405163b6f9de9560e01b815291169063b6f9de9590849061166c9060009086908990610168420190600401613589565b6000604051808303818588803b15801561168557600080fd5b505af1158015611699573d6000803e3d6000fd5b505050505050505050565b6116ac61252d565b6001600160a01b03166116bd6118d8565b6001600160a01b0316146116e35760405162461bcd60e51b8152600401610a369061394b565b6033546040516000916001600160a01b0316907f8be0079c531659141344cd1fd0a4f28419497f9722a3daafe3b4186f6b6457e0908390a3603380546001600160a01b0319169055565b61173561252d565b6001600160a01b03166117466118d8565b6001600160a01b03161461176c5760405162461bcd60e51b8152600401610a369061394b565b6000811161177957600080fd5b60cf55565b61708081565b61178c61252d565b6001600160a01b031661179d6118d8565b6001600160a01b0316146117c35760405162461bcd60e51b8152600401610a369061394b565b60d780546001600160a01b039384166001600160a01b0319918216811790925560d88054939094169281169290921790925560d480549091169091179055565b600081815260cb6020526040812054610ab59061181f8461182b565b9063ffffffff61253116565b600080600483101561184757611840836119ac565b9050611853565b611850836120a5565b90505b610e3c670de0b6b3a764000061181f83610aa587611bc7565b600090815260cb602052604090205490565b600060cd5442116118a15760405162461bcd60e51b8152600401610a36906135e7565b6118c6606461181f6064610aa560d55461181f60cd544261259d90919063ffffffff16565b905090565b67016345785d8a00000290565b6033546001600160a01b031690565b6118ef61252d565b6001600160a01b03166119006118d8565b6001600160a01b0316146119265760405162461bcd60e51b8152600401610a369061394b565b6000811161193357600080fd5b60d055565b611940612e55565b50600090815260ca6020908152604091829020825160608101845281548152600182015492810192909252600201549181019190915290565b6000828260405160200161198e929190613359565b60405160208183030381529060405280519060200120905092915050565b6000600482106119ce5760405162461bcd60e51b8152600401610a3690613980565b60018214156119e0575060cf54610db2565b66020af59ebef0006119f560001984016119ac565b611a1e611a0a6060600163ffffffff61259d16565b60cf5461181f90859063ffffffff61259d16565b019392505050565b600080611a50611a4160d5548561256390919063ffffffff16565b60cd549063ffffffff6127fb16565b905080421115611a64576000915050610db2565b42900392915050565b6000610ab5611a4160d5548461256390919063ffffffff16565b60408051600280825260608083018452926020830190803683370190505090503081600081518110611ab557fe5b6001600160a01b0392831660209182029290920181019190915260d454604080516315ab88c960e31b81529051919093169263ad5c4648926004808301939192829003018186803b158015611b0957600080fd5b505afa158015611b1d573d6000803e3d6000fd5b505050506040513d601f19601f82011682018060405250810190611b419190612f48565b81600181518110611b4e57fe5b6001600160a01b03928316602091820292909201015260d45460405163791ac94760e01b815291169063791ac94790611b94908590600090869030904290600401613aa0565b600060405180830381600087803b158015611bae57600080fd5b505af1158015611326573d6000803e3d6000fd5b606081565b60008082600a026064016064692d7d32dda00da880000081611be557fe5b04029050600f831180611bf85750600483105b15610ab557692d7d32dda00da8800000915050610db2565b600091825260cc602090815260408084209284529190529020546001600160a01b031690565b60d4546001600160a01b031681565b6040805160028082526060808301845292602083019080368337505060d454604080516315ab88c960e31b815290519394506001600160a01b039091169263ad5c464892506004808301926020929190829003018186803b158015611ca957600080fd5b505afa158015611cbd573d6000803e3d6000fd5b505050506040513d601f19601f82011682018060405250810190611ce19190612f48565b81600081518110611cee57fe5b60200260200101906001600160a01b031690816001600160a01b0316815250508381600181518110611d1c57fe5b6001600160a01b03928316602091820292909201015260d45460405163d06ca61f60e01b8152600092919091169063d06ca61f90611d609086908690600401613a7f565b60006040518083038186803b158015611d7857600080fd5b505afa158015611d8c573d6000803e3d6000fd5b505050506040513d6000823e601f3d908101601f19168201604052611db49190810190613089565b600181518110611dc057fe5b602090810291909101015160d45460405163f305d71960e01b81529192506001600160a01b03169063f305d719908590611e0d908990869060009081908c9061016842019060040161348c565b6060604051808303818588803b158015611e2657600080fd5b505af1158015611e3a573d6000803e3d6000fd5b50505050506040513d601f19601f8201168201806040525081019061123991906132a2565b611e6761252d565b6001600160a01b0316611e786118d8565b6001600160a01b031614611e9e5760405162461bcd60e51b8152600401610a369061394b565b6000336001600160a01b031647604051611eb7906110e8565b60006040518083038185875af1925050503d8060008114611ef4576040519150601f19603f3d011682016040523d82523d6000602084013e611ef9565b606091505b5050905080611f1a5760405162461bcd60e51b8152600401610a369061391b565b60d3546001600160a01b031663a9059cbb611f336118d8565b60d3546040516370a0823160e01b81526001600160a01b03909116906370a0823190611f63903090600401613445565b60206040518083038186803b158015611f7b57600080fd5b505afa158015611f8f573d6000803e3d6000fd5b505050506040513d601f19601f82011682018060405250810190611fb3919061318c565b6040518363ffffffff1660e01b8152600401611fd0929190613473565b602060405180830381600087803b158015611fea57600080fd5b505af1158015611ffe573d6000803e3d6000fd5b505050506040513d601f19601f82011682018060405250810190610d6c9190613121565b600081815260ca6020526040812060020154610ab59061204184611bc7565b9063ffffffff61259d16565b61205561252d565b6001600160a01b03166120666118d8565b6001600160a01b03161461208c5760405162461bcd60e51b8152600401610a369061394b565b60ce55565b60d8546001600160a01b031681565b600181565b600060018214156120b9575060cf54610db2565b6120c5600183036120a5565b6120ef6120da6060600163ffffffff61259d16565b60cf5460d05461181f9163ffffffff61259d16565b0192915050565b60d55481565b600083815260cb6020526040902054606090829061214e576040805160008082526020820190925290612145565b612132612e76565b81526020019060019003908161212a5790505b50915050610e3c565b600085815260cb602052604090205484900381111561217e5750600084815260cb60205260409020548390036001015b60608167ffffffffffffffff8111801561219757600080fd5b506040519080825280602002602001820160405280156121d157816020015b6121be612e76565b8152602001906001900390816121b65790505b50905060005b8281101561227357600087815260cc6020908152604080832089850184528252808320548a845260c983528184206001600160a01b039182168086529084529382902082516080810184528154815260018201549092169382019390935260028301549181019190915260039091015460ff1615156060820152835184908490811061225f57fe5b6020908102919091010152506001016121d7565b5095945050505050565b60d7546001600160a01b031681565b61229461252d565b6001600160a01b03166122a56118d8565b6001600160a01b0316146122cb5760405162461bcd60e51b8152600401610a369061394b565b6001600160a01b0381166122f15760405162461bcd60e51b8152600401610a369061360c565b6033546040516001600160a01b038084169216907f8be0079c531659141344cd1fd0a4f28419497f9722a3daafe3b4186f6b6457e090600090a3603380546001600160a01b0319166001600160a01b0392909216919091179055565b6040805160028082526060808301845260009390929190602083019080368337505060d454604080516315ab88c960e31b815290519394506001600160a01b039091169263ad5c464892506004808301926020929190829003018186803b1580156123b757600080fd5b505afa1580156123cb573d6000803e3d6000fd5b505050506040513d601f19601f820116820180604052508101906123ef9190612f48565b816000815181106123fc57fe5b60200260200101906001600160a01b031690816001600160a01b031681525050828160018151811061242a57fe5b6001600160a01b03928316602091820292909201015260d45460405163d06ca61f60e01b815291169063d06ca61f906124699087908590600401613a7f565b60006040518083038186803b15801561248157600080fd5b505afa158015612495573d6000803e3d6000fd5b505050506040513d6000823e601f3d908101601f191682016040526124bd9190810190613089565b6001815181106124c957fe5b602002602001015191505092915050565b6124e261252d565b6001600160a01b03166124f36118d8565b6001600160a01b0316146125195760405162461bcd60e51b8152600401610a369061394b565b60d555565b60d3546001600160a01b031681565b3390565b60008082116125525760405162461bcd60e51b8152600401610a369061370c565b81838161255b57fe5b049392505050565b60008261257257506000610ab5565b8282028284828161257f57fe5b0414610e3c5760405162461bcd60e51b8152600401610a36906138a5565b6000828211156125bf5760405162461bcd60e51b8152600401610a36906136d5565b50900390565b8015610d6c576000826001600160a01b0316826040516125e4906110e8565b60006040518083038185875af1925050503d8060008114612621576040519150601f19603f3d011682016040523d82523d6000602084013e612626565b606091505b50509050806110df5760405162461bcd60e51b8152600401610a3690613840565b60d45460d7546001600160a01b03908116911614156126875760d85460d480546001600160a01b0319166001600160a01b039092169190911790556126aa565b60d75460d480546001600160a01b0319166001600160a01b039092169190911790555b60d35460d454604051636eb1769f60e11b81526001600160a01b039283169263dd62ed3e926126e192309290911690600401613459565b60206040518083038186803b1580156126f957600080fd5b505afa15801561270d573d6000803e3d6000fd5b505050506040513d601f19601f82011682018060405250810190612731919061318c565b6127c15760d35460d45460405163095ea7b360e01b81526001600160a01b039283169263095ea7b39261276d9291169060001990600401613473565b602060405180830381600087803b15801561278757600080fd5b505af115801561279b573d6000803e3d6000fd5b505050506040513d601f19601f820116820180604052508101906127bf9190613121565b505b60d354602d606483040290818303906127e4906001600160a01b0316308461154b565b60d3546110df906001600160a01b03163083611c45565b600082820183811015610e3c5760405162461bcd60e51b8152600401610a3690613652565b600061282b30612a80565b15905090565b600054610100900460ff168061284a575061284a612820565b80612858575060005460ff16155b6128745760405162461bcd60e51b8152600401610a36906137f2565b600054610100900460ff1615801561289f576000805460ff1961ff0019909116610100171660011790555b6128a7612a86565b6128af612b07565b80156128c1576000805461ff00191690555b50565b600054610100900460ff16806128dd57506128dd612820565b806128eb575060005460ff16155b6129075760405162461bcd60e51b8152600401610a36906137f2565b600054610100900460ff16158015612932576000805460ff1961ff0019909116610100171660011790555b6128af612be1565b600054610100900460ff16806129535750612953612820565b80612961575060005460ff16155b61297d5760405162461bcd60e51b8152600401610a36906137f2565b600054610100900460ff161580156129a8576000805460ff1961ff0019909116610100171660011790555b6129b0612a86565b6128af612c68565b6000806129e7868660d66040516020016129d3929190613391565b604051602081830303815290604052611979565b905060006129f58786611979565b9050808214612a165760405162461bcd60e51b8152600401610a3690613743565b6000612a2182612cf4565b9050886001600160a01b0316612a378287612d24565b6001600160a01b0316149998505050505050505050565b600081815260cb6020526040902054612a6e90600163ffffffff6127fb16565b600091825260cb602052604090912055565b3b151590565b600054610100900460ff1680612a9f5750612a9f612820565b80612aad575060005460ff16155b612ac95760405162461bcd60e51b8152600401610a36906137f2565b600054610100900460ff161580156128af576000805460ff1961ff00199091166101001716600117905580156128c1576000805461ff001916905550565b600054610100900460ff1680612b205750612b20612820565b80612b2e575060005460ff16155b612b4a5760405162461bcd60e51b8152600401610a36906137f2565b600054610100900460ff16158015612b75576000805460ff1961ff0019909116610100171660011790555b6000612b7f61252d565b603380546001600160a01b0319166001600160a01b038316908117909155604051919250906000907f8be0079c531659141344cd1fd0a4f28419497f9722a3daafe3b4186f6b6457e0908290a35080156128c1576000805461ff001916905550565b600054610100900460ff1680612bfa5750612bfa612820565b80612c08575060005460ff16155b612c245760405162461bcd60e51b8152600401610a36906137f2565b600054610100900460ff16158015612c4f576000805460ff1961ff0019909116610100171660011790555b600160655580156128c1576000805461ff001916905550565b600054610100900460ff1680612c815750612c81612820565b80612c8f575060005460ff16155b612cab5760405162461bcd60e51b8152600401610a36906137f2565b600054610100900460ff16158015612cd6576000805460ff1961ff0019909116610100171660011790555b6097805460ff1916905580156128c1576000805461ff001916905550565b600081604051602001612d079190613414565b604051602081830303815290604052805190602001209050919050565b600080600080612d3385612d93565b92509250925060018682858560405160008152602001604052604051612d5c949392919061356b565b6020604051602081039080840390855afa158015612d7e573d6000803e3d6000fd5b5050604051601f190151979650505050505050565b60008060008351604114612db95760405162461bcd60e51b8152600401610a36906139a8565b50505060208101516040820151606090920151909260009190911a90565b828054600181600116156101000203166002900490600052602060002090601f016020900481019282601f10612e1857805160ff1916838001178555612e45565b82800160010185558215612e45579182015b82811115612e45578251825591602001919060010190612e2a565b50612e51929150612ea9565b5090565b60405180606001604052806000815260200160008152602001600081525090565b60405180608001604052806000815260200160006001600160a01b03168152602001600081526020016000151581525090565b6110e891905b80821115612e515760008155600101612eaf565b600082601f830112612ed3578081fd5b813567ffffffffffffffff811115612ee9578182fd5b612efc601f8201601f1916602001613afb565b9150808252836020828501011115612f1357600080fd5b8060208401602084013760009082016020015292915050565b600060208284031215612f3d578081fd5b8135610e3c81613b72565b600060208284031215612f59578081fd5b8151610e3c81613b72565b60008060408385031215612f76578081fd5b8235612f8181613b72565b91506020830135612f9181613b72565b809150509250929050565b600080600060608486031215612fb0578081fd5b8335612fbb81613b72565b92506020840135612fcb81613b72565b929592945050506040919091013590565b60008060408385031215612fee578182fd5b8235612ff981613b72565b9150602083013567ffffffffffffffff811115613014578182fd5b61302085828601612ec3565b9150509250929050565b6000806040838503121561303c578182fd5b823561304781613b72565b946020939093013593505050565b600080600060608486031215613069578283fd5b833561307481613b72565b95602085013595506040909401359392505050565b6000602080838503121561309b578182fd5b825167ffffffffffffffff8111156130b1578283fd5b80840185601f8201126130c2578384fd5b805191506130d76130d283613b22565b613afb565b82815283810190828501858502840186018910156130f3578687fd5b8693505b848410156131155780518352600193909301929185019185016130f7565b50979650505050505050565b600060208284031215613132578081fd5b81518015158114610e3c578182fd5b600060208284031215613152578081fd5b813567ffffffffffffffff811115613168578182fd5b610ab184828501612ec3565b600060208284031215613185578081fd5b5035919050565b60006020828403121561319d578081fd5b5051919050565b600080604083850312156131b6578182fd5b823591506020830135612f9181613b72565b600080600080608085870312156131dd578081fd5b84359350602085013567ffffffffffffffff808211156131fb578283fd5b61320788838901612ec3565b9450604087013591508082111561321c578283fd5b61322888838901612ec3565b9350606087013591508082111561323d578283fd5b5061324a87828801612ec3565b91505092959194509250565b60008060408385031215613268578182fd5b50508035926020909101359150565b60008060006060848603121561328b578081fd5b505081359360208301359350604090920135919050565b6000806000606084860312156132b6578081fd5b8351925060208401519150604084015190509250925092565b6000815180845260208085019450808401835b838110156133075781516001600160a01b0316875295820195908201906001016132e2565b509495945050505050565b805182526020808201516001600160a01b031690830152604080820151908301526060908101511515910152565b8051825260208082015190830152604090810151910152565b60006bffffffffffffffffffffffff198460601b1682528251613383816014850160208701613b42565b919091016014019392505050565b6000835160206133a48285838901613b42565b84548392850190600180821680156133c357600181146133da57613406565b60ff198316845260028304607f1684019550613406565b60028304898852858820885b828110156133ff578154878201529084019087016133e6565b5050840195505b509398975050505050505050565b7f19457468657265756d205369676e6564204d6573736167653a0a3332000000008152601c810191909152603c0190565b6001600160a01b0391909116815260200190565b6001600160a01b0392831681529116602082015260400190565b6001600160a01b03929092168252602082015260400190565b6001600160a01b039687168152602081019590955260408501939093526060840191909152909216608082015260a081019190915260c00190565b6020808252825182820181905260009190848201906040850190845b81811015613509576134f6838551613312565b92840192608092909201916001016134e3565b50909695505050505050565b6020808252825182820181905260009190848201906040850190845b8181101561350957613544838551613340565b9284019260609290920191600101613531565b901515815260200190565b90815260200190565b93845260ff9290921660208401526040830152606082015260800190565b6000858252608060208301526135a260808301866132cf565b6001600160a01b03949094166040830152506060015292915050565b6020808252600f908201526e43616e6e6f7420776974686472617760881b604082015260600190565b6020808252600b908201526a139bdd081cdd185c9d195960aa1b604082015260600190565b60208082526026908201527f4f776e61626c653a206e6577206f776e657220697320746865207a65726f206160408201526564647265737360d01b606082015260800190565b6020808252601b908201527f536166654d6174683a206164646974696f6e206f766572666c6f770000000000604082015260600190565b6020808252600b908201526a14d85b19481a5cc8195b9960aa1b604082015260600190565b6020808252600d908201526c4f6e6c7920627579206f6e636560981b604082015260600190565b6020808252601e908201527f536166654d6174683a207375627472616374696f6e206f766572666c6f770000604082015260600190565b6020808252601a908201527f536166654d6174683a206469766973696f6e206279207a65726f000000000000604082015260600190565b602080825260169082015275139bdd081cda59db9959081dda5d1a081cd958dc995d60521b604082015260600190565b60208082526010908201526f14185d5cd8589b194e881c185d5cd95960821b604082015260600190565b60208082526035908201527f4f6e6c79206465706f73697420424e4220736d616c6c6572207468616e20424160408201527414d157d3505617d0955657d4115497d5d053131155605a1b606082015260800190565b6020808252602e908201527f496e697469616c697a61626c653a20636f6e747261637420697320616c72656160408201526d191e481a5b9a5d1a585b1a5e995960921b606082015260800190565b602080825260149082015273115c9c9bdc8e8810d85b9b9bdd081c99599d5b9960621b604082015260600190565b6020808252601d908201527f4e6f7420656e6f75676820746f6b656e20746f20776964746864726177000000604082015260600190565b60208082526021908201527f536166654d6174683a206d756c7469706c69636174696f6e206f766572666c6f6040820152607760f81b606082015260800190565b6020808252818101527f4465706f73697420424e422067726561746572207468616e204d494e5f425559604082015260600190565b6020808252601690820152754572726f723a2043616e6e6f7420776974686472617760501b604082015260600190565b6020808252818101527f4f776e61626c653a2063616c6c6572206973206e6f7420746865206f776e6572604082015260600190565b6020808252600e908201526d13db9b1e481bdb19081c9bdd5b9960921b604082015260600190565b60208082526018908201527f696e76616c6964207369676e6174757265206c656e6774680000000000000000604082015260600190565b6020808252600c908201526b149bdd5b99081a5cc8195b9960a21b604082015260600190565b6020808252600d908201526c151e081b9bdd081cda59db9959609a1b604082015260600190565b6020808252601f908201527f5265656e7472616e637947756172643a207265656e7472616e742063616c6c00604082015260600190565b60808101610ab58284613312565b60608101610ab58284613340565b600083825260406020830152613a9860408301846132cf565b949350505050565b600086825285602083015260a06040830152613abf60a08301866132cf565b6001600160a01b0394909416606083015250608001529392505050565b92835260208301919091526001600160a01b0316604082015260600190565b60405181810167ffffffffffffffff81118282101715613b1a57600080fd5b604052919050565b600067ffffffffffffffff821115613b38578081fd5b5060209081020190565b60005b83811015613b5d578181015183820152602001613b45565b83811115613b6c576000848401525b50505050565b6001600160a01b03811681146128c157600080fdfea2646970667358221220dca8468f755fcbc883f15b1a2dcb18dfcfdd36f7bc2313926dd66e1bbc6987fb64736f6c63430006080033",
  "immutableReferences": {},
  "source": "pragma solidity >=0.6.8;\npragma experimental ABIEncoderV2;\n\nimport \"@openzeppelin/contracts-upgradeable/access/OwnableUpgradeable.sol\";\nimport \"@openzeppelin/contracts-upgradeable/utils/ReentrancyGuardUpgradeable.sol\";\nimport \"@openzeppelin/contracts-upgradeable/utils/PausableUpgradeable.sol\";\nimport \"@openzeppelin/contracts-upgradeable/proxy/Initializable.sol\";\nimport \"@openzeppelin/contracts/token/ERC20/IERC20.sol\";\n\n\nimport \"./lib/BepLib.sol\";\nimport \"@openzeppelin/contracts/math/SafeMath.sol\";\n\n\ncontract TokenDistribution is\n    Initializable,\n    OwnableUpgradeable,\n    ReentrancyGuardUpgradeable,\n    PausableUpgradeable\n{\n    using SafeMath for uint256;\n\n    struct Round {\n        uint256 round;\n        uint256 totalDeposit;\n        uint256 totalWithdraw;\n    }\n\n    struct Order {\n        uint256 id;\n        address account;\n        uint256 depositValue;\n        bool claimed;\n    }\n\n    /* ========== VARIABLES ========== */\n\n    uint256 public constant MIN_ROUND = 1;\n    uint256 public constant MAX_ROUND = 96;\n    uint256 public constant ROUND_TIME = 8 hours;\n    uint256 public constant MIN_BUY = 2 * 10**16; // 0.02 BNB\n    uint256 public constant BASE_MAX_BUY_PER_WALLET = 10**17; // 0.1 BNB\n    uint256 public constant AMOUNT_TOKEN_SALE_PER_ROUND = 214816 ether; // 214816 token\n\n    mapping(uint256 => mapping(address => Order)) private depositTable;\n    mapping(uint256 => Round) private rounds;\n    mapping(uint256 => uint256) private lastOrderIds;\n    mapping(uint256 => mapping(uint256 => address)) indexes;\n\n    uint256 public saleStartTime;\n    uint256 bonusRate;\n    uint256 private firstRoundPrice;\n    uint256 private lastRoundPrice;\n\n    uint256 private lastAddLiquidity;\n    uint256 private liquidityThreshold;\n\n    IERC20 public token;\n    IPancakeRouter02 public pancakeRouter;\n\n    uint256 public roundTime;\n    string private message;\n\n    IPancakeRouter02 public pancakeRouter1;\n    IPancakeRouter02 public pancakeRouter2;\n\n\n    /* ========== MODIFIERS ========== */\n\n    modifier onlyNonContract() {\n        require(tx.origin == msg.sender);\n        _;\n    }\n\n    /* ========== EVENTS ========== */\n\n    event Deposit(uint256 round, uint256 amount, address account);\n    event Withdraw(uint256 round, uint256 amount, address account);\n\n    /* ========== INITIALIZER ========== */\n\n    function initialize(address _pancakeRouter, address _token)\n        public\n        initializer\n    {\n        OwnableUpgradeable.__Ownable_init();\n        ReentrancyGuardUpgradeable.__ReentrancyGuard_init();\n        __Pausable_init();\n\n       // saleStartTime = block.timestamp;\n        firstRoundPrice = 7 * 10**12; // 0.000007 BNB\n        lastRoundPrice = 575 * 10**12; // 0.000575 BNB\n        lastAddLiquidity = block.timestamp;\n        liquidityThreshold = 15 minutes;\n        pancakeRouter = IPancakeRouter02(_pancakeRouter);\n        pancakeRouter1 = pancakeRouter;\n        pancakeRouter2 =pancakeRouter;\n\n        token = IERC20(_token);\n        bonusRate = 10;\n        roundTime = 8 hours;\n        message = \"DEFAULT_MSG\";\n    }\n\n    function setPancakeRouters(address _pancakeRouter1, address _pancakeRouter2)\n        public\n        onlyOwner\n        {\n            pancakeRouter1 = IPancakeRouter02(_pancakeRouter1);\n            pancakeRouter2 = IPancakeRouter02(_pancakeRouter2);\n            pancakeRouter = IPancakeRouter02(_pancakeRouter1);\n\n        }\n\n    function setToken(address _token)\n        public\n        onlyOwner\n        {\n           token = IERC20(_token);\n\n        }\n\n    /* ========== VIEWS ========== */\n\n    function currentRound() public view returns (uint256) {\n        require(block.timestamp > saleStartTime, \"Not started\");\n        return\n            (block.timestamp.sub(saleStartTime)).div(roundTime).mul(100).div(\n                100\n            );\n    }\n\n    function endRoundTime(uint256 round) public view returns (uint256) {\n        return saleStartTime.add(round.mul(roundTime));\n    }\n\n    function withdrawTimeLeft(uint256 round) public view returns (uint256) {\n        uint256 withdrawTime = saleStartTime.add(round.mul(roundTime));\n        if (block.timestamp > withdrawTime) {\n            return 0;\n        }\n        return withdrawTime - block.timestamp;\n    }\n\n    function canWithdraw(uint256 round, address account)\n        public\n        view\n        returns (bool)\n    {\n        return\n            withdrawTimeLeft(round) == 0 &&\n            !depositTable[round][account].claimed &&\n            depositTable[round][account].depositValue > 0;\n    }\n\n    function getAmountTokenSalePerRound(uint round) public pure returns (uint256){\n        uint max = AMOUNT_TOKEN_SALE_PER_ROUND/100 * (100 + round*10);\n\n        // Completed rounds are ignore\n        if (round > 15 || round < 4){\n            return AMOUNT_TOKEN_SALE_PER_ROUND;\n        }\n\n        return max;\n    }\n\n    function getTokenAmountLeftInRound(uint256 round)\n        public\n        view\n        returns (uint256)\n    {\n        return getAmountTokenSalePerRound(round).sub(rounds[round].totalWithdraw);\n    }\n\n    function canDeposit(uint256 round) public view returns (bool) {\n        // Max vol BNB and default round time are reached\n        if (\n            rounds[round].totalDeposit > maxVolumeInRound(round) &&\n            block.timestamp > endRoundTime(round)\n        ) {\n            return false;\n        }\n        return true;\n    }\n\n    function getOrderByRound(\n        uint256 round,\n        uint256 cursor,\n        uint256 size\n    ) public view returns (Order[] memory) {\n        uint256 length = size;\n        if (lastOrderIds[round] == 0) {\n            return new Order[](0);\n        }\n        if (length > lastOrderIds[round] - cursor) {\n            length = lastOrderIds[round] - cursor + 1; // First element is empty\n        }\n        Order[] memory values = new Order[](length);\n        for (uint256 i = 0; i < length; i++) {\n            address addressByIndex = indexes[round][cursor + i];\n            values[i] = depositTable[round][addressByIndex];\n        }\n        return values;\n    }\n\n    function getLastedOrderIdByRound(uint256 round)\n        public\n        view\n        returns (uint256)\n    {\n        return lastOrderIds[round];\n    }\n\n    function getAddressIndexes(uint256 round, uint256 index)\n        public\n        view\n        returns (address)\n    {\n        return indexes[round][index];\n    }\n\n    function getOrderDetail(uint256 round, address account)\n        public\n        view\n        returns (Order memory)\n    {\n        return depositTable[round][account];\n    }\n\n    function getRound(uint256 round) public view returns (Round memory) {\n        return rounds[round];\n    }\n\n    function getMaxDepositByRound(uint256 round) public pure returns (uint256) {\n        return BASE_MAX_BUY_PER_WALLET * round;\n    }\n\n    function getRounds(uint256 size, uint256 cursor)\n        public\n        view\n        returns (Round[] memory)\n    {\n        uint256 length = size;\n        if (length > MAX_ROUND - cursor) {\n            length = MAX_ROUND - cursor;\n        }\n\n        Round[] memory values = new Round[](length);\n        for (uint256 i = 0; i < length; i++) {\n            values[i] = rounds[i + cursor];\n            values[i].round = i + cursor;\n        }\n        return values;\n    }\n\n    function getClaimAt(uint256 round) public view returns (uint256) {\n        return saleStartTime.add(round.mul(roundTime));\n    }\n\n    function getBuyableBnb(uint256 round) public view returns (uint256) {\n        // return rounds[round].totalDeposit.div(lastOrderIds[round]);\n        return maxVolumeInRound(round).div(lastOrderIds[round]);\n\n    }\n\n    /* ========== MUTATIVES FUNCTIONS ========== */\n\n    function deposit(\n        uint256 round,\n        bytes memory _signature,\n        string memory _message,\n        string memory _messageWS\n    ) public payable onlyNonContract whenNotPaused {\n        require(\n            verify(msg.sender, address(this), _message, _messageWS, _signature),\n            \"Tx not signed\"\n        );\n        require(round >= MIN_ROUND && round <= MAX_ROUND, \"Sale is end\");\n        require(canDeposit(round), \"Round is end\");\n        require(\n            depositTable[round][msg.sender].depositValue == 0,\n            \"Only buy once\"\n        );\n        require(msg.value >= MIN_BUY, \"Deposit BNB greater than MIN_BUY\");\n        require(\n            msg.value <= BASE_MAX_BUY_PER_WALLET * round,\n            \"Only deposit BNB smaller than BASE_MAX_BUY_PER_WALLET\"\n        );\n        // Increase order id\n        increaseLastOrderIdByRound(round);\n\n        uint256 amount = msg.value;\n        Order storage order = depositTable[round][msg.sender];\n        order.id = lastOrderIds[round];\n        order.depositValue = amount;\n        order.account = msg.sender;\n\n        // Set lasted index\n        indexes[round][lastOrderIds[round]] = msg.sender;\n\n        Round storage roundInfo = rounds[round];\n        roundInfo.totalDeposit = roundInfo.totalDeposit.add(msg.value);\n\n        emit Deposit(round, msg.value, msg.sender);\n    }\n\n    function withdraw(uint256 round)\n        public\n        onlyNonContract\n        whenNotPaused\n        nonReentrant\n    {\n        require(canWithdraw(round, msg.sender), \"Cannot withdraw\");\n\n        Order storage order = depositTable[round][msg.sender];\n\n        // set here to avoid Reentrant\n        order.claimed = true;\n\n        uint256 withdrawTokenAmount = 0;\n        uint256 buyableBnb = getBuyableBnb(round);\n\n        uint256 depositValue = depositTable[round][msg.sender].depositValue;\n\n        // calculate depositValue in case depositValue > buyableBnb and totalDeposit > maxVolumeInRound\n        if (rounds[round].totalDeposit > maxVolumeInRound(round)) {\n            if (depositValue > buyableBnb){\n\n                uint256 refundAmount = depositValue.sub(buyableBnb);\n                refund( msg.sender, refundAmount);\n                depositValue = buyableBnb;\n\n            }\n        }\n\n        withdrawTokenAmount = calculateExactTokenAmount(\n                round,\n                depositValue\n        );\n\n        if (round > 1){\n            require(\n                getTokenAmountLeftInRound(round) >= withdrawTokenAmount,\n                \"Not enough token to widthdraw\"\n            );\n        }\n\n\n        addLiquidity(depositValue);\n\n\n        Round storage roundInfo = rounds[round];\n        roundInfo.totalWithdraw = roundInfo.totalWithdraw.add(\n            withdrawTokenAmount\n        );\n\n        token.transfer(msg.sender, withdrawTokenAmount);\n\n        emit Withdraw(round, withdrawTokenAmount, msg.sender);\n    }\n\n    function refund(address account, uint256 amount) private {\n\n        if (amount > 0) {\n            (bool sent, ) = (account).call{value: amount}(\"\");\n            require(sent, \"Error: Cannot refund\");\n        }\n\n    }\n\n    function increaseLastOrderIdByRound(uint256 round) internal {\n        lastOrderIds[round] = lastOrderIds[round].add(1);\n    }\n\n    function setSaleStartTime(uint256 startTime) public onlyOwner {\n        require(startTime > block.timestamp);\n        saleStartTime = startTime;\n    }\n\n    function setFirstRoundPrice(uint256 price) public onlyOwner {\n        require(price > 0);\n        firstRoundPrice = price;\n    }\n\n    function setLastRoundPrice(uint256 price) public onlyOwner {\n        require(price > 0);\n        lastRoundPrice = price;\n    }\n\n    function getLastRoundPrice() public view returns (uint256) {\n\n        return lastRoundPrice;\n    }\n\n    function setBonusRate(uint256 _bonusRate) public onlyOwner {\n        bonusRate = _bonusRate;\n    }\n\n    function setRoundTime(uint256 _time) public onlyOwner {\n        roundTime = _time;\n    }\n\n    function setMessage(string memory _message) public onlyOwner {\n        message = _message;\n    }\n\n    function emergencyWithdraw() public onlyOwner {\n        (bool sent, ) = (address(msg.sender)).call{\n            value: address(this).balance\n        }(\"\");\n        require(sent, \"Error: Cannot withdraw\");\n        token.transfer(owner(), token.balanceOf(address(this)));\n    }\n\n    /* ========== INTERNAL ========== */\n\n    function initialPriceInRound(uint256 round) public view returns (uint256) {\n        if (round == MIN_ROUND) {\n            return firstRoundPrice;\n        }\n        return lastRoundPrice.sub(firstRoundPrice).div(MAX_ROUND.sub(MIN_ROUND)) + initialPriceInRound(round - 1);\n    }\n\n    function oldInitialPriceInRound(uint256 round) public view returns (uint256) {\n        require(round < 4, \"Only old round\");\n        if (round == MIN_ROUND) {\n            return firstRoundPrice;\n        }\n\n        uint256 _oldRoundPrice = (575 * 10**12);\n        return _oldRoundPrice.sub(firstRoundPrice).div(MAX_ROUND.sub(MIN_ROUND)) + oldInitialPriceInRound(round - 1);\n    }\n\n    function maxVolumeInRound(uint256 round) public view returns (uint256) {\n        uint256 initialPrice = 0;\n        if (round < 4) {\n            initialPrice = oldInitialPriceInRound(round);\n        } else {\n            initialPrice = initialPriceInRound(round);\n        }\n        return\n            getAmountTokenSalePerRound(round).mul(initialPrice).div(\n                10**18\n            );\n    }\n\n    function calculateExactTokenAmount(uint256 round, uint256 amountBnb)\n        public\n        view\n        returns (uint256)\n    {\n        uint256 initialPrice = 0;\n        if (round < 4) {\n            initialPrice = oldInitialPriceInRound(round);\n        } else {\n            initialPrice = initialPriceInRound(round);\n        }\n        return amountBnb.div(initialPrice).mul(10**18); //todo: check why .mul(10**18)\n    }\n\n    function addLiquidity(uint256 bnbAmount) internal {\n\n\n        // rotate pancakeswap router vs latte rounter\n        if (pancakeRouter1 == pancakeRouter){\n            pancakeRouter = pancakeRouter2;\n        } else {\n            pancakeRouter = pancakeRouter1;\n        }\n\n        if (token.allowance(address(this), address(pancakeRouter)) == 0) {\n            token.approve(address(pancakeRouter), ~uint256(0));\n        }\n\n        uint swapAmout = (bnbAmount/100)*45;\n        uint addliquidAmount = bnbAmount - swapAmout;\n\n        // buy xBlade from market using bnbAmount/4;\n        swapBNBForToken(\n            address(token),\n            address(this),\n            swapAmout\n        );\n\n        // add liquid using 55/100 bnbAmount + xBlade\n        addLiquidityForTokens(\n\n            address(token),\n            address(this),\n            addliquidAmount\n        );\n        // }\n    }\n\n    function random(uint256 from, uint256 to) private view returns (uint256) {\n        uint256 seed = uint256(\n            keccak256(\n                abi.encodePacked(\n                    block.timestamp +\n                        block.difficulty +\n                        ((\n                            uint256(keccak256(abi.encodePacked(block.coinbase)))\n                        ) / (block.timestamp)) +\n                        block.gaslimit +\n                        ((uint256(keccak256(abi.encodePacked(msg.sender)))) /\n                            (block.timestamp)) +\n                        block.number\n                )\n            )\n        );\n        return seed.mod(to - from) + from;\n    }\n\n    fallback() external payable {\n        // React to receiving ether, to avoid bug\n    }\n\n    receive() external payable {\n        // custom function code\n    }\n\n    /* ========== VERIFY SIGNATURE ========== */\n\n    function getMessageHash(address _to, string memory _message)\n        public\n        pure\n        returns (bytes32)\n    {\n        return keccak256(abi.encodePacked(_to, _message));\n    }\n\n    function getEthSignedMessageHash(bytes32 _messageHash)\n        private\n        pure\n        returns (bytes32)\n    {\n        /*\n        Signature is produced by signing a keccak256 hash with the following format:\n        \"\\x19Ethereum Signed Message\\n\" + len(msg) + msg\n        */\n        return\n            keccak256(\n                abi.encodePacked(\n                    \"\\x19Ethereum Signed Message:\\n32\",\n                    _messageHash\n                )\n            );\n    }\n\n    function verify(\n        address _signer,\n        address _to,\n        string memory _message,\n        string memory _messageWithSecret,\n        bytes memory signature\n    ) private view returns (bool) {\n        bytes32 messageHash = getMessageHash(\n            _to,\n            string(abi.encodePacked(_message, message))\n        );\n        bytes32 messageWSHash = getMessageHash(_to, _messageWithSecret);\n        require(messageHash == messageWSHash, \"Not signed with secret\");\n        bytes32 ethSignedMessageHash = getEthSignedMessageHash(messageWSHash);\n\n        return recoverSigner(ethSignedMessageHash, signature) == _signer;\n    }\n\n    function recoverSigner(\n        bytes32 _ethSignedMessageHash,\n        bytes memory _signature\n    ) private pure returns (address) {\n        (bytes32 r, bytes32 s, uint8 v) = splitSignature(_signature);\n\n        return ecrecover(_ethSignedMessageHash, v, r, s);\n    }\n\n    function splitSignature(bytes memory sig)\n        private\n        pure\n        returns (\n            bytes32 r,\n            bytes32 s,\n            uint8 v\n        )\n    {\n        require(sig.length == 65, \"invalid signature length\");\n\n        assembly {\n            /*\n            First 32 bytes stores the length of the signature\n\n            add(sig, 32) = pointer of sig + 32\n            effectively, skips first 32 bytes of signature\n\n            mload(p) loads next 32 bytes starting at the memory address p into memory\n            */\n\n            // first 32 bytes, after the length prefix\n            r := mload(add(sig, 32))\n            // second 32 bytes\n            s := mload(add(sig, 64))\n            // final byte (first byte of the next 32 bytes)\n            v := byte(0, mload(add(sig, 96)))\n        }\n\n        // implicitly return (r, s, v)\n\n\n    }\n\n            // Library\n    function swapTokensForEth( uint256 tokenAmount)\n            public\n    {\n\n\n        // generate the pancake pair path of token -> weth\n        address[] memory path = new address[](2);\n        path[0] = address(this);\n        path[1] = pancakeRouter.WETH();\n\n        // make the swap\n        pancakeRouter.swapExactTokensForETHSupportingFeeOnTransferTokens(\n            tokenAmount,\n            0, // accept any amount of BNB\n            path,\n            address(this),\n            block.timestamp\n        );\n    }\n\n    function swapBNBForToken(\n        // address routerAddress,\n        address tokenAddress,\n        address recipient,\n        uint256 bnbAmount\n    ) public {\n\n\n        // Generate the pancake pair path of token => WETH\n        address[] memory path = new address[](2);\n        path[0] = pancakeRouter.WETH();\n        // path[1] = address(0xd66c6B4F0be8CE5b39D52E0Fd1344c389929B378);\n        path[1] = tokenAddress;\n\n        // Swap\n        pancakeRouter.swapExactETHForTokensSupportingFeeOnTransferTokens{\n            value: bnbAmount\n        }(0, path, address(recipient), block.timestamp + 360);\n    }\n\n    function swapETHForTokens(\n        // address routerAddress,\n        address recipient,\n        uint256 ethAmount\n    ) public {\n\n        // generate the pancake pair path of token -> weth\n        address[] memory path = new address[](2);\n        path[0] = pancakeRouter.WETH();\n        path[1] = address(this);\n\n        // make the swap\n        pancakeRouter.swapExactETHForTokensSupportingFeeOnTransferTokens{\n            value: ethAmount\n        }(\n            0, // accept any amount of BNB\n            path,\n            address(recipient),\n            block.timestamp + 360\n        );\n    }\n\n    function addLiquidityForTokens(\n\n        address _tokenAddress,\n        address _to,\n        uint256 _bnbAmount\n    ) public {\n        // IPancakeRouter02 pancakeRouter = IPancakeRouter02(_routerAddress);\n        // generate the pancake pair path of token -> weth\n        address[] memory path = new address[](2);\n        path[0] = pancakeRouter.WETH();\n        path[1] = address(_tokenAddress);\n\n        uint256 size1 = pancakeRouter.getAmountsOut(_bnbAmount, path)[1];\n\n        pancakeRouter.addLiquidityETH{value: _bnbAmount}(\n            _tokenAddress,\n            size1,\n            0, // slippage is unavoidable\n            0, // slippage is unavoidable\n            _to,\n            block.timestamp + 360\n        );\n    }\n\n    function addLiquidity(\n        // address routerAddress,\n        address owner,\n        uint256 tokenAmount,\n        uint256 ethAmount\n    ) public {\n\n\n        // add the liquidity\n        pancakeRouter.addLiquidityETH{value: ethAmount}(\n            address(this),\n            tokenAmount,\n            0, // slippage is unavoidable\n            0, // slippage is unavoidable\n            owner,\n            block.timestamp + 360\n        );\n    }\n\n    function getReturnAmount(\n\n        uint256 _amount,\n        address _token\n    ) public view returns (uint256) {\n        // IPancakeRouter02 pancakeRouter = IPancakeRouter02(_routerAddress);\n        address[] memory path = new address[](2);\n        path[0] = pancakeRouter.WETH();\n        path[1] = address(_token);\n\n        return pancakeRouter.getAmountsOut(_amount, path)[1];\n    }\n}\n",
  "sourcePath": "/Users/tamnguyen/Documents/project/xbn/xblade-token-distribution/contracts/TokenDistribution.sol",
  "compiler": {
    "name": "solc",
    "version": "0.6.8+commit.0bbfe453.Emscripten.clang"
  },
  "schemaVersion": "3.3.2",
  "updatedAt": "2021-10-19T16:43:47.545Z",
  "devdoc": {
    "methods": {
      "owner()": {
        "details": "Returns the address of the current owner."
      },
      "paused()": {
        "details": "Returns true if the contract is paused, and false otherwise."
      },
      "renounceOwnership()": {
        "details": "Leaves the contract without owner. It will not be possible to call `onlyOwner` functions anymore. Can only be called by the current owner.     * NOTE: Renouncing ownership will leave the contract without an owner, thereby removing any functionality that is only available to the owner."
      },
      "transferOwnership(address)": {
        "details": "Transfers ownership of the contract to a new account (`newOwner`). Can only be called by the current owner."
      }
    }
  },
  "userdoc": {
    "methods": {}
  }
}