{
  "contractName": "Utils",
  "abi": [
    {
      "inputs": [
        {
          "internalType": "address",
          "name": "_routerAddress",
          "type": "address"
        },
        {
          "internalType": "uint256",
          "name": "_amount",
          "type": "uint256"
        },
        {
          "internalType": "address",
          "name": "_token",
          "type": "address"
        }
      ],
      "name": "getReturnAmount",
      "outputs": [
        {
          "internalType": "uint256",
          "name": "",
          "type": "uint256"
        }
      ],
      "stateMutability": "view",
      "type": "function",
      "constant": true
    }
  ],
  "bytecode": "0x610d72610026600b82828239805160001a60731461001957fe5b30600052607381538281f3fe730000000000000000000000000000000000000000301460806040526004361061006c5760003560e01c806356feb11b1461007157806363c2aff8146100ac5780636dcbfef4146100f5578063c549d3ae1461013e578063ce39524514610181578063cf6c62ea146101c9575b600080fd5b81801561007d57600080fd5b506100aa6004803603604081101561009457600080fd5b506001600160a01b038135169060200135610212565b005b8180156100b857600080fd5b506100aa600480360360808110156100cf57600080fd5b506001600160a01b038135811691602081013582169160408201351690606001356103ce565b81801561010157600080fd5b506100aa6004803603608081101561011857600080fd5b506001600160a01b03813581169160208101358216916040820135169060600135610587565b81801561014a57600080fd5b506100aa6004803603606081101561016157600080fd5b506001600160a01b03813581169160208101359091169060400135610884565b6101b76004803603606081101561019757600080fd5b506001600160a01b03813581169160208101359160409091013516610a3c565b60408051918252519081900360200190f35b8180156101d557600080fd5b506100aa600480360360808110156101ec57600080fd5b506001600160a01b03813581169160208101359091169060408101359060600135610c95565b60408051600280825260608083018452859390929190602083019080368337019050509050308160008151811061024557fe5b60200260200101906001600160a01b031690816001600160a01b031681525050816001600160a01b031663ad5c46486040518163ffffffff1660e01b815260040160206040518083038186803b15801561029e57600080fd5b505afa1580156102b2573d6000803e3d6000fd5b505050506040513d60208110156102c857600080fd5b50518151829060019081106102d957fe5b60200260200101906001600160a01b031690816001600160a01b031681525050816001600160a01b031663791ac9478460008430426040518663ffffffff1660e01b81526004018086815260200185815260200180602001846001600160a01b03166001600160a01b03168152602001838152602001828103825285818151815260200191508051906020019060200280838360005b8381101561038757818101518382015260200161036f565b505050509050019650505050505050600060405180830381600087803b1580156103b057600080fd5b505af11580156103c4573d6000803e3d6000fd5b5050505050505050565b60408051600280825260608083018452879390929190602083019080368337019050509050816001600160a01b031663ad5c46486040518163ffffffff1660e01b815260040160206040518083038186803b15801561042c57600080fd5b505afa158015610440573d6000803e3d6000fd5b505050506040513d602081101561045657600080fd5b50518151829060009061046557fe5b60200260200101906001600160a01b031690816001600160a01b031681525050848160018151811061049357fe5b60200260200101906001600160a01b031690816001600160a01b031681525050816001600160a01b031663b6f9de95846000848842610168016040518663ffffffff1660e01b81526004018085815260200180602001846001600160a01b03166001600160a01b03168152602001838152602001828103825285818151815260200191508051906020019060200280838360005b8381101561053f578181015183820152602001610527565b50505050905001955050505050506000604051808303818588803b15801561056657600080fd5b505af115801561057a573d6000803e3d6000fd5b5050505050505050505050565b60408051600280825260608083018452879390929190602083019080368337019050509050816001600160a01b031663ad5c46486040518163ffffffff1660e01b815260040160206040518083038186803b1580156105e557600080fd5b505afa1580156105f9573d6000803e3d6000fd5b505050506040513d602081101561060f57600080fd5b50518151829060009061061e57fe5b60200260200101906001600160a01b031690816001600160a01b031681525050848160018151811061064c57fe5b60200260200101906001600160a01b031690816001600160a01b0316815250506000826001600160a01b031663d06ca61f85846040518363ffffffff1660e01b81526004018083815260200180602001828103825283818151815260200191508051906020019060200280838360005b838110156106d45781810151838201526020016106bc565b50505050905001935050505060006040518083038186803b1580156106f857600080fd5b505afa15801561070c573d6000803e3d6000fd5b505050506040513d6000823e601f3d908101601f19168201604052602081101561073557600080fd5b810190808051604051939291908464010000000082111561075557600080fd5b90830190602082018581111561076a57600080fd5b825186602082028301116401000000008211171561078757600080fd5b82525081516020918201928201910280838360005b838110156107b457818101518382015260200161079c565b505050509050016040525050506001815181106107cd57fe5b60209081029190910101516040805163f305d71960e01b81526001600160a01b0389811660048301526024820184905260006044830181905260648301528881166084830152610168420160a483015291519293509085169163f305d71991879160c480830192606092919082900301818588803b15801561084e57600080fd5b505af1158015610862573d6000803e3d6000fd5b50505050506040513d606081101561087957600080fd5b505050505050505050565b60408051600280825260608083018452869390929190602083019080368337019050509050816001600160a01b031663ad5c46486040518163ffffffff1660e01b815260040160206040518083038186803b1580156108e257600080fd5b505afa1580156108f6573d6000803e3d6000fd5b505050506040513d602081101561090c57600080fd5b50518151829060009061091b57fe5b60200260200101906001600160a01b031690816001600160a01b031681525050308160018151811061094957fe5b60200260200101906001600160a01b031690816001600160a01b031681525050816001600160a01b031663b6f9de95846000848842610168016040518663ffffffff1660e01b81526004018085815260200180602001846001600160a01b03166001600160a01b03168152602001838152602001828103825285818151815260200191508051906020019060200280838360005b838110156109f55781810151838201526020016109dd565b50505050905001955050505050506000604051808303818588803b158015610a1c57600080fd5b505af1158015610a30573d6000803e3d6000fd5b50505050505050505050565b604080516002808252606080830184526000938793919290602083019080368337019050509050816001600160a01b031663ad5c46486040518163ffffffff1660e01b815260040160206040518083038186803b158015610a9c57600080fd5b505afa158015610ab0573d6000803e3d6000fd5b505050506040513d6020811015610ac657600080fd5b505181518290600090610ad557fe5b60200260200101906001600160a01b031690816001600160a01b0316815250508381600181518110610b0357fe5b60200260200101906001600160a01b031690816001600160a01b031681525050816001600160a01b031663d06ca61f86836040518363ffffffff1660e01b81526004018083815260200180602001828103825283818151815260200191508051906020019060200280838360005b83811015610b89578181015183820152602001610b71565b50505050905001935050505060006040518083038186803b158015610bad57600080fd5b505afa158015610bc1573d6000803e3d6000fd5b505050506040513d6000823e601f3d908101601f191682016040526020811015610bea57600080fd5b8101908080516040519392919084640100000000821115610c0a57600080fd5b908301906020820185811115610c1f57600080fd5b8251866020820283011164010000000082111715610c3c57600080fd5b82525081516020918201928201910280838360005b83811015610c69578181015183820152602001610c51565b50505050905001604052505050600181518110610c8257fe5b6020026020010151925050509392505050565b6040805163f305d71960e01b81523060048201526024810184905260006044820181905260648201526001600160a01b038581166084830152610168420160a48301529151869283169163f305d71991859160c48082019260609290919082900301818588803b158015610d0857600080fd5b505af1158015610d1c573d6000803e3d6000fd5b50505050506040513d6060811015610d3357600080fd5b5050505050505056fea2646970667358221220fc73ec359d7d13d831e766d02da542edcf8c4ae97b705f89ae15c077d2d5c97164736f6c63430006080033",
  "immutableReferences": {},
  "source": "pragma solidity >=0.6.8;\n\nimport \"./BepLib.sol\";\nimport \"@openzeppelin/contracts/math/SafeMath.sol\";\n\nlibrary Utils {\n    using SafeMath for uint256;\n\n    function swapTokensForEth(address routerAddress, uint256 tokenAmount)\n        public\n    {\n        IPancakeRouter02 pancakeRouter = IPancakeRouter02(routerAddress);\n\n        // generate the pancake pair path of token -> weth\n        address[] memory path = new address[](2);\n        path[0] = address(this);\n        path[1] = pancakeRouter.WETH();\n\n        // make the swap\n        pancakeRouter.swapExactTokensForETHSupportingFeeOnTransferTokens(\n            tokenAmount,\n            0, // accept any amount of BNB\n            path,\n            address(this),\n            block.timestamp\n        );\n    }\n\n    function swapBNBForToken(\n        address routerAddress,\n        address tokenAddress,\n        address recipient,\n        uint256 bnbAmount\n    ) public {\n        IPancakeRouter02 pancakeRouter = IPancakeRouter02(routerAddress);\n\n        // Generate the pancake pair path of token => WETH\n        address[] memory path = new address[](2);\n        path[0] = pancakeRouter.WETH();\n        // path[1] = address(0xd66c6B4F0be8CE5b39D52E0Fd1344c389929B378);\n        path[1] = tokenAddress;\n\n        // Swap\n        pancakeRouter.swapExactETHForTokensSupportingFeeOnTransferTokens{\n            value: bnbAmount\n        }(0, path, address(recipient), block.timestamp + 360);\n    }\n\n    function swapETHForTokens(\n        address routerAddress,\n        address recipient,\n        uint256 ethAmount\n    ) public {\n        IPancakeRouter02 pancakeRouter = IPancakeRouter02(routerAddress);\n\n        // generate the pancake pair path of token -> weth\n        address[] memory path = new address[](2);\n        path[0] = pancakeRouter.WETH();\n        path[1] = address(this);\n\n        // make the swap\n        pancakeRouter.swapExactETHForTokensSupportingFeeOnTransferTokens{\n            value: ethAmount\n        }(\n            0, // accept any amount of BNB\n            path,\n            address(recipient),\n            block.timestamp + 360\n        );\n    }\n\n    function addLiquidityForTokens(\n        address _routerAddress,\n        address _tokenAddress,\n        address _to,\n        uint256 _bnbAmount\n    ) public {\n        IPancakeRouter02 pancakeRouter = IPancakeRouter02(_routerAddress);\n        // generate the pancake pair path of token -> weth\n        address[] memory path = new address[](2);\n        path[0] = pancakeRouter.WETH();\n        path[1] = address(_tokenAddress);\n\n        uint256 size1 = pancakeRouter.getAmountsOut(_bnbAmount, path)[1];\n\n        pancakeRouter.addLiquidityETH{value: _bnbAmount}(\n            _tokenAddress,\n            size1,\n            0, // slippage is unavoidable\n            0, // slippage is unavoidable\n            _to,\n            block.timestamp + 360\n        );\n    }\n\n    function addLiquidity(\n        address routerAddress,\n        address owner,\n        uint256 tokenAmount,\n        uint256 ethAmount\n    ) public {\n        IPancakeRouter02 pancakeRouter = IPancakeRouter02(routerAddress);\n\n        // add the liquidity\n        pancakeRouter.addLiquidityETH{value: ethAmount}(\n            address(this),\n            tokenAmount,\n            0, // slippage is unavoidable\n            0, // slippage is unavoidable\n            owner,\n            block.timestamp + 360\n        );\n    }\n\n    function getReturnAmount(\n        address _routerAddress,\n        uint256 _amount,\n        address _token\n    ) public view returns (uint256) {\n        IPancakeRouter02 pancakeRouter = IPancakeRouter02(_routerAddress);\n        address[] memory path = new address[](2);\n        path[0] = pancakeRouter.WETH();\n        path[1] = address(_token);\n\n        return pancakeRouter.getAmountsOut(_amount, path)[1];\n    }\n}\n",
  "sourcePath": "/Users/tamnguyen/Documents/project/xbn/xblade-token-distribution/contracts/lib/Utils.sol",
  "compiler": {
    "name": "solc",
    "version": "0.6.8+commit.0bbfe453.Emscripten.clang"
  },
  "schemaVersion": "3.3.2",
  "updatedAt": "2021-10-01T15:37:50.281Z",
  "networkType": "ethereum",
  "devdoc": {
    "methods": {}
  },
  "userdoc": {
    "methods": {}
  }
}